:020000040800F2
:10000000C02B0020A10100083F1000084D0F000880
:100010003D100008E702000811130008000000006E
:100020000000000000000000000000005511000862
:10003000E902000800000000411000085711000804
:10004000BB010008BB010008BB010008BB010008A0
:10005000BB010008BB010008BB010008BB01000890
:10006000BB010008BB010008BB010008BB01000880
:10007000BB010008BB010008BB010008BB01000870
:10008000BB010008BB010008BB010008BB01000860
:10009000BB010008BB010008BB010008BB01000850
:1000A000BB010008BB010008BB010008BB01000840
:1000B000BB010008BB010008BB010008BB01000830
:1000C000BB010008BB010008BB010008BB01000820
:1000D000BB010008BB010008BB010008BB01000810
:1000E000BB010008BB010008BB010008BB01000800
:1000F000BB010008BB010008BB010008BB010008F0
:10010000BB010008BB010008BB010008BB010008DF
:10011000BB010008BB010008BB010008BB010008CF
:10012000BB010008BB010008BB010008BB010008BF
:10013000BB010008BB010008BB010008BB010008AF
:10014000BB010008BB010008BB010008BB0100089F
:10015000BB010008BB010008BB010008BB0100088F
:10016000BB010008BB010008BB010008BB0100087F
:10017000BB010008BB010008BB0100080000000033
:10018000BB010008BB010008DFF810D000F07CF8CC
:100190000048004745160008AFF30080C02B002040
:1001A0000648804706480047FEE7FEE7FEE7FEE711
:1001B000FEE7FEE7FEE7FEE7FEE7FEE7F5110008D3
:1001C000890100082DE9F05F0546002092469B4614
:1001D00088460646814640241BE02846414647465D
:1001E000224600F041F853465A46C01A914110D3B6
:1001F00011461846224600F028F82D1A67EB010830
:100200004F4622460120002100F01FF817EB00099D
:100210004E41201EA4F10104DFDC484631462A4647
:100220004346BDE8F09FD2B201E000F8012B491E21
:10023000FBD270470022F6E710B513460A46044683
:100240001946FFF7F0FF204610BD202A04DB203AB4
:1002500000FA02F1002070479140C2F1200320FA19
:1002600003F3194390407047202A04DB203A21FA17
:1002700002F00021704721FA02F3D040C2F12002BF
:100280009140084319467047064C074D06E0E06868
:1002900040F0010394E8070098471034AC42F6D3CD
:1002A000FFF776FFC8190008E819000830B58C1868
:1002B00010F8012B12F00F0301D110F8013B1209C5
:1002C00006D110F8012B03E010F8015B01F8015B87
:1002D0005B1EF9D101E001F8013B521EFBD1A142A6
:1002E000E6D3002030BDFEE7704772B6FEE700009F
:1002F0002DE9F84FDFF8BCA10022012503264FF0BD
:100300000F090AF1040BAAF1040E00BF0B6805FAED
:1003100002F42340A34270D10F7907F00307012FA5
:1003200001D0022F16D187684FEA420806FA08FC6E
:1003300027EA0C07D1F80CC00CFA08FC4CEA070CB1
:10034000C0F808C04768A7430C79C4F30014944070
:100350003C4344600C79E443A4070AD0C4684FEAE4
:10036000420C06FA0CF7BC438F6807FA0CF72743D8
:10037000C7600C7904F00304022C12D1D40800EBFE
:10038000840CDCF820405707FF0E09FA07F824EA2E
:100390000804D1F8108008FA07F848EA0408CCF8F5
:1003A000208004684FEA420C06FA0CF7BC430F7930
:1003B00007F0030707FA0CF7274307604C6814F4AB
:1003C000403F70D03C4C276847F480472760246842
:1003D00022F0030704F480440094384C07EB040C2B
:1003E000DCF8084897074FEA177809FA08F7BC4382
:1003F000334FB84202D1002724E054E0314FB842D5
:1004000001D101271EE0304FB84201D1022719E087
:100410002E4FB84201D1032714E02D4FB84201D12D
:1004200004270FE02B4FB84201D105270AE02A4FDD
:10043000B84201D1062705E0284FB84201D107276D
:1004400000E0082707FA08F72743CCF80878DAF81D
:1004500000405746D1F804C09C435FEACC2C00D53D
:100460001C433C60DBF800405F46D1F804C09C436D
:100470005FEA8C2C00D51C433C60DEF800407746D8
:10048000D1F804C09C435FEA8C3C00D51C433C601F
:10049000084F083F3C68D1F804C09C435FEACC3C5D
:1004A00000D51C433C60521C102AFFF42FAFBDE85E
:1004B000F88F0000083C0140443802400030014001
:1004C000000002400004024000080240000C02400C
:1004D000001002400014024000180240001C0240BC
:1004E0000AB1816170470904FBE700000148806898
:1004F0007047000088130020024881680278114488
:1005000081607047881300200B4810B5016841F4E2
:1005100000710160016841F480610160016841F48B
:1005200080710160032000F061F80F2000F006F8F0
:1005300000F024F8002010BD003C024070B50D4DC5
:1005400004464FF47A712878B1FBF0F00A49096843
:10055000B1FBF0F000F07FFC48B9102C07D200226C
:100560002146501E00F022F800206C6070BD012072
:1005700070BD000088130020941300200A4808B5BD
:10058000016841F480410160006800F480400090FF
:100590000548001F016841F080510160006800F0CB
:1005A0008050009008BD000044380240F0B40E4B6B
:1005B0001B680C46C3F30223C3F10705042D00D9C1
:1005C0000425191D072901D2002300E0DB1E0126A6
:1005D00006FA05F1491E214099409E40761E1640BC
:1005E0003143F0BC00F0A6BE0CED00E0064900F07F
:1005F000070208684FF6FF03184040EA0220034A4A
:1006000010430860704700000CED00E00000FA05A0
:100610002DE9F0470E46050065D0DFF81481D8F8C3
:100620000000F7B200F00700B04207D288F800706F
:10063000D8F8000000F00700B04254D128683D4CC3
:10064000810712D5400703D5206840F4E0502060B0
:100650002878000703D5206840F4604020602068B7
:10066000A96820F0F000084320602878C0072DD04A
:10067000304968680839012812D0022813D00328AD
:1006800011D00968890700292DDA216821F00301BA
:1006900001432160FFF72AFF814641F2883A0EE0CC
:1006A00009688903EFE709688901ECE7FFF71EFF96
:1006B000A0EB0901514502D90320BDE8F08720686D
:1006C000696800F00C00B0EB810FEFD1D8F8001092
:1006D000404601F00701B14207D90770006800F0F9
:1006E0000700B04201D00120E7E72878400705D590
:1006F0002068E96820F4E05008432060287800076B
:1007000006D52068296920F4604040EAC1002060D5
:1007100000F038F82168084AC1F30311515CC84061
:100720000649086006480068FFF708FF0020C4E794
:10073000003C024008380240B01900089413002021
:100740008C1300200448054900680968044AC1F375
:100750008221515CC8407047941300200838024041
:10076000C01900080448054900680968044AC1F333
:100770004231515CC8407047941300200838024051
:10078000C0190008154810B5006810F00C02144894
:1007900013D04110042A0FD0082A0ED10F4C241F69
:1007A0002268236802F03F025B0207D52068C0F38D
:1007B0008810A0FB010106E0084610BD2168C1F3C6
:1007C0008811A1FB00010023FFF7FCFC2168C1F3A5
:1007D0000141491C4900B0FBF1F010BD083802404E
:1007E0000024F4002DE9F84F04006ED02078DFF8E3
:1007F0004C93C007A9F104054AD009F1040001682F
:10080000C1F38101012908D00068C0F381000228EA
:100810000AD1D9F80000400206D52868800337D5F0
:1008200060680028E1D033E06068B0F5803F10D008
:10083000B0F5A02F286810D020F4803028602868F8
:1008400020F4802028606068A8B1FFF74FFE0646BC
:100850000DE0286840F48030F4E740F48020286000
:10086000F7E700BFFFF742FE801B642873D82868B3
:100870008003F7D50CE0FFF739FE064605E000BF20
:10088000FFF734FE801B6428F0D828688003F7D473
:100890002078DFF8AC8280074FF0000A3ED5A748E9
:1008A000001D016811F00C0F08D00068C0F3810032
:1008B00002280BD1D9F80000400207D4286880072D
:1008C00016D5E068012800D112E033E1E068B8B144
:1008D0000120C8F80000FFF709FE064605E000BF4A
:1008E000FFF704FE801B0228C0D828688007F7D5D0
:1008F0002868216920F0F80040EAC10028600DE076
:10090000C8F800A0FFF7F2FD064604E0FFF7EEFD91
:10091000801B02281FD828688007F7D4207800079A
:1009200022D5864F87486169703771B10121016016
:10093000FFF7DCFD064604E0FFF7D8FD801B022828
:1009400009D838688007F7D50EE0C0F800A0FFF797
:10095000CDFD064605E082E0FFF7C8FD801B0228BA
:100960007DD838688007F7D42078400768D5DFF84D
:10097000CCB100270BF13C0BDBF80000C0000BD41E
:10098000DBF8001041F08051CBF80010DBF80000DC
:10099000012700F0805000906B4E3068C00510D4E5
:1009A000306840F480703060FFF7A0FD009005E0F3
:1009B000FFF79CFD0099401A022850D83068C00506
:1009C000F6D55E4EA0686C3601280FD00528306839
:1009D00010D020F001003060306820F0040030605A
:1009E000A068B8B1FFF782FD00900FE0306840F0DA
:1009F0000100F4E740F004003060F7E7FFF776FD10
:100A00000099411A41F28830814266D830688007E7
:100A1000F4D50EE0FFF76AFD009007E0FFF766FDF2
:100A20000099411A41F28830814256D830688007D7
:100A3000F4D42FB1DBF8001021F08051CBF8001076
:100A4000A069C8B33D49091D0968C1F381010229A4
:100A50004AD00228504607D0C8F8600000E03CE0C9
:100A6000FFF744FD04463BE04746C8F86000FFF747
:100A70003DFD064605E000BFFFF738FD801B02285C
:100A80002BD828688001F7D4D4E907010843A16A6C
:100A90002E4A490802EB0141626A41EA8211084389
:100AA00094F82C1040EA0161C9F800100120386662
:100AB000FFF71CFD044606E03EE000BFFFF716FD11
:100AC000001B022809D828688001F7D534E000BF50
:100AD000FFF70CFD001B022802D90320BDE8F88FA8
:100AE00028688001F4D427E00128F7D0D9F8000065
:100AF000E26900F4800191421CD1226A00F03F01BA
:100B0000914217D147F6C071626A0140B1EB821F72
:100B100010D1A26A4FF0FF3300F4403103EB5202D0
:100B2000B1EB024F06D194F82C1000F07060B0EBDE
:100B3000016F01D00120D1E70020CFE70438024047
:100B400000004742800E4742007000400000FFFF57
:100B500070B5040009D0606A002540B12561656167
:100B6000A56294F8510040B10CE0012070BD6068AE
:100B7000B0F5827FF4D0E561F2E784F8505020466A
:100B800000F044F8022084F851002068016821F048
:100B900040010160A088218900F4827001F40441C1
:100BA0000843A18901F400610843217C01F002019E
:100BB0000843217D01F001010843218B01F40071FC
:100BC0000843217F01F03801084394F8201001F018
:100BD00080010843218D01F4005108432168086019
:100BE000A069042101EA104094F8241001F01001DA
:100BF0000843216848602068C16921F40061C1612F
:100C00006565012084F85100002070BD10B586B0E4
:100C1000044614216846FFF70DFB134920688842FB
:100C200020D112480021026842F48052026000681C
:100C300000F4805005900D481438026842F002021A
:100C40000260006800F00200059038200090022049
:100C5000CDE9010103200390052004906946044872
:100C6000FFF746FB06B010BD00300140443802409B
:100C7000000402402DE9F84F044690F85000002788
:100C80000A9E1D4692468B464FF0010901280ED060
:100C9000012084F85000FFF729FC804694F85100A9
:100CA000616801280CD0B1F5827F07D102E00220F3
:100CB000BDE8F88FA16809B9042801D00227C2E075
:100CC000BBF1000F27D0BAF1000F24D01DB394F868
:100CD0005100042802D0052084F8510000206065EE
:100CE000C4F838A0E587A587C4F830B0E586A586A6
:100CF0002064606420680168490603D4016841F0FB
:100D000040010160E068B0F5006F606805D0E8B3AD
:100D1000012D46D07FE0012795E008B1012D39D1A2
:100D2000206B21680088C860206B801C2063E08EE7
:100D3000401EE0862EE02068816889070FD5E18E8D
:100D400069B1B9F1010F0AD1216B0988C160206B2B
:100D5000801C2063E08E401EE0864FF00009206872
:100D60008168C9070CD0E18F51B1C068A16B0880C0
:100D7000A06B801CA063E08F401EE0874FF001094C
:100D8000FFF7B4FBA0EB0800B04200E009E001D39C
:100D9000701C50D1E08E0028CDD1E08F0028CAD140
:100DA0003FE0206B216800780873206B401C2063B3
:100DB000E08E401EE0862EE02068816889070FD50E
:100DC000E18E69B1B9F1010F0AD1216B0978017384
:100DD000206B401C2063E08E401EE0864FF000092F
:100DE00020688168C9070CD0E18F51B1C068A16B40
:100DF0000870A06B401CA063E08F401EE0874FF09E
:100E00000109FFF773FBA0EB0800B04202D3701C8E
:100E100001D010E07EB1E08E0028CDD1E08F002817
:100E2000CAD142463146204600F00CF928B10127CC
:100E30002020606507E0032705E0A06818B9206856
:100E4000C16880680090012084F85100002084F877
:100E5000500038462CE710B5401EB0F1807F01D31A
:100E6000012010BD4FF0E02460610F21601700F0F9
:100E700061FA0020A06107202061002010BD70B53C
:100E8000040004D094F83D00002510B106E00120D4
:100E900070BD84F83C50204600F022F8242084F8ED
:100EA0003D002068C16821F40051C160204600F077
:100EB000A9F92068016921F4904101612068416924
:100EC00021F02A0141612068C16841F40051C160EC
:100ED0002564202084F83D0084F83E00002070BD89
:100EE00010B586B0044614216846FFF7A3F91449EB
:100EF0002068884221D113480021026842F0100284
:100F00000260006800F0100005900E481438026876
:100F100042F001020260006800F0010005904FF409
:100F2000C06000900220CDE901010320039007205A
:100F3000049069460448FFF7DBF906B010BD0000D5
:100F4000001001404438024000000240FEE700006B
:100F500030B587B014216846FFF76CF915480024B6
:100F6000016841F080010160016801F08001059194
:100F7000016841F002010160016801F00201059180
:100F8000016841F00101016000680B4D00F00100B3
:100F90000590002201212846FFF7A2FA01210091C5
:100FA000CDE90114694628460394FFF7A1F907B07B
:100FB00030BD00003038024000040240104810B537
:100FC0000E4901604FF48271416000218160C1606F
:100FD0004FF400720161C0E905120822C0E907213F
:100FE000416281620A21C162FFF7B2FD002803D08D
:100FF000BDE81040FFF779B910BD00000030014096
:10100000242700200C4810B50A4901604FF4E13153
:101010004160002181600C22C160C0E9041281613D
:10102000C161FFF72CFF002803D0BDE81040FFF797
:101030005CB910BD001001407C270020FEE7FEE7F0
:101040007047000038B504461248134B0068B0FBE7
:10105000F3F04FF47A73584300906068B0F5827FE4
:101060000DD10B46009200228021204600F016F898
:1010700070B1606D40F020006065032038BD0098BD
:1010800030B1401E009020688068C0430006F6D54D
:10109000002038BD9413002000366E012DE9F8437E
:1010A0001E46914688460446089DFFF71FFA401BDE
:1010B000351AFFF71BFA074625480068C0F3CB3006
:1010C000684338E0701C37D0FFF710FAC01BA84205
:1010D00003D215B1009860B32CE02068416821F07C
:1010E000E00141606068B0F5827F0BD1A068B0F587
:1010F000004F02D0B0F5806F04D12068016821F064
:1011000040010160A06AB0F5005F09D12068016864
:1011100021F4005101602068016841F40051016030
:10112000012084F85100002084F850000320BDE81D
:10113000F8830025401E00902068816838EA01008D
:1011400004D000214945BDD10020F0E70121F9E795
:10115000941300207047FFF7CFB9000030B593B06B
:1011600030216846FFF766F814210CA8FFF762F8F3
:101170001E480025016841F080510160006800F0C0
:10118000805011901A48016841F480410160006864
:10119000022400F48040119001200090000401908E
:1011A0008001CDE90640082008904FF4A870CDE9F1
:1011B000090404200B906846FFF714FB08B172B6CF
:1011C000FEE70CA90F2081E831004FF4A0500F90EA
:1011D0004FF48050109005210CA8FFF719FA002851
:1011E00001D072B6FEE713B030BD000040380240B7
:1011F000007000400248016841F4700101607047CE
:1012000088ED00E070B5044600680169E26821F4E9
:101210004051114301612169A068E2690843616995
:10122000114308432168CA6849F20C639A43024398
:10123000CA6020684169A26921F44071114341618B
:1012400031492068884202D03049884202D1FFF7F4
:1012500089FA01E0FFF776FAE26900231921642593
:101260003226B2F5004F626828D0A0FB0101930F2F
:101270009200FEF7A7FF0146B0FBF5F06FF01802F1
:10128000504301EB800006EB0010B0FBF5F000F0DE
:10129000F002B1FBF5F002EB0012B1FBF5F06FF0DC
:1012A0001803584301EB800006EB0010B0FBF5F08B
:1012B00000F00F0021681044886070BDA0FB0101A0
:1012C00092185B41FEF77EFF0146B0FBF5F002018C
:1012D000B1FBF5F06FF01803584301EB800006EB0B
:1012E000C000B0FBF5F000F0F80002EB4002B1FBEB
:1012F000F5F0584301EB800006EBC000B0FBF5F0C1
:1013000000F00700D6E70000001001400014014083
:10131000FEE700000FB4054B10B503A9044A02987C
:1013200000F028F810BC5DF814FB0000351600082A
:10133000981300200907090E002804DB00F1E020C3
:1013400080F80014704700F00F0000F1E02080F8F2
:10135000141D704702E008C8121F08C1002AFAD104
:1013600070477047002001E001C1121F002AFBD125
:10137000704700002DE9FF4F8DB09B460F46044695
:10138000002606E025280BD05A460F999047641C8A
:10139000761C20780028F5D111B03046BDE8F08FDA
:1013A0000025A8460122984900E0054314F8013FB2
:1013B000203B02FA03F00842F7D120782E2817D1FB
:1013C00014F8010F45F004052A280ED06FF02F0203
:1013D0002078A0F1300109290AD808EB880102EB36
:1013E000410100EB0108641CF2E757F8048B641C10
:1013F00020786C280DD004DC4C2812D06A2811D13A
:1014000004E074280DD07A280CD10AE045F40015C8
:1014100007E0617845F48015814202D1641C05F52E
:101420008015641C2078692844D008DC0028B3D0DB
:10143000582867D063280FD0642808D13AE0702874
:1014400065D0732812D075285AD078285AD05A46B9
:101450000F999047761CD5E017F8040B8DF8000023
:1014600000208DF80100E946012003E057F8049BB5
:101470004FF0FF3069074FF0000501D40AE06D1C02
:1014800045450DDA8542FADB19F805100029F6D139
:1014900006E06D1C8542FCDB19F805100029F8D127
:1014A0002E4404E019F8010B5A460F9990476D1E1F
:1014B000F8D2A7E00A200021CDE90801C5F30250C7
:1014C00002280CD001CFC117021E71F100020CDA04
:1014D0000023D0EB030063EB01012D2208E0FF1D88
:1014E00027F00707F7E80201EEE72A0504D52B22CB
:1014F0008DF8282001223CE0EA073AD02022F7E7C5
:101500000A2000E010200021CDE9080107E01020AA
:10151000002145F00405CDE908014FF00808C5F3A6
:101520000250022810D001CF00214FF0000A2A07F4
:1015300020D52278702A0DD0DDE908C38CF0100C7C
:101540005CEA030C0CD015E0FF1D27F00707F7E855
:101550000201EAE740228DF828204FF0010A0CE052
:1015600050EA010306D030238DF828308DF8292069
:10157000022292462278582A04D024A20DF1200992
:101580000B9209E026A2F9E7DDE90823FEF71AFE2F
:101590000B9B9B5C09F8013D50EA0102F4D1ADEBD5
:1015A000090020300890680701D44FF0010808991D
:1015B000884503DD0898A8EB000000E00020804685
:1015C000002506E00AA85A46405D0F9990476D1C19
:1015D000761C5545F6DB04E030205A460F999047BB
:1015E000761CB8F10001A8F10108F5DC05E019F856
:1015F000010B5A460F999047761C0899481E08908F
:101600000029F4DC641CC4E60928010030313233BF
:10161000343536373839616263646566000000002E
:101620003031323334353637383941424344454618
:101630000000000002490A681206FCD548607047A5
:1016400000100140FEF760FFFFF788FDFFF780FC08
:10165000FFF7B4FCFFF7D6FC28A0FFF75BFE00F015
:10166000C9F801462BA0FFF755FE002000F074F8E2
:101670004FF480563446304600F06EF82246002182
:10168000284800F08DF828A0FFF744FE254D0024DF
:1016900028A0295DFFF73EFE641CB442F8D326A0C3
:1016A000FFF738FE14220021264800F03BF91422EF
:1016B00000211C4800F074F81A4923A0FFF72AFE05
:1016C0000020204955220A54401CB042FBD34FF45D
:1016D0007A7640F6FA74324621461A4800F0DCF871
:1016E000324621460F4800F05BF8002411A0295D26
:1016F000FFF710FE641CB442F8D3FEE77468697308
:101700002069732073706920666C6173682074654A
:1017100073740A00464C4153485F4944203D2025DC
:10172000780A00009C130020B6C1CAFDBEDDBFAA26
:10173000CABC0A0025782000B6C1CAFDBEDDBDE1E5
:10174000CAF80A0000000020524541442044415498
:10175000413A2025730A000070B5044600F0CEF827
:101760000E4D002201212846FEF7BAFE202000F08F
:1017700067F8C4F3074000F063F8C4F3072000F0F3
:101780005FF8E0B200F05CF8012211462846FEF74F
:10179000A7FEBDE8704000F067B8000000040240FA
:1017A0002DE9F041124F14460D4606460022012154
:1017B0003846FEF795FE032000F042F8C5F30740D7
:1017C00000F03EF8C5F3072000F03AF8E8B200F068
:1017D00037F804E0002000F033F806F8010B641E2F
:1017E000F8D23846BDE8F04101221146FEF778BE36
:1017F0000004024070B5114D002201212846FEF779
:101800006FFE902000F01CF8002000F019F8002076
:1018100000F016F8002000F013F8002000F010F897
:101820000446002000F00CF8064601221146284626
:10183000FEF756FE46EA042070BD00000004024098
:101840000EB501238DF8080000208DF804004FF438
:101850007A70009001AA02A90248FFF70BFA9DF8DE
:1018600004000EBD2427002010B50A4C00220121DF
:101870002046FEF735FE0520FFF7E2FF0020FFF7C8
:10188000DFFFC007FAD120460122BDE81040114613
:10189000FEF726BE000402402DE9F041074611F094
:1018A000FF0015460E46C0F5807408D0A54206D943
:1018B0002246384600F036F82D1B27442644C5F34F
:1018C0000F24EDB274B14FF48078641EA4B209D332
:1018D00042463146384600F025F806F5807607F591
:1018E0008077F2E7002D06D02A4631463846BDE81B
:1018F000F04100F017B8BDE8F081000010B5084CC9
:10190000002201212046FEF7EBFD0620FFF798FF9D
:1019100020460122BDE810401146FEF7E1BD00005F
:10192000000402402DE9F04106464FF48070144651
:101930000D46824203D9044614A0FFF7EBFCFFF7E3
:10194000DDFF1A4F002201213846FEF7C9FD0220B3
:10195000FFF776FFC5F30740FFF772FFC5F30720D7
:10196000FFF76EFFE8B2FFF76BFF03E03078FFF799
:1019700067FF761C641EF9D2012211463846FEF735
:10198000AFFDBDE8F041FFF76FBF0000D0B4CAFD66
:10199000BEDDC1BFCCABB4F3A3ACB3ACB9FDD2BB1D
:1019A000D2B3B5C4B4F3D0A10A00000000040240D1
:1019B00000000000000000000102030406070809FF
:1019C0000000000001020304E819000800000020E4
:1019D0009C130000AC020008301A00089C13002081
:1019E00024180000641300080016FF5350492046D5
:1019F0004C41534820575249544520544553540AAA
:101A000001FF01FF01FF01FF01FF01FF01FF01FFD6
:101A100001FF01FF01FF01FF01FF01FF01FF01FFC6
:101A200001FF01FF019A420192106324F4000000BB
:040000050800018965
:00000001FF
