:020000040800F2
:10000000B8080020510200080B2F00084F2E0008EE
:10001000092F00089D1D000835330008000000006E
:100020000000000000000000000000000F2F00088A
:100030009F1D0008000000000D2F0008112F000870
:100040006B0200086B0200086B0200086B020008DC
:100050006B0200086B0200086B0200086B020008CC
:100060006B0200086B0200086B0200086B020008BC
:100070006B0200086B0200086B0200086B020008AC
:100080006B0200086B0200086B0200086B0200089C
:100090006B0200086B0200086B0200086B0200088C
:1000A0006B0200086B0200086B0200086B0200087C
:1000B0006B0200086B0200086B0200086B0200086C
:1000C0006B0200086B0200086B0200086B0200085C
:1000D0006B0200086B0200086B0200086B0200084C
:1000E0006B0200086B0200086B0200086B0200083C
:1000F0006B0200086B0200086B0200086B0200082C
:100100006B0200086B020008BD2F00086B0200089C
:100110006B0200086B0200086B0200086B0200080B
:100120006B0200086B0200086B0200086B020008FB
:100130006B0200086B0200086B0200086B020008EB
:100140006B0200086B0200086B0200086B020008DB
:100150006B0200086B0200086B0200086B020008CB
:100160006B0200086B0200086B0200086B020008BB
:100170006B0200086B0200086B0200080000000020
:100180006B0200086B02000800F002F800F051F862
:100190000AA090E8000C82448344AAF10107DA45E2
:1001A00001D100F046F8AFF2090EBAE80F0013F0E3
:1001B000010F18BFFB1A43F001031847E036000097
:1001C00000370000103A24BF78C878C1FAD8520727
:1001D00024BF30C830C144BF04680C6070470000C1
:1001E0000023002400250026103A28BF78C1FBD840
:1001F000520728BF30C148BF0B607047662903F023
:10020000C782002070471FB503F0BDFA9DE80300C8
:1002100000F0FAFE00F092FB04000020002103F041
:1002200025FAE06000F0A2FC1FBD10B500F007FD4C
:1002300010BD00F06FFD1146FFF7E5FF03F0F8F881
:1002400000F074FE03B4FFF7F0FF03BC01F06EF89A
:100250000948804709480047FEE7FEE7FEE7FEE75A
:10026000FEE7FEE7FEE7FEE7FEE7FEE70448054996
:10027000054A064B70470000AD2F000889010008B1
:10028000B8020020B8080020B8040020B8040020FC
:1002900053EA020C00F069802DE9F04B4FF00006A4
:1002A000002B1FBFB3FA83F503FA05F424FA05F611
:1002B0005E4012BF1643B2FA82F502FA05F4C5F1A8
:1002C00020051EBF22FA05FC44EA0C04203556EA3C
:1002D000044C4FEA144418BF641C4FF000084FF060
:1002E0000009904271EB030C39D3002919BFB1FA10
:1002F00081F701FA07F6B0FA80F700FA07F6C7F1BE
:1003000020071EBF20FA07FC46EA0C062037B6FB82
:10031000F4FCA7EB0507103F07F01F0BCBF12006FD
:100320000CFA0BFB2CFA06F644BFB3460026202F2E
:10033000A4BF5E464FF0000B5BEA060C08BF4FF00F
:10034000010B19EB0B09ABFB027C48EB0608C01B49
:1003500006FB02CC0BFB03CC71EB0C01C1E70B4697
:10036000024641464846BDE8F08B13B54FF0000009
:100370004FF00001AFF30080BDE81C407047000063
:100380000FB4044910B503AA029800F0C5FA10BCD6
:100390005DF814FBAC0100202DE9F0474FF0000A96
:1003A00089460446C0F820A02046E1688847002816
:1003B00076D0252806D0D4E901219047206A401C38
:1003C0002062F1E7E168204600258847C4F81CA0B8
:1003D00006460027C4F818A02A2E09D0304603F09C
:1003E00007F838B304EB8708303EC8F8186019E006
:1003F00059F8041B204604EB87029161E1688847A5
:10040000012F064618D1E069002820DA25F02005E2
:100410001DE0D8F8180000EB800006EB40003038F3
:10042000C8F818002046E1688847064602F0E0FF59
:100430000028EED1012F0AD02E2E08D12046E168E7
:1004400088477F1C0646022F45F02005C4DBA069C3
:10045000002803DA404245F00105A061E80701D019
:1004600025F01005B6B1A6F14100192802D82036B2
:1004700045F400654A463146204625604D46FFF763
:10048000BDFE58B1012806D0ED1D25F0070000F192
:10049000080989E704E005F1040985E730468AE7A1
:1004A000206ABDE8F0874FF0000200B5134694467D
:1004B0009646203922BFA0E80C50A0E80C50B1F1BC
:1004C0002001BFF4F7AF090728BFA0E80C5048BFD0
:1004D0000CC05DF804EB890028BF40F8042B08BF6E
:1004E000704748BF20F8022B11F0804F18BF00F86A
:1004F000012B704770477047704770472DE9FF4FD9
:100500000C461E464FF0FF378BB0D2E90001DDF8F4
:1005100060800A908A46C1F30A5505B93D4600211C
:1005200008464FF00000BAF1000F00F4400005DA71
:1005300000EB80004FF4400101EA50004FEA90596F
:10054000B9F1010F00DDB9460A9850EA4A000ED011
:1005500044F61050A5F2FF3545432F14B8F1000FB3
:100560001ED07542291E1EDDC9F100021CE0B8F143
:10057000010F4FF0000001D0302103E0F24305E00D
:100580002154401CB042FBDB3046002200212154A4
:100590000B99C1F80880C1E900200FB0BDE8F08FC9
:1005A000BD1B6D1CDEE74A4600DA694206A800F072
:1005B00067FA06AB93E8070003AB83E807005046F1
:1005C0000A9900F04FFF8DE80700A0F500501F3892
:1005D00000900398002D0ADD42F21F014A460844AC
:1005E000002303A90390684601F0B8F909E0A0F5DB
:1005F00000504A461F38002303A90390684601F0C3
:10060000C2F98DE807000004000C03D04FF0FF3062
:10061000410800E01046B8F1000F03D0002200921C
:1006200015461EE0751E05D400F08CF93032625577
:100630006D1EF9D5B3460122084302D000227F1C6B
:1006400004E02078302801D100227F1E002A09977B
:1006500084D01DE0112D07DA00F074F930326255B4
:100660006D1C50EA0102F5D1084302D00098C8B1D0
:100670000EE00021681E05E0235C625C6354225496
:10068000401E491C8142F7DBAB46A81B401E099067
:10069000002004F80B000B98099AC0F80880C0E904
:1006A000002B7AE711264FF0000857E72DE9F04FAD
:1006B00088460446D21D22F0070191B0D1E900011D
:1006C000CDE90A0102F06CFE02460B98C00F01D082
:1006D0002D2007E02068810701D52B2002E0202192
:1006E00001EAC000032A099001D0072A05DB03466E
:1006F0004146204600F084F90BE12078800601D5C0
:10070000E06900E00620B8F1650F814606D0B8F137
:10071000660F18D0B8F1670F70D131E00020B9F141
:10072000110F009001DB112301E009F101030AAA76
:1007300001A90CA8FFF7E2FEDDE90C70002609F123
:100740000105834647E001204B4600904FF00047EB
:100750000AAA01A90CA8FFF7D1FEDDE90DB00C999A
:100760005D46002610B909F101000D18B9EB05002E
:1007700003D4C0F1FF3609F10105A5EB09002BE018
:10078000B9F1010F01DA4FF001090020B9F1110FA1
:100790000090484601DD112300E003460AAA01A9A2
:1007A0000CA8FFF7ABFEDDE90C704D460026834632
:1007B000207800070AD4AB4500DA5D4601A8012D78
:1007C00004DD411911F8011C302907D04F4502DA28
:1007D00017F1040F04DA012082460FE06D1EEEE7E8
:1007E000002F02DCED1B3E4403E0781CA84200DD34
:1007F0007D1CB81B00F1010A4FF00047207800076C
:1008000003D4AA4501DB4FF0FF3A0021B7F1004FB6
:100810000DF143088DF8431024D002202B23002F24
:1008200001DA7F422D230A21021EA0F1010000DC23
:100830005FB197FBF1FC97FBF1F201FB1C7C1746C3
:100840000CF1300C08F801CDEEE7A8F101000370BF
:100850002188090501D5452100E06521A0F10108A5
:1008600000F8011C09980FA9A1EB0807FF1D00B1B2
:100870000120411901EBEA70A1693844081A401EB1
:10088000A0612078C00602D42046AFF3008009980A
:1008900028B1D4E901219047206A401C20622078C9
:1008A000C00622D52046AFF300801EE0002E04DBF8
:1008B000B34502DD01A8805D00E03020D4E90121CC
:1008C0009047206A401C2062761CAAF101005FEA72
:1008D000000A0AD100F032F8C0680168405CD4E92F
:1008E00001219047206A401C2062281EA5F10105C5
:1008F000DCDC07E0D4E9012118F8010B9047206AFD
:10090000401C2062381EA7F10107F3DC2046AFF33C
:100910000080032011B041E6074B70B50D467B44C3
:1009200000F05BF80446284600F01CF910B14FF0C7
:10093000FF3070BD204670BDF72A000000487047A8
:100940007402002030B5B0F10A024FEA900E71F146
:1009500000034EEA817EB0EB0E0061EB91014FEA9D
:10096000101E4EEA017E10EB0E0041EB11114FEA12
:10097000102E4EEA016E10EB0E0041EB11214FEAF2
:10098000104E4EEA014E10EB0E0041EB11414018A3
:1009900041F100014FEAD00040EA41704FEAD10135
:1009A00010EB80054FEA810444EA907444EB0104A3
:1009B0006D1944EB0404521BA3414FF0000348BFE0
:1009C0000A3200D530BD401C41F1000130BD0000AD
:1009D00001694A1C02610878704700B58FB0CDE903
:1009E00001310021059105497944CDE903101146F3
:1009F0006846FFF7D1FC0FB000BD0000E5FFFFFF28
:100A00002DE9F0411F46044603260168072A01F438
:100A1000006004DB08B116A505E016A503E008B1E7
:100A200015A500E015A521F010002060A069C01EEA
:100A3000A0610FB1401EA0612046AFF300804FB10E
:100A4000D4E9012138469047206A401C2062C01C2E
:100A5000206206E0206AFAE7D4E9012115F8010BCB
:100A60009047761EF8D22046AFF30080BDE8F081B3
:100A70004E414E006E616E00494E4600696E660042
:100A80002DE9F047814616468AB0354878440DC8AE
:100A90008DE80D0032487844801C03AC0DC884E812
:100AA0000D0041F69B300844372190FBF1F290FB9A
:100AB000F1F5A5F1800501FB12041B3C02D564424F
:100AC000012000E00020DFF898A080460027FA44CB
:100AD000AAF1BE0A0EE0E0070AD03246684607EBEC
:100AE000470101230AEB810100F04DFF8DE807006B
:100AF00064107F1C002CEED1194F7F44AE3F19E0EB
:100B0000E80715D007EB04100DF1180A90E80E0065
:100B10008AE80E00C068F04201D198190890324668
:100B2000012306A903A800F02EFF03AB83E807000A
:100B30006D10641C002DE3D14FF00103324669466D
:100B4000B8F1000F03A802D000F008FF01E000F0A8
:100B50001AFFC9E90001C9F808200AB0BDE8F0870A
:100B6000A02D0000007B00F08000704710B54248C7
:100B70005421FFF798FC41485421FFF794FC40486A
:100B80005421FFF790FC3F493B483C4A3F4B0860EB
:100B90003D490A603A491960531C0365481C1065B9
:100BA000012008653B48344A39A1784400F022F915
:100BB00020B9384878440A3800F0C1F937482F4A3C
:100BC00035A1784400F016F920B9344878440A3841
:100BD00000F0B5F932482A4A2FA1784400F00AF90A
:100BE00020B92F4878440A3800F0A9F94023224858
:100BF000DC000021224600F0D9F820B125487844D5
:100C0000543800F09CF91D4822464023002100F092
:100C1000CDF820B121487844543800F090F91848B4
:100C200022461023002100F0C1F8002806D01C48FD
:100C30007844BDE81040563800F081B910BD104826
:100C400070B5006D20F001040B4800F049F90B4825
:100C500000F046F90A4800F043F909E0206D20F061
:100C60000105204600F03CF9204600F078F82C46BB
:100C7000002CF3D170BD000058010020AC01002011
:100C80000002002030000020340000203800002046
:100C9000720000009A2C000077000000862C0000F3
:100CA000722C00000EB5CDE9000100F01FFB029090
:100CB00069460120ABBE0EBD08B569460090022012
:100CC000ABBE08BD1FB58DE8070069460520ABBE69
:100CD00004B010BD1FB58DE80F0069460620ABBEFD
:100CE000F6E708B5694600900920ABBE08BD1CB503
:100CF000CDE9000169460A20ABBE1CBD704708B5AE
:100D0000694600900C20ABBE08BD0000004870474B
:100D1000540200207546FFF7F9FFAE46050069460C
:100D2000534620F00700854618B020B5FFF79EFA1D
:100D3000BDE820404FF000064FF000074FF00008DC
:100D40004FF0000B21F00701AC46ACE8C009ACE85D
:100D5000C009ACE8C009ACE8C0098D46704770B561
:100D60000446051F00F034F90068002C14BF4468E5
:100D700070BD002C18BFAC423CBF20466468F8D35D
:100D800001680A18AA4218BF456003D12A680546BF
:100D90001144016028684119A1421CBF6C6070BDFC
:100DA0006168696021680844286070BD70B5C468D6
:100DB000A50713D0650211D4B2F5807F09D0B2F532
:100DC000007F06D0B2F5806F08D1012300F1240125
:100DD00006E05D1E6FF07F46B54201D3012070BD75
:100DE0000161C361416024F470611143C16000205E
:100DF00070BD00002DE9F0410C460746164610462E
:100E000000F06EF82078611C61280AD0722802D0A8
:100E100077283CD102E00125002405E002250424C6
:100E200002E0082448F2020511F8010B2B2806D035
:100E3000622809D011F8010C74280AD00BE045F0A3
:100E4000030544F00204EFE745F0040544F0010413
:100E5000EAE744F0100438462146FFF723FF411C1F
:100E600015D00021316171604FF40071F560F161BE
:100E70007061200704D530460222002100F022F9DB
:100E8000306D40F0010030653046BDE8F081002053
:100E9000FBE72DE9F0410D460646104C206DC107D9
:100EA00004D0410804D020F00104F7E722460EE008
:100EB000542000F0D8F807000ED0206D47F0010153
:100EC0000843542120653846FFF7EDFA3A46294693
:100ED0003046BDE8F0418DE70020D6E758010020FC
:100EE0002DE9F04704464FF000094FF0FF37C56881
:100EF000D4E90486A80707D0204600F093F93046CD
:100F0000FFF7DAFE002802DA3846BDE8F087280548
:100F100002D54046FFF723FF4C212046FFF7C3FAD6
:100F2000206D20F0010020654846EEE710B504462C
:100F3000AFF300802046BDE81040FFF783B910B53D
:100F400000F0BAF9BDE8104000F0B0B94FF0013C34
:100F500050F8042B51F8043B9A4221D1A2EB0C0328
:100F6000934313EACC1317D150F8042B51F8043BE8
:100F70009A4215D1A2EB0C03934313EACC130BD185
:100F800050F8042B51F8043B9A4209D1A2EB0C0310
:100F9000934313EACC13DBD04FF00000704700BF3F
:100FA000D01A01BAB1FA81F101F0180122FA01F068
:100FB000CB40C1F12001DBB2C0B2C01A2CFA01F360
:100FC000D11A914311EAC311E6D17047704700006E
:100FD000004870475C0200207047704770477047B8
:100FE00038B504460A4600206946AFF30080002861
:100FF00008BF38BD02460099204600F0A4F9012040
:1010000038BD012000F0F3B9F8B5AFF30080054614
:1010100000200C46102000BF0646A819A0420DD99A
:10102000324669460020AFF30080070008BF00F099
:10103000DEF90098A04218BF0546C419FFF7C8FFA3
:1010400005600746F01D20F007004619284600F00D
:1010500073F9B44208BFF8BDA21B31463868BDE839
:10106000F84000F070B970B50646FFF7B1FF0568AB
:1010700006F10B0020F00704B4429CBF002070BDB5
:101080002B466A68BAB11068A04210D304F1080177
:1010900088423CBF5068586007D3516810194160BE
:1010A0001168091B016058601460101D70BD134663
:1010B0005268002AE7D121462846FFF791FF002811
:1010C000DED170BD2DE9F041044616460D46476954
:1010D000007B80072ED03846FFF703FE50BB3EB39F
:1010E000012E02D0022E25D104E0204600F045F961
:1010F00005441DE03846FFF702FEE168002841F094
:101100001001E16005DA204600F058F80120BDE842
:10111000F081C9030BD56268E16A914200D811469B
:10112000A26911442269891A814200DD08460544FA
:10113000002D01DA0220EAE7E16A6068E268814294
:1011400006D29103E06203D522F4003141F010028F
:10115000A6690027AE4213DCE16A814201D90B4641
:1011600000E0034603EB060C2369ACEB030CAC4533
:1011700006DD814201D98C4600E084469C4505D1BC
:10118000A760276042F02000A5620DE0AD1BE66974
:10119000AE1B8142A66000D90846C01A281A2060FA
:1011A0005819606022F0200003490840E0600020E8
:1011B00084F84870ABE70000BFCFD7FFC16821F4C7
:1011C000001141F08001C160002181600160704721
:1011D0002DE9F047814614460E464FF0FF3832485D
:1011E000D5685769054209D03846A169FFF77FFDE8
:1011F000002811DB2C48C0430540E5602B463246F1
:1012000049463846FFF75EFDA16920F00042B21A58
:1012100011440028A16103D02046FFF7CFFF4046CC
:10122000BDE8F08770B504460569C06A6168884208
:1012300000D80846E16821F42011E160C90312D505
:10124000A84208D02246411B2846FFF7C1FF10B133
:101250004FF0FF3070BD0020E562C4E90150E06846
:1012600020F48030E060002070BD10B50446C068F6
:1012700020F02000E060A16AA06988420DD02046DD
:10128000FFF7D0FFE06820F4405040F01000E0602D
:10129000A06AA0612069E062606044F24001E068F9
:1012A0008843E06010BD000010000200002801D05B
:1012B00000F03CB87047000010B5014602A000F0F5
:1012C0007DF8012010BD0000534947525452454457
:1012D0003A2052656469726563743A2063616E27CF
:1012E00074206F70656E3A200000000010B5431C3A
:1012F00002E010F8011B71B18107FAD14FF0013201
:1013000002C88C1A8C4314EAC211F9D0C01A0A061A
:1013100003D0C01E10BDC01A10BD0A0401D0801E2B
:1013200010BD0902FCD0401E10BD0000014918206C
:10133000ABBEFEE72600020000210160C0E90110FB
:10134000704710207047034640688C46002818BF3D
:1013500088423CBF03464068F8D318681844884266
:1013600007D00CF1030020F00700001D411A521AAB
:101370000146081D0A60FFF7F2BC10B50146C268BD
:10138000900703D0900607D5886A0AE000F03EF87F
:1013900001210160881E10BD8B69486818440B69E3
:1013A000C01A91F848301BB191F84910401A10BD8D
:1013B0001103FCD50028FADD401E10BD70B50546AE
:1013C0000C460A2000E06D1C00F018F835B12878B2
:1013D0000028F8D102E0641C00F010F814B1207865
:1013E0000028F8D1BDE870400A2000F007B810B519
:1013F00000F010F8BDE81040FFF758BF08B5694687
:101400008DF800000320ABBE08BD00000048704707
:101410005402002010B5012805D0002103A0FFF7D9
:10142000CDFF012010BD09A1F8E700005349475244
:10143000544D454D3A204F7574206F6620686561A4
:1014400070206D656D6F7279000000003A2048656C
:101450006170206D656D6F727920636F7272757047
:10146000746564005FEA400C08BF91F0000F4FEA1A
:101470008C234FEAC12243EA51514FEA1C5018BF56
:1014800000F5F0404FEA300018BF41F000415FEA3C
:101490006C5C00F02980BCF1FF3F08BF40F0804049
:1014A0007047130C06BF12044FF0100C4FF0000CE5
:1014B000130E04BF12020CF1080C130F04BF12012B
:1014C0000CF1040C930F04BF92000CF1020CD30F2B
:1014D00004BF52000CF1010C11464FF00002A0F1C4
:1014E0001F00A0EB0C00704711F0004F08BF7047C1
:1014F00031F000413FF4D5AF0B0C06BF09044FF0AB
:10150000100C4FF0000C0B0E04BF09020CF1080C7C
:101510000B0F04BF09010CF1040C8B0F04BF8900F1
:101520000CF1020CCB0F04BF49000CF1010CCCF103
:101530002003A0EB0C0022FA03F302FA0CF241EABA
:10154000030100F10100704720F07F4C80EA0300A6
:1015500023F07F47ACEB070303F57C5300F000401A
:1015600003F1FF032DE980494FEA154B09B44FEA17
:10157000144325EA0B4E24EA03480FF2042606EB37
:10158000132749083E785FEA320203FB0667C7F576
:10159000000707FB06F64FEA54374FEAD64606F136
:1015A000020607FB066CCCF1005C4FEA1C472CEAF4
:1015B000074C07FB06F40CFB06F504EB15464FEA57
:1015C000961634BF00204FF000404FEAD13706FB9B
:1015D00007FC4FEA1C4C0CFB0BF7D21B03FB0CF770
:1015E00061EB07010CFB0EF7B0EB074072EB174203
:1015F0000CFB08F734BFA2EB0742B2EB074261EBEA
:1016000017414FEA0C444FEA910706FB07FC4FEAEB
:101610001C4C0CFB0BF7B0EBC74072EB573203FBD3
:101620000CF734BFA2EBC742B2EBC74261EB5731B4
:101630000CFB0EF7B0EBC70072EB57720CFB08F710
:1016400034BFA2EBC702B2EBC70261EB5771039F35
:101650004FEA816141EA921104EBCC044FEAD137A1
:101660004FEA826206FB07FC42EA90124FEA806072
:101670004FEA1C4C0CFB0BF7D21B03FB0CF761EB86
:1016800007010CFB0EF7B0EB074072EB17420CFBA7
:1016900008F734BFA2EB0742B2EB074261EB1741F8
:1016A0004FEA8C554FEA910704EB9C2406FB07FC9C
:1016B0004FEA1C4C0CFB0BF7B0EBC74072EB5732F8
:1016C00003FB0CF734BFA2EBC742B2EBC74261EB9E
:1016D00057310CFB0EF7B0EBC70072EB57720CFBE7
:1016E00008F734BFA2EBC702B2EBC70261EB577138
:1016F00015EB4C254FEA816141EA92114FEA826273
:101700004FEAD13742EA901206FB07FC44F100048D
:101710004FEA80604FEA1C4C0CFB0BF7D21B03FB1B
:101720000CF761EB07010CFB0EF7B0EB074072EB17
:1017300017420CFB08F734BFA2EB0742B2EB07429B
:1017400061EB174115EB1C154FEA813141EA9241DB
:101750004FEA823242EA90424FEA80304FEA0C76FA
:1017600044F1000448EA03434EEA0B484FF0000EF0
:10177000B2EB080C71EB030724BF624639464EEB0F
:101780000E0E4FF0000B0018524149414BEB0B0B72
:10179000B2EB080C71EB03077BF1000B24BF624630
:1017A00039464EEB0E0E4FF0000B001852414941E6
:1017B0004BEB0B0BB2EB080C71EB03077BF1000B4F
:1017C00024BF624639464EEB0E0E51EA020718BF9F
:1017D00046F0010616EB0E7655F1000254F10001B9
:1017E00003D5BDE88901BDE80088BDE88901BDE8F1
:1017F0000048B619524141EB0101A3F101037047C2
:1018000080807F7E7D7C7B7A79787776767574733D
:10181000727171706F6E6E6D6C6C6B6A6A696868FC
:10182000676666656464636362616160605F5F5E92
:101830005E5D5D5C5C5B5B5A5A5959585857575608
:10184000565555555454535352525251515050506D
:101850004F4F4F4E4E4D4D4D4C4C4C4B4B4B4A4ABF
:101860004A49494948484847474747464646454503
:10187000454444444443434343424242424141413C
:10188000002B9C4630D477002BD01CB54FEA37078D
:1018900003B44FF010004FF01001BAF1000F06D062
:1018A000BCF1000FDCBF40F0080040F008014FF031
:1018B00000000FBCBDE810400BF1010BBBF1010FA4
:1018C00008BF5FEA170722BF12F1010211F10101FF
:1018D0004FF0004143F1000300F0004043EA0000F4
:1018E0007047F9D35708D0E746EA064613F1400F90
:1018F0004FEA16461FDD13F1200FDFBF16430A46DD
:10190000002120335B42BED0C3F1200746EA0646E1
:1019100002FA07F74FEA164646EA0706C3F1200720
:1019200022FA03F201FA07F721FA03F14FF000035C
:1019300042EA0702A7E746EA020646EA06464FEAF7
:10194000164646EA0106BCBF46EA0646360C4FF08C
:1019500000034FF000024FF0000194E72DE9804CA6
:101960009A46934670B491E8380007C831EA400CB3
:1019700048BF34EA430C03D5FFF7E6FDFFF780FFCD
:10198000F0BCBDE8008C2DE9804C9A46934670B4BB
:1019900091E8380007C810F0804F08BF13F0804F5F
:1019A00003D100F005F8FFF76BFFF0BCBDE8008C39
:1019B00020F07F4780EA030023F07F4C07EB0C0305
:1019C000A3F57C5300F00040A3F1FE0392F0000F5A
:1019D00000F0B38095F0000F00F077802DE9014909
:1019E0004FEA11404FEA144621EA004800FB06FC8A
:1019F00024EA064708FB06F607FB08F800FB07F792
:101A000018EB06484CEB164C4FEA124B18EB074804
:101A10004FEA15464CEB174022EA0B4E0BFB06FC37
:101A200025EA06470EFB06F607FB0EFE0BFB07F743
:101A30001EEB064E4CEB164C4FF000061EEB074E0D
:101A40004CEB174B18EB0B0840F1000018EB0E0B9A
:101A500058EB000840F100008F1A4FF000013CBF26
:101A6000C943661B14BFB5EB040C00213CBFC9433E
:101A7000F61B4FEA17444EEA8E0E27EA04454FEA5A
:101A80001C4704FB07622CEA074C05FB07F70CFB1D
:101A900005F604FB0CFC16EB074642EB174216EB6F
:101AA0000C4642EB1C421BEB060658EB020241417E
:101AB00046EA9E0601D5BDE80189B619524141EBBF
:101AC0000101A3F10103BDE801894FEA14454FEA82
:101AD000114724EA054621EA074C05FB07F406FBFB
:101AE00007F70CFB06F105FB0CFC11EB074144EB7F
:101AF00017444FEA124711EB0C4144EB1C4422EA15
:101B0000074C05FB07F206FB07F70CFB06F605FB87
:101B10000CFC16EB074642EB174216EB0C4642EB69
:101B20001C456A1854F1000148BF7047B61952416C
:101B300041EB0101A3F10103704795F0000F37D08D
:101B40004FEA11424FEA144721EA024624EA074CC1
:101B500002FB07F106FB07F70CFB06F402FB0CFC8B
:101B600014EB074441EB17414FEA154714EB0C44C3
:101B700041EB1C4125EA074C02FB07F506FB07F782
:101B80000CFB06F602FB0CFC16EB074645EB174573
:101B900016EB0C4645EB1C42121951F1000148BFEF
:101BA0007047B619524141EB0101A3F1010370479F
:101BB0004FEA14454FEA114724EA054621EA074C4B
:101BC00005FB07F106FB07F70CFB06F24FF00006DA
:101BD00005FB0CFC12EB074241EB174112EB0C42E8
:101BE00051EB1C4148BF7047921841EB0101A3F132
:101BF0000103704770B5664D2DED028B69780129A0
:101C000001D180F00700634C9FED638A41F26906C1
:101C1000072879D2DFE800F0B99156791C043E001C
:101C200008215C4801F012F808215A4800F0A0FE93
:101C300095ED010A216820EE080ABCEEC00A10EEFC
:101C4000100A88630421534800F09CFF042116E029
:101C50000421504800F0FAFF04214E4800F088FEAD
:101C600095ED010A216820EE080ABCEEC00A10EECC
:101C7000100AC8630821474800F084FF082145483E
:101C800000F076FE206846630021424800F0DEFF47
:101C9000002173E000213F4800F0D8FF00213D48BB
:101CA00000F066FE95ED010A216820EE080ABCEE00
:101CB000C00A10EE100AC8630821364800F062FF1F
:101CC000082116E00821334800F0C0FF0821314800
:101CD00000F04EFE95ED010A216820EE080ABCEEE8
:101CE000C00A10EE100A486300212A4800F04AFF9B
:101CF0000021284800F03CFE206886630421254826
:101D000000F0A4FF042139E03FE00421214800F065
:101D10009DFF04211F4800F02BFE95ED010A21686C
:101D200020EE080ABCEEC00A10EE100A486300213B
:101D3000184800F027FF002116E00021154800F0A8
:101D400085FF0021134800F013FE95ED010A21687C
:101D500020EE080ABCEEC00A10EE100A88630421C7
:101D60000C4800F00FFF04210A4800F001FE206833
:101D7000C6630821074800F069FF0821BDEC028B0B
:101D80000448BDE8704000F093BDBDEC028B70BD0F
:101D9000280000201001002000408345FEE7704726
:101DA00072B6FEE710B586B0002413480094019483
:101DB00002940394016841F008010160006800F09A
:101DC0000800049001F0B8FA0D480C490160532155
:101DD0004160202181604FF6FF71C0E903140620A5
:101DE00003900F200094CDE901406946044800F0BB
:101DF00075FC06B010BD000040380240000C0040E9
:101E0000C800002070B50A4C0121204600F00AF9F4
:101E100045000221204600F005F928434500042131
:101E2000204600F0FFF8284300F0070070BD0000D6
:101E3000000002402DE9F84FDFF8BCA10022012587
:101E400003264FF00F090AF1040BAAF1040E00BF9C
:101E50000B6805FA02F42340A34270D10F7907F012
:101E60000307012F01D0022F16D187684FEA4208DD
:101E700006FA08FC27EA0C07D1F80CC00CFA08FC9B
:101E80004CEA070CC0F808C04768A7430C79C4F3B4
:101E9000001494403C4344600C79E443A4070AD006
:101EA000C4684FEA420C06FA0CF7BC438F6807FA85
:101EB0000CF72743C7600C7904F00304022C12D1FD
:101EC000D40800EB840CDCF820405707FF0E09FA19
:101ED00007F824EA0804D1F8108008FA07F848EA5D
:101EE0000408CCF8208004684FEA420C06FA0CF78C
:101EF000BC430F7907F0030707FA0CF72743076085
:101F00004C6814F4403F70D03C4C276847F480473D
:101F10002760246822F0030704F480440094384CBE
:101F200007EB040CDCF8084897074FEA177809FA22
:101F300008F7BC43334FB84202D1002724E054E0F5
:101F4000314FB84201D101271EE0304FB84201D1D4
:101F5000022719E02E4FB84201D1032714E02D4F7C
:101F6000B84201D104270FE02B4FB84201D1052719
:101F70000AE02A4FB84201D1062705E0284FB842AF
:101F800001D1072700E0082707FA08F72743CCF814
:101F90000878DAF800405746D1F804C09C435FEA5D
:101FA000CC2C00D51C433C60DBF800405F46D1F8E8
:101FB00004C09C435FEA8C2C00D51C433C60DEF8D7
:101FC00000407746D1F804C09C435FEA8C3C00D5C2
:101FD0001C433C60084F083F3C68D1F804C09C4358
:101FE0005FEACC3C00D51C433C60521C102AFFF435
:101FF0002FAFBDE8F88F0000083C01404438024094
:10200000003001400000024000040240000802408D
:10201000000C024000100240001402400018024070
:10202000001C02400069084000D0012070470000F9
:10203000014880687047000008000020024881685D
:102040000278114481607047080000200B4810B5E9
:10205000016841F400710160016841F48061016030
:10206000016841F480710160032000F06FF80F20D7
:1020700000F006F800F024F8002010BD003C0240FB
:1020800070B50D4D04464FF47A712878B1FBF0F02D
:102090000A490968B1FBF0F000F00AFB48B9102CBE
:1020A00007D200222146501E00F030F800206C605C
:1020B00070BD012070BD0000080000201400002049
:1020C0000A4808B5016841F480410160006800F4E5
:1020D000804000900548001F016841F08051016078
:1020E000006800F08050009008BD000044380240B5
:1020F000002809DB00F01F02012191404009800007
:1021000000F1E020C0F8001170470000F0B40E4B61
:102110001B680C46C3F30223C3F10705042D00D945
:102120000425191D072901D2002300E0DB1E01262A
:1021300006FA05F1491E214099409E40761E164040
:102140003143F0BC01F044B90CED00E0064900F069
:10215000070208684FF6FF03184040EA0220034ACE
:1021600010430860704700000CED00E00000FA0525
:102170002DE9F0470E46050065D0DFF81481D8F848
:102180000000F7B200F00700B04207D288F80070F4
:10219000D8F8000000F00700B04254D128683D4C48
:1021A000810712D5400703D5206840F4E050206035
:1021B0002878000703D5206840F46040206020683C
:1021C000A96820F0F000084320602878C0072DD0CF
:1021D000304968680839012812D0022813D0032832
:1021E00011D00968890700292DDA216821F003013F
:1021F00001432160FFF71CFF814641F2883A0EE05F
:1022000009688903EFE709688901ECE7FFF710FF28
:10221000A0EB0901514502D90320BDE8F0872068F1
:10222000696800F00C00B0EB810FEFD1D8F8001016
:10223000404601F00701B14207D90770006800F07D
:102240000700B04201D00120E7E72878400705D514
:102250002068E96820F4E0500843206028780007EF
:1022600006D52068296920F4604040EAC10020605A
:1022700000F038F82168084AC1F30311515CC840E6
:102280000649086006480068FFF7FAFE0020C4E728
:10229000003C024008380240943700081400002037
:1022A0000C0000200448054900680968044AC1F38D
:1022B0008221515CC8407047140000200838024059
:1022C000A43700080448054900680968044AC1F3B6
:1022D0004231515CC8407047140000200838024069
:1022E000A4370008154810B5006810F00C02144817
:1022F00013D04110042A0FD0082A0ED10F4C241FEE
:102300002268236802F03F025B0207D52068C0F311
:102310008810A0FB010106E0084610BD2168C1F34A
:102320008811A1FB00010023FDF7B2FF2168C1F372
:102330000141491C4900B0FBF1F010BD08380240D2
:102340000024F4002DE9F84F04006ED02078DFF867
:102350004C93C007A9F104054AD009F104000168B3
:10236000C1F38101012908D00068C0F3810002286F
:102370000AD1D9F80000400206D52868800337D575
:1023800060680028E1D033E06068B0F5803F10D08D
:10239000B0F5A02F286810D020F48030286028687D
:1023A00020F4802028606068A8B1FFF741FE06464F
:1023B0000DE0286840F48030F4E740F48020286085
:1023C000F7E700BFFFF734FE801B642873D8286846
:1023D0008003F7D50CE0FFF72BFE064605E000BFB3
:1023E000FFF726FE801B6428F0D828688003F7D406
:1023F0002078DFF8AC8280074FF0000A3ED5A7486E
:10240000001D016811F00C0F08D00068C0F38100B6
:1024100002280BD1D9F80000400207D428688007B1
:1024200016D5E068012800D112E033E1E068B8B1C8
:102430000120C8F80000FFF7FBFD064605E000BFDD
:10244000FFF7F6FD801B0228C0D828688007F7D563
:102450002868216920F0F80040EAC10028600DE0FA
:10246000C8F800A0FFF7E4FD064604E0FFF7E0FD32
:10247000801B02281FD828688007F7D4207800071F
:1024800022D5864F87486169703771B1012101609B
:10249000FFF7CEFD064604E0FFF7CAFD801B0228C9
:1024A00009D838688007F7D50EE0C0F800A0FFF71C
:1024B000BFFD064605E082E0FFF7BAFD801B02285B
:1024C0007DD838688007F7D42078400768D5DFF8D2
:1024D000CCB100270BF13C0BDBF80000C0000BD4A3
:1024E000DBF8001041F08051CBF80010DBF8000061
:1024F000012700F0805000906B4E3068C00510D46A
:10250000306840F480703060FFF792FD009005E085
:10251000FFF78EFD0099401A022850D83068C00598
:10252000F6D55E4EA0686C3601280FD005283068BD
:1025300010D020F001003060306820F004003060DE
:10254000A068B8B1FFF774FD00900FE0306840F06C
:102550000100F4E740F004003060F7E7FFF768FDA2
:102560000099411A41F28830814266D8306880076C
:10257000F4D50EE0FFF75CFD009007E0FFF758FD93
:102580000099411A41F28830814256D8306880075C
:10259000F4D42FB1DBF8001021F08051CBF80010FB
:1025A000A069C8B33D49091D0968C1F38101022929
:1025B0004AD00228504607D0C8F8600000E03CE04E
:1025C000FFF736FD04463BE04746C8F86000FFF7DA
:1025D0002FFD064605E000BFFFF72AFD801B0228FD
:1025E0002BD828688001F7D4D4E907010843A16AF1
:1025F0002E4A490802EB0141626A41EA821108430E
:1026000094F82C1040EA0161C9F8001001203866E6
:10261000FFF70EFD044606E03EE000BFFFF708FDB1
:10262000001B022809D828688001F7D534E000BFD4
:10263000FFF7FEFC001B022802D90320BDE8F88F3B
:1026400028688001F4D427E00128F7D0D9F80000E9
:10265000E26900F4800191421CD1226A00F03F013E
:10266000914217D147F6C071626A0140B1EB821FF7
:1026700010D1A26A4FF0FF3300F4403103EB520255
:10268000B1EB024F06D194F82C1000F07060B0EB63
:10269000016F01D00120D1E70020CFE704380240CC
:1026A00000004742800E4742007000400000FFFFDC
:1026B00010B5401EB0F1807F01D3012010BD4FF056
:1026C000E02460610F21601700F082FE0020A0610D
:1026D00007202061002010BD7047704770B588B09A
:1026E0000E46040004D094F83D00002518B107E020
:1026F000012008B070BD84F83C50204600F056F828
:10270000022084F83D00211D206800F05DFCB368C4
:1027100031680322206800F00BFD2068816921F0F8
:102720000C018161206881697268114381612068B0
:10273000416841F0800141602068816821F07001AA
:1027400081602068816841F0400181602068816873
:1027500021F0070181602068816841F004018160F7
:102760007020059504950695039502950090F068F4
:1027700001906946206800F0A5FC2068416821F0BE
:10278000700141602068416841F0500141600120C2
:1027900084F8460084F83E0084F83F0084F8420044
:1027A00084F8430084F83D000020A2E710B586B00D
:1027B000044614216846FDF776FE164920688842D3
:1027C00026D115480021026842F008020260006824
:1027D00000F00800059010481038026842F001022D
:1027E0000260006800F001000590072000900220C0
:1027F000CDE90101CDE9031069460848FFF71AFB4E
:10280000002211463220FFF781FC3220FFF770FCD6
:1028100006B010BD000C00404038024000000240ED
:1028200070B590F83C20012A32D0012480F83C4059
:10283000022280F83D2003685A689D6822F07006E5
:102840000A6832435A60134B02689A4214D0B2F1BC
:10285000804F11D0104B9A420ED0104B9A420BD0A1
:102860000F4B9A4208D00F4B9A4205D00E4B9A421A
:1028700002D00E4B9A4204D1496825F080031943D7
:10288000916080F83D40002180F83C10084670BD02
:10289000022070BD0000014000040040000800401C
:1028A000000C0040000401400040014000180040BE
:1028B00010B50446022249B104290ED0082913D0CC
:1028C00094F84500012816D0012010BD94F842006C
:1028D0000128F9D184F842200FE094F84300012840
:1028E000F2D184F8432008E094F844000128EBD1A9
:1028F00084F8442001E084F845200422206800F098
:10290000D4FB2068416C41F40041416411492068C6
:10291000884214D0B0F1804F11D00F4988420ED0B8
:102920000E4988420BD00E49884208D00D49884292
:1029300005D00D49884202D00C49884204D18168F3
:1029400001F00701062903D0016841F0010101608F
:10295000002010BD000001400004004000080040BD
:10296000000C0040000401400040014000180040FD
:1029700070B504460D460068002200F096FB206802
:10298000036A41F211110B4240F2444206D1036A3C
:10299000134203D1436C23F4004343642068036A69
:1029A0000B4206D1016A114203D1016821F00101F5
:1029B000016001203DB1042D08D0082D09D084F814
:1029C0004500002070BD84F84200FAE784F8430017
:1029D000F7E784F84400F4E770B50546FFF712FA0C
:1029E0000446FFF707F92868406B09498A681044D4
:1029F0008860C868401CC86006484A68005D90420C
:102A000001D1012000E0002008704C6070BD000082
:102A100018000020AC37000870B504460068016952
:102A20004FF00005C943890715D4C168C943890718
:102A300011D4E91E01610120207720688069800798
:102A4000204602D0FFF7C8FF04E000F098F82046C7
:102A500000F096F8257720680169C943490717D423
:102A6000C168C943490713D46FF004010161022012
:102A700020772068806910F4407F204602D0FFF75D
:102A8000ABFF04E000F07BF8204600F079F82577F2
:102A900020680169C943090716D4C168C9430907F9
:102AA00012D46FF008010161042020772068C0690A
:102AB0008007204602D0FFF78FFF04E000F05FF8A8
:102AC000204600F05DF8257720680169C943C906F2
:102AD00017D4C168C943C90613D46FF0100101614E
:102AE000082020772068C06910F4407F204602D07B
:102AF000FFF772FF04E000F042F8204600F040F8D3
:102B0000257720680169C943C90708D1C168C9434D
:102B1000C90704D1891E0161204600F0D5F820685C
:102B20000169C943090609D4C168C943090605D426
:102B30006FF0800101612046FFF7CEFD206801693A
:102B4000C943490609D4C168C943490605D46FF091
:102B500040010161204600F0B8F820680169C943CE
:102B600089060BD4C168C943890607D46FF02001D8
:102B700001612046BDE87040FFF7AFBD70BD7047F2
:102B80007047000010B50446022249B104290ED056
:102B9000082913D094F84100012816D0012010BD57
:102BA00094F83E000128F9D184F83E200FE094F813
:102BB0003F000128F2D184F83F2008E094F840005B
:102BC0000128EBD184F8402001E084F84120012263
:102BD000206800F05DFA16492068164A884201D044
:102BE000904203D1436C43F400434364206888421D
:102BF00013D0B0F1804F10D00F4988420DD00F494B
:102C000088420AD00E49884207D0904205D00D492B
:102C1000884202D00C49884204D1816801F0070142
:102C2000062903D0016841F001010160002010BDB8
:102C30000000014000040140000400400008004082
:102C4000000C0040004001400018004030B5044630
:102C50000D460068002200F01BFA194B41F21111D9
:102C600020688A10984202D0164B984209D1036A14
:102C70000B4206D1036A134203D1436C23F4004391
:102C800043642068036A0B4206D1016A114203D1F2
:102C9000016821F00101016001203DB1042D08D03F
:102CA000082D09D084F84100002030BD84F83E0092
:102CB000FAE784F83F00F7E784F84000F4E7000003
:102CC00000000140000401407047704770B50400E7
:102CD00004D094F83D00002510B106E0012070BD3D
:102CE00084F83C50204600F023F8242084F83D006E
:102CF0002068C16821F40051C160204600F058FAF4
:102D00002068016921F4904101612068416921F046
:102D10002A0141612068C16841F40051C160256405
:102D2000202084F83D0084F83E00002070BD0000A3
:102D300010B586B0044614216846FDF7B4FB14496B
:102D40002068884221D113480021026842F0100215
:102D50000260006800F0100005900E481438026808
:102D600042F001020260006800F0010005904FF49B
:102D7000C06000900220CDE90101032003900720EC
:102D8000049069460448FFF755F806B010BD0000EE
:102D90000010014044380240000002402DE9F84391
:102DA000044690F83D001F4616460D4620284CD19B
:102DB000C5B1BEB194F83C00012846D0012084F88A
:102DC0003C004FF00008C4F84080212084F83D000A
:102DD000FFF72EF9A6848146E684A068B0F5805FEF
:102DE00003D004E00120BDE8F883206928B12E4615
:102DF0005FF0000584F83C800EE00026FAE78021B1
:102E0000204600F05BFAA0B9AEB116F8010B2168BC
:102E10004860E08C401EE084E08C4B464FF000029E
:102E200000970028EBD14FF04001204600F046FA11
:102E300030B10320D7E735F8020BC0F30800E6E70E
:102E4000202084F83D000020CDE70220CBE7FEE7FC
:102E5000094808B5016841F080010160016801F08E
:102E600080010091016841F001010160006800F0FB
:102E70000100009008BD00003038024010B586B057
:102E800000241248009401940294039404940E497F
:102E90000594C0E90014611EC0E90241046169465D
:102EA0008461FFF71BFC08B1FEF77AFF5020CDE9E3
:102EB000040404A90548FFF7B3FC002801D0FEF77D
:102EC0006FFF06B010BD0000000C00403C00002069
:102ED0000C4810B50A4901604FF4E131416000210E
:102EE00081600C22C160C0E904128161C161FFF7F9
:102EF000EDFE002803D0BDE81040FEF751BF10BD25
:102F00000010014084000020FEE7FEE77047704794
:102F1000FFF794B830B593B030216846FDF7C3FA97
:102F200014210CA8FDF7BFFA1E480025016841F0E6
:102F300080510160006800F0805011901A480168CB
:102F400041F4804101600068022400F48040119047
:102F500001200090000401908001CDE90640082086
:102F600008904FF4A870CDE9090404200B9068463E
:102F7000FFF7E8F908B172B6FEE70CA90F2081E867
:102F800031004FF4A0500F904FF480501090052165
:102F90000CA8FFF7EDF8002801D072B6FEE713B0D9
:102FA00030BD000040380240007000400248016817
:102FB00041F470010160704788ED00E00148FFF7BF
:102FC0002BBD00003C000020F0B50268254C264DCA
:102FD000264E274F274B4FF0804CA04209D060452A
:102FE00007D0A84205D0B04203D0B84201D09842E1
:102FF00004D122F0700E4A6842EA0E02A0421BD0B1
:10300000604519D0A84217D0B04215D0B84213D0AD
:10301000984211D0184DA8420ED0184DA8420BD09E
:10302000174DA84208D0174DA84205D0164DA8420A
:1030300002D0164DA84203D122F44075CA682A4333
:103040004D6922F080022A4302608A68C2620A68DF
:103050008262A04201D0984201D109690163012135
:103060004161F0BD00000140000400400008004044
:10307000000C0040000401400040014000440140B9
:103080000048014000180040001C004000200040A3
:1030900010B501F01F030121046A99408C430462BA
:1030A000016A9A401143016210BD10B501F01F037F
:1030B0000421046A99408C430462016A9A401143D6
:1030C000016210BDF0B5026A22F010020262026ACB
:1030D000436884690D6824F4E64444EA05248D6855
:1030E00022F0200242EA05120F4D104EA84201D0F4
:1030F000B04206D1CF6822F0800242EA071222F0E5
:103100004002A84201D0B04207D14D6923F4406388
:1031100043EA85038D6943EA850343608461496816
:1031200081630262F0BD0000000001400004014024
:1031300070B5046A24F0010404628469056A154EBE
:10314000B04214D0B0F1804F11D0134EB0420ED027
:10315000124EB0420BD0124EB04208D0114EB042C7
:1031600005D0114EB04202D0104EB04203D124F02F
:103170000304144301E044F001041A0724F0F004AE
:1031800044EA126225F00A0301F00A011943826140
:10319000016270BD000001400004004000080040D2
:1031A000000C0040000401400040014000180040B5
:1031B00070B5044600680169E26821F4405111438A
:1031C00001612169A068E26908436169114308430C
:1031D0002168CA6849F20C639A430243CA602068B6
:1031E0004169A26921F4407111434161314920686C
:1031F000884202D03049884202D1FFF763F801E0EB
:10320000FFF750F8E2690023192164253226B2F550
:10321000004F626828D0A0FB0101930F9200FDF7D8
:1032200037F80146B0FBF5F06FF01802504301EBA0
:10323000800006EB0010B0FBF5F000F0F002B1FBEF
:10324000F5F002EB0012B1FBF5F06FF018035843F4
:1032500001EB800006EB0010B0FBF5F000F00F0072
:1032600021681044886070BDA0FB010192185B4189
:10327000FDF70EF80146B0FBF5F00201B1FBF5F0E9
:103280006FF01803584301EB800006EBC000B0FB61
:10329000F5F000F0F80002EB4002B1FBF5F0584306
:1032A00001EB800006EBC000B0FBF5F000F007007A
:1032B000D6E7000000100140001401402DE9F04164
:1032C000984617460E460446069D27E0681C25D002
:1032D0002DB1FEF7ADFEA0EB0800A8421ED9206874
:1032E0000C3050E8001F21F4D07140E80012002A91
:1032F000F5D12068143050E8001F21F0010140E8AA
:103300000012002AF5D1202084F83D0084F83E0008
:10331000002084F83C000320BDE8F08120680068AC
:1033200036EA000004D00020B842CFD00020F3E7F6
:103330000120F9E7FEE7000030B587B014216846A8
:10334000FDF7B1F81448016841F0800101600068A0
:10335000022400F0800005900120CDE900040F4D0B
:1033600002900394694604942846FEF763FD69467B
:1033700028460094FEF75EFD04200090694628462A
:10338000FEF758FD012211463220FEF7BFFE322023
:10339000FEF7AEFE07B030BD3038024000000240FC
:1033A00003B401984100009850EAC12018BF0420DE
:1033B0004A0D18BF40F0010040F2FF72B2EB515FBE
:1033C00008BF40F00200012808BF052002B0704786
:1033D0000907090E002804DB00F1E02080F8001442
:1033E000704700F00F0000F1E02080F8141D7047D6
:1033F00030380A2801D2012070470020704782B07F
:10340000CDE9000121F0004001909DED000B02B0DC
:1034100051EC100B7047000013B54FF6FF730122FB
:1034200069460248FFF7BAFC00981CBD84000020E2
:103430002DED048B84B0DFED499AFEF707FEFEF711
:10344000B1FCFFF767FDFFF703FDFFF717FDFFF77F
:103450003FFD43494FF0000942A081F80090FCF77E
:103460008FFF4C48FCF78CFF4BA0FCF789FF56A060
:10347000FCF786FF59A0FCF783FF5DA0FCF780FFF7
:1034800060A0FCF77DFF63A0FCF77AFF65A0FCF766
:1034900077FF69484FF4487ADFF8A0B18046C0F85A
:1034A00004A000BF98F800000028FBD06448016821
:1034B000E9B3DBF800100268B1FBF2F100EE101A7C
:1034C000B8EE400ADFED5F0A80EE808ACBF800900C
:1034D000C0F800905C480078002818EE100A36D03A
:1034E00000F0E0F841EC100BFFF789FFD0F100008D
:1034F00000EE100AF8EEC08AB3EE080A88EE809A51
:103500009FED520A29EE000A10EE100A00F0CAF8E8
:1035100006460F4619EE100A00F0C4F804460D46A0
:1035200018EE900A00F0BEF841EC100B00E00BE042
:103530008DE8F00053EC102B45A0FCF721FF88F834
:103540000090C8F804A0ADE7B0EE698ABEE700F0CD
:10355000A9F841EC100BFFF752FFC9E7000000008B
:1035600029000020203C2D20D6B1C1F7CEDECBA211
:10357000B5E7BBFABBF9B4A1C7FDB6AF5F48414C94
:103580004CB4ABB8D0C6F7B2E2CBD9202D3E200A5E
:103590000000000054380008BCC6CAFDD6B52CB8DF
:1035A000F9BEDDD5E2D0A9BCC6CAFDD6B5BECDBF39
:1035B000C9D2D4B2E2C1BFB3F6B5E7BBFAD7AACB42
:1035C000D9202D3E200A0000D5FDB8BAB4FAB1EDDD
:1035D000B7BDCFF2202D3E200A000000B0B4BCFCE5
:1035E0004B455931C6F4B6AFB5E7BBFA0A00000047
:1035F0004B455932B5E7BBFAB8FCBBBBB7BDCFF200
:103600000A0000004B455933B5E7BBFABCD3CBD910
:103610000A0000004B455934B5E7BBFABCF5CBD9DD
:103620000A0000004B455935B5E7BBFAC9B2B3B53E
:10363000CDA3D6B90A000000000000202000002021
:10364000240000200024744918000020000070426B
:10365000252E336620487A2C20252E3266205250A3
:10366000532C20252E326652504D0A0010B50029E9
:103670000AD00878002807D005487844FDF766FC92
:10368000002801D0002010BD0248784410BD000081
:10369000420200003A0200000808A0F500114FEABB
:1036A0003101704743004FEAD30C4FEA3C0C4340D2
:1036B0001FBF40070CF1605113F0FE4F70471CF024
:1036C000006F03D100200CF0004170470CF0004364
:1036D00043EA507010B540EACC0000F00EF800BF8D
:1036E000000000924FEA0001FFF7D6BF4FF0004103
:1036F0004FF00000A1F5002170470EF1020E2EF0F0
:10370000030E5EF8044B244204D44FEA4102B2F1A6
:103710007F4F11D84FEA4003B3F17F4F0CD80ED141
:103720004FEAD07CB2F17F4F0CEB4C0C0CF1020C49
:1037300008BF4CEBD17C04E04FF0080C01E04FEAED
:10374000D17C0CEB4C0324FA03F404F00704B4F12D
:10375000040C06D20EEB840CBDE810404CF0010CBA
:103760006047DFE80CF0070802024FF00040A0F5C8
:10377000800010BD0846420018BFD2F1807288BF99
:1037800000F0004010BD4FF04070E1EE100A7047AD
:10379000FCF78CBF000000000000000001020304E1
:1037A00006070809000000000102030400050301E8
:1037B0000604020002400000000000A0000000001B
:1037C00005400000000000C8000000000C400000A0
:1037D0000000409C00000000194000000020BCBE1A
:1037E0000000000034400000BFC91B8E0000000430
:1037F000B5400000504BCFD06607E2CF010000007B
:103800006C4100003E8251AADFEEA73401000000A7
:10381000D9420000DCB5A0E23A301F97FFFFFFFF5E
:10382000B4450000FD25A0C8E9A3C14FFFFFFFFF7D
:10383000FF3F00000000008000000000FF3F00008C
:1038400000000080000000003A7474003A747400B4
:103850003A747400203C2D20B6A8CAB1C6F7B5C48E
:10386000BBF4B6FBB4ABB8D0C6F7BDD3BFDAB9A6CC
:10387000C4DC2CD4DA434831B5C4B1C8BDCFC6F7D7
:10388000C0EFC3E6B1A3B4E6D3D0C1BDB4CEB1DFBF
:10389000D1D8D6AEBCE4B5C40A000000D8380008C0
:1038A000000000203C000000C4010008143900089A
:1038B0003C0000207C080000E00100081C00000023
:1038C00043000000F8FFFFFF0C0000000E000000A6
:1038D0000F0000002E0000000000000000000000AB
:1038E0000100000010000000000000000024F400AF
:1038F00000000000000000000000000000000000C8
:10390000010100000000803E0000000000000000F7
:0439100000000000B3
:040000050800018965
:00000001FF
