:020000040800F2
:1000000030060020A101000803180008611700084D
:10001000011800086F070008411C000800000000DC
:1000200000000000000000000000000007180008A9
:1000300071070008000000000518000809180008F2
:10004000BB010008BB010008BB010008BB010008A0
:10005000BB010008BB010008BB010008BB01000890
:10006000BB010008BB010008BB010008BB01000880
:10007000BB010008BB010008BB010008BB01000870
:10008000BB010008BB010008BB010008BB01000860
:10009000BB010008BB010008BB010008BB01000850
:1000A000BB010008B5180008BB010008BB0100082F
:1000B000BB010008BB010008BB010008BB01000830
:1000C000BB010008BB010008BB010008BB01000820
:1000D000BB010008BB010008B51B0008BB010008FC
:1000E000BB010008BB010008BB010008BB01000800
:1000F000BB010008BB010008BB010008BB010008F0
:10010000BB010008BB010008BB010008BB010008DF
:10011000BB010008BB010008BB010008BB010008CF
:10012000BB010008BB010008BB010008BB010008BF
:10013000BB010008BB010008BB010008BB010008AF
:10014000BB010008BB010008BB010008BB0100089F
:10015000BB010008BB010008BB010008BB0100088F
:10016000BB010008BB010008BB010008BB0100087F
:10017000BB010008BB010008BB0100080000000033
:10018000BB010008BB010008DFF810D000F06EFAD8
:10019000004800479D250008AFF30080300600208E
:1001A0000648804706480047FEE7FEE7FEE7FEE711
:1001B000FEE7FEE7FEE7FEE7FEE7FEE7A51800081C
:1001C000890100082DE9F05F0546002092469B4614
:1001D00088460646814640241BE02846414647465D
:1001E000224600F07BF853465A46C01A914110D37C
:1001F00011461846224600F062F82D1A67EB0108F6
:100200004F4622460120002100F059F817EB000963
:100210004E41201EA4F10104DFDC484631462A4647
:100220004346BDE8F09F40EA01039B0703D009E085
:1002300008C9121F08C0042AFAD203E011F8013BD2
:1002400000F8013B521EF9D27047D2B201E000F82B
:10025000012B491EFBD270470022F6E710B513466A
:100260000A4604461946FFF7F0FF204610BD30B598
:1002700005462A460B4612F8010B13F8014B08B14C
:10028000A042F8D01CB1002802D06D1CF1E728462E
:1002900030BD30B50B46014600202022012409E084
:1002A00021FA02F59D4205D303FA02F5491B04FA2F
:1002B00002F52844151EA2F10102F1DC30BD202A0E
:1002C00004DB203A00FA02F1002070479140C2F1AD
:1002D000200320FA03F3194390407047202A04DBDF
:1002E000203A21FA02F00021704721FA02F3D040AF
:1002F000C2F1200291400843194670472DE9FE4F94
:10030000804681EA0300C00F0C46009021F00041B6
:1003100023F00045B8EB0200A94105D24046214632
:1003200090461C460B46024623F00040104347D03F
:10033000270DC7F30A00C3F30A510290401A019037
:1003400040286BDAC3F3130040F4801B00989246F8
:1003500020B10023D2EB030A63EB0B0B0198594643
:10036000C0F140025046FFF7AAFF06460D46504630
:100370005946019A00F08CF910EB08006141002405
:1003800087EA115284EAE7731A4340D0009A62B3B5
:10039000019A012A4FEA075215DC001B61EB0201AA
:1003A0004FF0004202EA0752CDE90042001C41F53D
:1003B000801132462B4600F08CF903B0BDE8F08F77
:1003C00040462146F9E7001B61EB0201001C41F5A4
:1003D000801300185B412018A2F5001747EB0301BA
:1003E00040EAD570B6196D4111E06D084FEA360646
:1003F00045EAC0754FEA0752001B61EB0201001C81
:1004000041F5801149084FEA300000195141324648
:100410002B4603B0BDE8F04F00F04CB90098012224
:1004200040000023D0EB020263EBE073009821460A
:100430004FEAE074B8EB000061EB0401E9E783F0F8
:1004400000435BE781F0004158E72DE9FE4F81EA68
:10045000030404F0004421F0004100944FF0000B2D
:1004600023F0004350EA01045ED052EA03045BD05B
:10047000C3F30A54C1F30A552C44A4F2F334019493
:10048000A0FB0254C1F3130141F48011C3F3130321
:1004900043F4801301FB024400FB034E840A970AD5
:1004A00044EA815447EA8357A4FB076802958D0A02
:1004B00005FB07854FEA932C04FB0C542705029D8E
:1004C0004FEA065847EA1637B5EB08056EEB070CFE
:1004D000870E920E47EA811742EA8312A7FB0201B8
:1004E000B6EB0B0164EB00042B0D43EA0C335E18F2
:1004F00044EB1C50DA465146E7FB0201C5F31304F6
:100500004FEA0B3343EA14534FEA0432019C43EAA7
:100510000603A4F10C040294009CCDE900B400F0A1
:10052000D8F803B0BDE8F08F00200146F9E72DE9C7
:10053000F04D81EA030404F0004B21F0004514461D
:100540004FF0000A23F0004150EA050220D054EA9F
:1005500001021DD0C5F30A570246C5F31303C1F3C8
:100560001300C1F30A5640F4801543F48013A7EB3F
:100570000608101BD64608F2FD3873EB050002D3BF
:1005800008F1010801E092185B41B8F1000F03DAAD
:1005900000200146BDE8F08D00204FF48011064692
:1005A00084460EE0171B73EB050705D3121B63EBA4
:1005B000050306434CEA010C49084FEA3000921843
:1005C0005B4150EA0107EDD152EA030012D082EA02
:1005D000040083EA0501084305D0101BAB4106D295
:1005E0000122002306E000224FF0004302E06FF0FA
:1005F000010253101AEB06004CEB085110EB0A00F5
:1006000041EB0B01BDE8F04D00F054B8C1F30A52C4
:10061000C1F3130140F2FF3341F480119A4202DA30
:1006200000200146704740F233439A42A2F233421F
:1006300002DC5242FFF752BEFFF741BE30B5041E46
:1006400071F1000404DB4FF00044404264EB01010F
:10065000141E73F1000405DB1C464FF000435242A8
:1006600063EB0403994208BF904230BD064C074D2E
:1006700006E0E06840F0010394E807009847103472
:10068000AC42F6D3FFF784FD30280008502800085C
:10069000202A06DBCB17203A41FA02F043EAE07346
:1006A00006E041FA02F3D040C2F120029140084333
:1006B0001946704710B5141E73F1000408DA401C87
:1006C00041F1000192185B411A4301D120F0010071
:1006D00010BD2DE9F04D92469B4611B1B1FA81F261
:1006E00002E0B0FA80F220329046FFF7E8FD0446BF
:1006F0000F4640EA0A0041EA0B0153465A460843B6
:1007000013D0114653EA010019D0C8F140025046F7
:10071000FFF7E4FD05460E46504659464246FFF7B0
:10072000CEFD084305D0012004E020463946BDE84F
:10073000F08D0020054346EAE0762C4337430A98C3
:100740006305E40AA0EB08000022FD0A44EA4754CE
:100750000A3002D500200146E9E701051019694178
:10076000DDE9084500196941BDE8F04DA2E7FEE763
:10077000704772B6FEE72DE9F0410446876D00F040
:100780005FF9064694F835000025022806D080203F
:10079000606584F834500120BDE8F081206801686C
:1007A00021F0160101602068416921F0800141615A
:1007B000206C08B9A06C20B12068016821F0080104
:1007C00001602068016821F0010101600CE000F087
:1007D00037F9801B052807D920206065032084F89D
:1007E000350084F83450D7E720680068C007EED1A0
:1007F00094F85C103F208840B860012084F83500F0
:1008000084F834500020C7E790F83510022903D04F
:100810008021416501207047052180F8351000686E
:10082000016821F0010101600020704770B50446A5
:1008300000F006F90546601C02D004480078044424
:1008400000F0FEF8401BA042FAD370BD0400002067
:100850002DE9F84FDFF8BCA10022012503264FF057
:100860000F090AF1040BAAF1040E00BF0B6805FA88
:1008700002F42340A34270D10F7907F00307012F40
:1008800001D0022F16D187684FEA420806FA08FC09
:1008900027EA0C07D1F80CC00CFA08FC4CEA070C4C
:1008A000C0F808C04768A7430C79C4F3001494400B
:1008B0003C4344600C79E443A4070AD0C4684FEA7F
:1008C000420C06FA0CF7BC438F6807FA0CF7274373
:1008D000C7600C7904F00304022C12D1D40800EB99
:1008E000840CDCF820405707FF0E09FA07F824EAC9
:1008F0000804D1F8108008FA07F848EA0408CCF890
:10090000208004684FEA420C06FA0CF7BC430F79CA
:1009100007F0030707FA0CF7274307604C6814F445
:10092000403F70D03C4C276847F4804727602468DC
:1009300022F0030704F480440094384C07EB040CC5
:10094000DCF8084897074FEA177809FA08F7BC431C
:10095000334FB84202D1002724E054E0314FB8426F
:1009600001D101271EE0304FB84201D1022719E022
:100970002E4FB84201D1032714E02D4FB84201D1C8
:1009800004270FE02B4FB84201D105270AE02A4F78
:10099000B84201D1062705E0284FB84201D1072708
:1009A00000E0082707FA08F72743CCF80878DAF8B8
:1009B00000405746D1F804C09C435FEACC2C00D5D8
:1009C0001C433C60DBF800405F46D1F804C09C4308
:1009D0005FEA8C2C00D51C433C60DEF80040774673
:1009E000D1F804C09C435FEA8C3C00D51C433C60BA
:1009F000084F083F3C68D1F804C09C435FEACC3CF8
:100A000000D51C433C60521C102AFFF42FAFBDE8F8
:100A1000F88F0000083C014044380240003001409B
:100A2000000002400004024000080240000C0240A6
:100A3000001002400014024000180240001C024056
:100A40000148806870470000040000200248816867
:100A50000278114481607047040000200B4810B5F3
:100A6000016841F400710160016841F48061016036
:100A7000016841F480710160032000F099F80F20B3
:100A800000F006F800F04AF8002010BD003C0240DB
:100A900030B505461C4887B00024016841F00101CB
:100AA0000160006806A900F00100009001A800F0B4
:100AB0002BF900F059F915494000B0FBF1F1154848
:100AC000134A491E026040F2E732C0E90324C0E93C
:100AD0000114846100F040FB040012D10D4800F0C5
:100AE00069FB04000DD1192000F034F8102D07D255
:100AF00000222946192000F03BF80748056000E075
:100B0000012407B0204630BD4438024040420F0067
:100B100000000140E4010020080000200C4882B0E1
:100B2000016841F480410160006800F48040009059
:100B30000748001F016841F08051016000680022F1
:100B400000F0805000900F21901E02B000F010B80D
:100B500044380240002809DB00F01F0201219140C7
:100B60004009800000F1E020C0F80011704700004B
:100B7000F0B40E4B1B680C46C3F30223C3F1070508
:100B8000042D00D90425191D072901D2002300E0F6
:100B9000DB1E012606FA05F1491E214099409E40C0
:100BA000761E16403143F0BC01F05CB80CED00E05D
:100BB000064900F0070208684FF6FF03184040EAB4
:100BC0000220034A10430860704700000CED00E06B
:100BD0000000FA052DE9F0470E46050065D0DFF864
:100BE0001481D8F80000F7B200F00700B04207D235
:100BF00088F80070D8F8000000F00700B04254D127
:100C000028683D4C810712D5400703D5206840F481
:100C1000E05020602878000703D5206840F4604049
:100C200020602068A96820F0F00008432060287840
:100C3000C0072DD0304968680839012812D0022831
:100C400013D0032811D00968890700292DDA2168FB
:100C500021F0030101432160FFF7F2FE814641F2DA
:100C6000883A0EE009688903EFE709688901ECE733
:100C7000FFF7E6FEA0EB0901514502D90320BDE8CC
:100C8000F0872068696800F00C00B0EB810FEFD1AD
:100C9000D8F80010404601F00701B14207D90770AB
:100CA000006800F00700B04201D00120E7E7287893
:100CB000400705D52068E96820F4E050084320602B
:100CC0002878000706D52068296920F4604040EAAA
:100CD000C100206000F058F82168084AC1F30311F0
:100CE000515CC8400649086006480068FFF7D0FE1E
:100CF0000020C4E7003C02400838024018280008E1
:100D000010000020080000200F2202600C4A136827
:100D100003F003034360136803F0F0038360136878
:100D200003F4E053C36012684FF4E05303EAD202C5
:100D300002610448006800F0070008607047000086
:100D400008380240003C0240044805490068096830
:100D5000044AC1F38221515CC84070471000002052
:100D60000838024028280008044805490068096836
:100D7000044AC1F34231515CC84070471000002062
:100D80000838024028280008154810B5006810F0FF
:100D90000C02144813D04110042A0FD0082A0ED197
:100DA0000F4C241F2268236802F03F025B0207D524
:100DB0002068C0F38810A0FB010106E0084610BDC2
:100DC0002168C1F38811A1FB00010023FFF7FAF9A4
:100DD0002168C1F30141491C4900B0FBF1F010BD8D
:100DE000083802400024F4002DE9F84F04006ED0CA
:100DF0002078DFF84C93C007A9F104054AD009F127
:100E000004000168C1F38101012908D00068C0F322
:100E1000810002280AD1D9F80000400206D52868CE
:100E2000800337D560680028E1D033E06068B0F512
:100E3000803F10D0B0F5A02F286810D020F480306B
:100E40002860286820F4802028606068A8B1FFF737
:100E5000F7FD06460DE0286840F48030F4E740F4E2
:100E600080202860F7E700BFFFF7EAFD801B6428B9
:100E700073D828688003F7D50CE0FFF7E1FD06463C
:100E800005E000BFFFF7DCFD801B6428F0D8286870
:100E90008003F7D42078DFF8AC8280074FF0000A97
:100EA0003ED5A748001D016811F00C0F08D000685E
:100EB000C0F3810002280BD1D9F80000400207D40A
:100EC0002868800716D5E068012800D112E033E1D8
:100ED000E068B8B10120C8F80000FFF7B1FD064690
:100EE00005E000BFFFF7ACFD801B0228C0D82868D2
:100EF0008007F7D52868216920F0F80040EAC10092
:100F000028600DE0C8F800A0FFF79AFD064604E04F
:100F1000FFF796FD801B02281FD828688007F7D4AA
:100F20002078000722D5864F87486169703771B1F4
:100F300001210160FFF784FD064604E0FFF780FD14
:100F4000801B022809D838688007F7D50EE0C0F862
:100F500000A0FFF775FD064605E082E0FFF770FD93
:100F6000801B02287DD838688007F7D42078400796
:100F700068D5DFF8CCB100270BF13C0BDBF80000A3
:100F8000C0000BD4DBF8001041F08051CBF800100A
:100F9000DBF80000012700F0805000906B4E3068B5
:100FA000C00510D4306840F480703060FFF748FD11
:100FB000009005E0FFF744FD0099401A022850D840
:100FC0003068C005F6D55E4EA0686C3601280FD09B
:100FD0000528306810D020F001003060306820F023
:100FE00004003060A068B8B1FFF72AFD00900FE060
:100FF000306840F00100F4E740F004003060F7E7AB
:10100000FFF71EFD0099411A41F28830814266D8EF
:1010100030688007F4D50EE0FFF712FD009007E07E
:10102000FFF70EFD0099411A41F28830814256D8EF
:1010300030688007F4D42FB1DBF8001021F0805124
:10104000CBF80010A069C8B33D49091D0968C1F378
:10105000810102294AD00228504607D0C8F8600012
:1010600000E03CE0FFF7ECFC04463BE04746C8F8F4
:101070006000FFF7E5FC064605E000BFFFF7E0FC77
:10108000801B02282BD828688001F7D4D4E90701F7
:101090000843A16A2E4A490802EB0141626A41EA0B
:1010A0008211084394F82C1040EA0161C9F800103D
:1010B00001203866FFF7C4FC044606E03EE000BFAE
:1010C000FFF7BEFC001B022809D828688001F7D56D
:1010D00034E000BFFFF7B4FC001B022802D9032054
:1010E000BDE8F88F28688001F4D427E00128F7D004
:1010F000D9F80000E26900F4800191421CD1226A13
:1011000000F03F01914217D147F6C071626A014079
:10111000B1EB821F10D1A26A4FF0FF3300F44031CF
:1011200003EB5202B1EB024F06D194F82C1000F001
:101130007060B0EB016F01D00120D1E70020CFE754
:101140000438024000004742800E474200700040D1
:101150000000FFFF7047704710B5040003D094F8FB
:101160003D0010B107E0012010BD002084F83C00D4
:10117000204600F01EF8022084F83D00211D206862
:1011800000F09EFB012084F8460084F83E0084F8BD
:101190003F0084F8400084F8410084F8420084F85D
:1011A000430084F8440084F8450084F83D000020A2
:1011B00010BD704790F83D10012901D00120704703
:1011C000022180F83D100168CA6842F00102CA603D
:1011D00000681149884214D0B0F1804F11D00F49F6
:1011E00088420ED00E4988420BD00E49884208D062
:1011F0000D49884205D00D49884202D00C498842E9
:1012000004D1816801F00701062903D0016841F08B
:10121000010101600020704700000140000400400F
:1012200000080040000C0040000401400040014064
:1012300000180040704770B50446006801694FF01F
:101240000005C943890715D4C168C943890711D46A
:10125000E91E01610120207720688069800720460F
:1012600002D0FFF7E7FF04E000F098F8204600F016
:1012700096F8257720680169C943490717D4C168E2
:10128000C943490713D46FF004010161022020779C
:101290002068806910F4407F204602D0FFF7CAFF23
:1012A00004E000F07BF8204600F079F8257720680C
:1012B0000169C943090716D4C168C943090712D493
:1012C0006FF008010161042020772068C069800761
:1012D000204602D0FFF7AEFF04E000F05FF82046A2
:1012E00000F05DF8257720680169C943C90617D465
:1012F000C168C943C90613D46FF010010161082009
:1013000020772068C06910F4407F204602D0FFF7A4
:1013100091FF04E000F042F8204600F040F8257705
:1013200020680169C943C90708D1C168C943C90711
:1013300004D1891E0161204600F032F8206801695D
:10134000C943090609D4C168C943090605D46FF029
:10135000800101612046FFF7FDFE20680169C94355
:10136000490609D4C168C943490605D46FF0400154
:101370000161204600F01EF820680169C943890612
:101380000BD4C168C943890607D46FF020010161FD
:101390002046BDE87040FFF7DEBE70BD7047704765
:1013A00000680349884201D1FFF750BB7047000035
:1013B000000001407047704770470000F8B50168B1
:1013C00004460868CA684B6910F00F0F4FF000051B
:1013D00059D003F0010602F49077374365D0C10776
:1013E00005D0D10503D5216C41F0010121644107ED
:1013F00005D5D90703D0216C41F002012164810792
:1014000005D5D90703D0216C41F0040121640107FF
:1014100007D502F02001314303D0216C41F00801CF
:101420002164216C00293AD0800604D5900602D5AB
:10143000204600F0D8FA20684069216CC0F3801083
:10144000090700D460B3204600F0A6FA206840697E
:10145000400621D52068143050E8001F21F04001DB
:1014600040E80012002AF5D1A06BA8B16C490165D3
:10147000A06BFFF7C9F9002811D0A06B016D01B076
:10148000BDE8F040084783060FD593060DD52046EA
:10149000BDE8F84000F0A7BA2046FFF78DFFF8BD81
:1014A0002046FFF789FF2564F8BD266B2023012E17
:1014B00079D1C60677D5D60675D5086848680090F4
:1014C0004869400640D5A16B086840680004000CDC
:1014D000EAD0A28D8242E7D9E085C869B0F5807F65
:1014E0002DD020680C3050E8001F21F4807140E8B6
:1014F0000012002AF5D12068143050E8001F21F0B6
:10150000010140E80012002AF5D12068143050E8AB
:10151000001F21F0400140E80012002AF5D184F8B4
:101520003E30256320680C3050E8001F21F0100188
:1015300040E80012002AF5D1A06BFFF71CF9A08D3E
:10154000E18D401A81B229E0A08DE18D401A81B26F
:10155000E08D0028A8D00029A6D020680C3050E8E3
:10156000002F22F4907240E80026002EF5D120686A
:10157000143050E8002F22F0010240E80026002E2F
:10158000F5D184F83E30256320680C3050E8002FF8
:1015900022F0100240E80023002BF5D12046FFF78F
:1015A0000AFFF8BDFFE705062BD5150629D594F8E7
:1015B0003D002128F5D1A068B0F5805F01D12069F8
:1015C000B0B1206A411C2162216800784860E08C3B
:1015D000401E0004000CE084E3D12068C16821F0C3
:1015E0008001C1602068C16841F04001C160D8E756
:1015F000206A0088C0F308004860206A801C2062CE
:10160000E5E74006CDD55006CBD5CA68204622F086
:101610004002CA6084F83D3000F0A1F8C1E7000044
:101620008919000870B5040004D094F83D00002525
:1016300010B106E0012070BD84F83C50204600F057
:1016400023F8242084F83D002068C16821F400516B
:10165000C160204600F028FA2068016921F4904119
:1016600001612068416921F02A0141612068C16857
:1016700041F40051C1602564202084F83D0084F8C5
:101680003E00002070BD0000F0B587B00446142174
:101690006846FEF7E1FDDFF8B4C0206800222C495F
:1016A0000223032507272B4E60451DD128481430FF
:1016B000046844F010040460006800F01000059015
:1016C000086840F001000860086802AC00F0010002
:1016D00005906802CDE9000384E8A400694630461D
:1016E000FFF7B6F807B0F0BDDFF86CC06045F9D180
:1016F00017481030D0F800C04CF4003CC0F800C0CF
:10170000006800F400300590086840F001000860AF
:1017100008680DF1080C00F0010005900C20CDE9DF
:1017200000038CE8A40069463046FFF791F80022D8
:1017300005212620FFF71CFA2620FFF70BFA206868
:10174000C16841F02001C160CCE7000000100140F9
:1017500030380240000002400044004070477047AB
:10176000FEE70000094808B5016841F0800101600A
:10177000016801F080010091016841F00101016000
:10178000006800F00100009008BD00003038024001
:101790000C4810B50A4901604FF4E1314160002165
:1017A00081600C22C160C0E904128161C161FFF750
:1017B00039FF002803D0BDE81040FEF7DABF10BDA6
:1017C000001001405C0100200C4810B50A4901607E
:1017D0004FF4E1314160002181600C22C160C0E919
:1017E00004128161C161FFF71DFF002803D0BDE82D
:1017F0001040FEF7BEBF10BD00440040A001002015
:10180000FEE7FEE7704770477047000030B593B0C1
:1018100030216846FEF720FD14210CA8FEF71CFDC0
:101820001E480025016841F080510160006800F009
:10183000805011901A48016841F4804101600068AD
:10184000022400F4804011900120009000040190D7
:101850008001CDE90640082008904FF4A870CDE93A
:10186000090404200B906846FFF7BEFA08B172B66F
:10187000FEE70CA90F2081E831004FF4A0500F9033
:101880004FF48050109005210CA8FFF7A3F9002811
:1018900001D072B6FEE713B030BD00004038024000
:1018A000007000400248016841F470010160704717
:1018B00088ED00E00148FFF7BEBC0000E401002015
:1018C000F0B50268254C264D264E274F274B4FF08A
:1018D000804CA04209D0604507D0A84205D0B04254
:1018E00003D0B84201D0984204D122F0700E4A6869
:1018F00042EA0E02A0421BD0604519D0A84217D080
:10190000B04215D0B84213D0984211D0184DA84219
:101910000ED0184DA8420BD0174DA84208D0174D35
:10192000A84205D0164DA84202D0164DA84203D1B8
:1019300022F44075CA682A434D6922F080022A4386
:1019400002608A68C2620A688262A04201D098423C
:1019500001D10969016301214161F0BD000001402D
:101960000004004000080040000C0040000401405A
:101970000040014000440140004801400018004080
:10198000001C00400020004010B5806B0021C18584
:10199000C184FFF711FD10BD01680C3151E8002F23
:1019A00022F4907241E80023002BF5D10168143134
:1019B00051E8002F22F0010241E80023002BF5D16D
:1019C000016B012909D101680C3151E8002F22F087
:1019D000100241E80023002BF5D1202180F83E10B1
:1019E00000210163704708B590F83E10222901D00C
:1019F000022008BD82684FF480539A4201D10169E8
:101A000021B1816A9A421BD04AB10AE00268816A18
:101A10005268C2F308020A80816A891C08E00269E0
:101A200072B10268526802F07F020A70816A491C32
:101A30008162C18D491E0904090CC18503D019E0DA
:101A400002685268F1E70168CA6822F02002CA60A1
:101A50000168CA6822F48072CA6001684A6922F08B
:101A600001024A61202180F83E10016B012903D058
:101A7000FFF774FE002008BD0021016301680C31EE
:101A800051E8002F22F0100241E80023002BF5D18D
:101A900001680A68D20602D50A6849680091818DFA
:101AA000FFF789FCE6E7000070B5044600680169AD
:101AB000E26821F44051114301612169A068E269A3
:101AC00008436169114308432168CA6849F20C63FD
:101AD0009A430243CA6020684169A26921F44071B7
:101AE0001143416131492068884202D0304988421F
:101AF00002D1FFF739F901E0FFF726F9E269002387
:101B0000192164253226B2F5004F626828D0A0FB67
:101B10000101930F9200FEF755FB0146B0FBF5F073
:101B20006FF01802504301EB800006EB0010B0FB91
:101B3000F5F000F0F002B1FBF5F002EB0012B1FBA2
:101B4000F5F06FF01803584301EB800006EB00102E
:101B5000B0FBF5F000F00F0021681044886070BD04
:101B6000A0FB010192185B41FEF72CFB0146B0FB84
:101B7000F5F00201B1FBF5F06FF01803584301EBEB
:101B8000800006EBC000B0FBF5F000F0F80002EBBF
:101B90004002B1FBF5F0584301EB800006EBC000BA
:101BA000B0FBF5F000F00700D6E7000000100140A0
:101BB0000014014070B51D4800680068C0438006ED
:101BC0001CD41B4800680026C1B21A4C242900D13D
:101BD0002680194822888154521C95B225800278AB
:101BE000242A07D102794D2A04D14079432801D112
:101BF0000A2908D0C82D01D3C8202080BDE8704034
:101C00000A48FFF7DBBB50210C48FEF725FB2A46AC
:101C100009490A48FEF707FB0849012081F85000EE
:101C20002680C8210448FEF717FBE7E7A001002043
:101C30000444004000000020910000201800002013
:101C4000FEE700000FB4054B10B503A9044A029843
:101C500000F0EAF810BC5DF814FB00008D250008C8
:101C6000140000200907090E002804DB00F1E02021
:101C700080F80014704700F00F0000F1E02080F8B9
:101C8000141D704702E008C8121F08C1002AFAD1CB
:101C900070477047002001E001C1121F002AFBD1EC
:101CA000704700002DE9FF5F82B00021DDE90430BC
:101CB000020DDDF840B0034318D044F61050A2F2F4
:101CC000FF3242431514119801281FD0A5EB0B00D9
:101CD000401C5FEA000A4FF000064E4FDFF83891D3
:101CE000B046504615D5CAF1000413E011980124FE
:101CF0004AA3012801D16FEA0B010298119AC0E9A9
:101D00000031C0E9024206B0BDE8F09FCBF100000F
:101D1000DFE704460021404A491842EB0450CDE970
:101D2000001012E0E00707D032463B4640464946E5
:101D3000FEF78BFB8046894632463B4610461946E5
:101D4000FEF783FB06460F466410002CEAD1DDE95E
:101D50000401DDE90023BAF1000F06DAFEF775FB96
:101D600042464B46FEF771FB05E0FEF7E0FB4246BC
:101D70004B46FEF7DCFB04460E460022284BFEF7DE
:101D80005DFC03D84FF0FF30014607E00022254BF1
:101D900020463146FEF7B2FAFEF738FC102409E07F
:101DA000002C0ADB0A220023FEF70CFA039B3032D8
:101DB0001A55641E50EA0102F2D1641C039AC4F160
:101DC00011031444119A012A03D0012208430DD1B2
:101DD0000AE0084304D000204FF0110B119072E785
:101DE000A3EB0B056D1E0DE05B4504DD4FF000021B
:101DF00005F1010504E003DA4FF00002A5F1010549
:101E0000002AECD002981199C0E90231C0E90045DE
:101E100079E70000000014400000F03F30000000AF
:101E20000000F0430000E03F2DE9FF4F95B09A46D7
:101E3000884606460025EEE1252877D1002427466E
:101E4000F94A0121039400E0044316F8013F203BC6
:101E500001FA03F01042F7D130782A2811D06FF040
:101E60002F033078A0F13002092A16D8039A44F0E3
:101E7000020402EB820203EB42021044761C039040
:101E8000EFE758F8042B0392002A03DA504244F497
:101E90000054039044F00204761C30782E2816D1AA
:101EA00016F8010F44F004042A280DD06FF02F0219
:101EB0003078A0F13003092B09D807EB870302EB38
:101EC0004303C718761CF3E758F8047B761C307878
:101ED0006C280FD006DC4C2817D068280DD06A2853
:101EE00014D104E0742810D07A280FD10DE044F406
:101EF00000140AE044F4801401E044F440147278C1
:101F0000824202D104F58014761C761C3078662853
:101F10000BD013DC582877D009DC002875D0452871
:101F2000F6D04628F4D047281AD193E118E0632868
:101F300035D0642879D0652812D18BE1702873D010
:101F400008DC6728F1D069286FD06E280DD06F2883
:101F500006D1ACE073282CD0752874D0782853D0E3
:101F60005246179990476D1C54E1C4F30250022861
:101F700009D003280DD0D8F8001004280DD00D602A
:101F800008F1040846E1D8F80010EA17C1E9005248
:101F9000F6E7D8F800100D80F2E70D70F0E718F8BA
:101FA000041B8DF8001000208DF80100EB46012085
:101FB00003E058F804BB4FF0FF3061074FF0000119
:101FC00002D40DE009F101018946B9420FDA8145D9
:101FD000F8DB1BF809100029F4D108E009F1010130
:101FE00089468142FADB1BF809100029F6D10398D3
:101FF0005346A0EB090721463846179A00F080FAAD
:10200000284400EB090507E044E008E10DE01BF877
:10201000010B524617999047B9F10109F7D253467F
:1020200021463846179AF2E039E00A21C4F30252F9
:102030004FF0000B0091022A06D058F8040BC1178C
:10204000032A09D00AE023E008F1070020F0070284
:10205000F2E80201904605E000B2C117042A01D15E
:1020600040B2C117002906DA0A460021404261EB5E
:1020700002012D2202E0220504D52B228DF8042036
:10208000012203E0E20701D02022F7E7914657E062
:102090000A2100E010214FF0000B00910BE010210D
:1020A0004FF0000B44F004040827009103E00820DF
:1020B0004FF0000B0090C4F30252022A05D058F8EA
:1020C000040B0021032A08D008E008F1070020F0E3
:1020D0000702F2E80201904603E080B2042A00D130
:1020E000C0B24FF0000922072AD53278702A07D0F3
:1020F000DDF800C08CF0100C5CEA0B0C05D00EE093
:1021000040228DF80420012208E050EA010306D0A5
:1021100030238DF804308DF8052002229146009B73
:1021200083F0080353EA0B030AD150EA010201D1FC
:10213000620705D530228DF804204FF001097F1E7B
:102140003278582A04D039A20C920CAA02920BE0E1
:102150003BA2F9E75B46009AFEF734F80C9B9B5CC8
:10216000029A521E0292137050EA0102F2D10298B2
:1021700004A9081A00F1200B600702D524F480346A
:1021800000E001275F4502DDA7EB0B0000E0002027
:1021900000EB0B01009003984944401A0390E003C0
:1021A00006D453462146179A039800F0A9F905442E
:1021B000002706E001A85246C05D179990476D1CA4
:1021C0007F1C4F45F6DBE0030CD553462146179A9A
:1021D000039800F095F9054404E030205246179921
:1021E00090476D1C0099481E00900029F5DC08E01E
:1021F0000298029952460078491C0291179990471B
:102200006D1CBBF10001ABF1010BF1DC5BE100F0F7
:1022100065F90544761C307800287FF40DAE19B0BE
:102220002846BDE8F08F0000092801003031323324
:102230003435363738396162636465660000000002
:1022400030313233343536373839414243444546EC
:1022500000000000600700D4062708F1070020F006
:102260000700F0E80223804603F0004C5FEA0C0010
:1022700001D097A009E0200501D596A005E0E00770
:1022800001D095A001E0AFF24C001390307823F01C
:10229000004365280CD006DC452809D046281DD00F
:1022A00047287FD13BE0662818D067287AD136E0EE
:1022B0000021112F01DB112000E0781CCDE9000185
:1022C00004A90CA8FFF7EEFCDDE90D010C9A4FF014
:1022D000000B07F10109109200914EE04FF0004011
:1022E0000097CDE9011004A90CA8FFF7DBFCDDE99C
:1022F0000D020C9B0F994FF0000B9146109300922A
:1023000011B9791C00EB0109B7EB090003D4C0F146
:10231000FF3B07F10109A9EB0700019042E0012F03
:1023200000DA01270021112F01DD112000E03846DD
:10233000CDE9000104A90CA8FFF7B4FCDDE90D010B
:102340000C9A00914FF0000BB946109221070FD460
:10235000009A4A4503DA914601E0A9F10109B9F171
:10236000010F05DD109AA9F10101515C3029F4D06B
:10237000B84202DA10F1040F03DA0121CDE90110AD
:1023800010E0002803DC8344A9EB000102E0411CBB
:10239000494500DD8946A0EB0B00401C01904FF041
:1023A00000400290200705D40198484502DB4FF019
:1023B000FF30019000208DF84B0002980DF14B0783
:1023C000B0F1004F25D002200C902B200D900298E8
:1023D00000280CDA404202902D200D9007E00A21DF
:1023E0000298FDF756FF3031029007F8011D0C9955
:1023F000481E0C900029F2DC02980028EFD1791ECB
:102400000D980870307800F0200040F0450007F883
:10241000020D11A8C01BC01D02901398007800B1D6
:10242000012000EB0901019801EBE07102980144E1
:102430000398401A401E0390E00306D453462146F9
:10244000179A039800F05CF805441398007818B1C7
:102450005246179990476D1CE00323D553462146F9
:10246000179A039800F04CF805441BE0BBF1000FED
:1024700007DB0098584504DD1098179910F80B00F9
:1024800001E0179930205246904701980BF1010B5B
:10249000401E05F10105019004D12E2052461799E6
:1024A00090476D1CB9F10001A9F10109DEDC05E0DE
:1024B00017F8010B5246179990476D1C0299481E58
:1024C00002900029F4DC53462146179A03989EE6B1
:1024D0002D0000002B000000200000002DE9F0413D
:1024E000044600251E461746880404D405E03946F4
:1024F0002020B0476D1C641EF9D52846BDE8F08148
:102500002DE9F041044600251E469046C80301D53A
:10251000302700E02027880404D505E041463846EE
:10252000B0476D1C641EF9D52846BDE8F081000057
:1025300070B50F4D0024284685F8504085F851406D
:1025400085F8784050215235FDF786FE2C606C608E
:102550002C81AC72C5F80B40C5F80F40A5F81340AC
:102560006C75EC82AC61EC612C62AC8470BD0000D7
:10257000180000200446214601A0FFF763FBFAE79C
:102580004552524F5225640D0A00000002490A6864
:102590001206FCD54860704700100140FEF75EFA55
:1025A000FFF734F9FFF7DEF8FFF7F2F8FFF70CF961
:1025B000FFF7BEFF09A0FFF745FB4FF47A740DA0AB
:1025C000FFF740FB2046FEF731F90E490EA0FFF75A
:1025D00039FB00F021F800F08FF8F0E757656C63E5
:1025E0006F6D6520746F207573652153544152548B
:1025F0000D0A00006D61696E207768696C65200ABC
:102600000000000091000020425546464552203A05
:10261000202573200A0000002DE9F8432F4F0025E4
:1026200097F85000002854D0A84687F850802CA076
:10263000FFF708FB3846FFF705FB4FF001090FE0F5
:1026400075B1401C06462BA1FDF711FE040042D0D7
:10265000072D16D2DFE805F0150B1020252A2F00D4
:1026600024A11E48FDF703FE60BB012034E01B4897
:10267000A21B3146523002E0A21B31466846FDF7EC
:10268000D2FD87F851909DF8002020464946412A06
:1026900016D0562A19D116E01048A21B31465D30DB
:1026A000EDE70E48A21B31466830E8E70B48A21B55
:1026B00031466A30E3E70948A21B31467630DEE74F
:1026C00087F8781001E087F878806D1CEDB2062D50
:1026D000B6D9BDE8F8830220FFF74CFF18000020B0
:1026E0002A2A2A2A2A2A2A2A2A2A2A2A2A2A0D0A87
:1026F000000000002C00000070B5224C94F851003E
:1027000000283ED0002584F851501FA0FFF79AFA08
:1027100004F15200FFF796FA21A0FFF793FA94F81C
:102720007800002828D084F878501EA0FFF78AFA95
:1027300004F15D00FFF786FA19A0FFF783FA1FA0E6
:10274000FFF780FA04F16800FFF77CFA14A0FFF7A6
:1027500079FA1FA0FFF776FA04F16A00FFF772FA20
:102760000FA0FFF76FFA20A0FFF76CFA04F17600D4
:10277000FFF768FA0AA000E020A0BDE87040FFF76C
:1027800061BA70BD18000020536176655F446174C2
:10279000612E55544354696D65203D2000000000B2
:1027A0000D0A0000536176655F446174612E6C61AF
:1027B000746974756465203D20000000536176657E
:1027C0005F446174612E4E5F53203D200000000085
:1027D000536176655F446174612E6C6F6E676974D6
:1027E000756465203D200000536176655F44617427
:1027F000612E455F57203D200000000047505320C8
:1028000044415441206973206E6F7420757365666E
:10281000756C6C210D0A0000000000000000000033
:102820000102030406070809000000000102030476
:10283000502800080000002018000000841C000838
:10284000682800081800002018060000941C0008E2
:102850000000000001000000100000000000000067
:082860000024F4000000000058
:040000050800018965
:00000001FF
