:020000040800F2
:10000000A8040020A1010008CB130008EF1200088B
:10001000C91300080D0400080116000800000000C4
:10002000000000000000000000000000CF130008E6
:100030000F04000800000000CD130008D1130008D1
:10004000BB010008BB010008BB010008BB010008A0
:10005000BB010008BB010008BB010008BB01000890
:10006000BB010008BB010008BB010008BB01000880
:10007000BB010008BB010008BB010008BB01000870
:10008000BB010008BB010008D9020008BB01000841
:10009000BB010008BB010008BB010008BB01000850
:1000A000BB010008BB010008BB010008BB01000840
:1000B000BB010008BB010008BB010008BB01000830
:1000C000BB010008BB010008BB010008BB01000820
:1000D000BB010008BB010008BB010008BB01000810
:1000E000BB010008BB010008BB010008BB01000800
:1000F000BB010008BB010008BB010008BB010008F0
:10010000BB010008BB010008BB010008BB010008DF
:10011000BB010008BB010008BB010008BB010008CF
:10012000BB010008BB010008BB010008BB010008BF
:10013000BB010008BB010008BB010008BB010008AF
:10014000BB010008BB010008BB010008BB0100089F
:10015000BB010008BB010008BB010008BB0100088F
:10016000BB010008BB010008BB010008BB0100087F
:10017000BB010008BB010008BB0100080000000033
:10018000BB010008BB010008DFF810D000F092F8B6
:1001900000480047C9170008AFF30080A8040020FA
:1001A0000648804706480047FEE7FEE7FEE7FEE711
:1001B000FEE7FEE7FEE7FEE7FEE7FEE76D14000858
:1001C000890100082DE9F05F0546002092469B4614
:1001D00088460646814640241BE02846414647465D
:1001E000224600F057F853465A46C01A914110D3A0
:1001F00011461846224600F03EF82D1A67EB01081A
:100200004F4622460120002100F035F817EB000987
:100210004E41201EA4F10104DFDC484631462A4647
:100220004346BDE8F09FD2B201E000F8012B491E21
:10023000FBD270470022F6E710B513460A46044683
:100240001946FFF7F0FF204610BD30B50B460146BA
:1002500000202022012409E021FA02F59D4205D365
:1002600003FA02F5491B04FA02F52844151EA2F10F
:100270000102F1DC30BD202A04DB203A00FA02F151
:10028000002070479140C2F1200320FA03F3194384
:1002900090407047202A04DB203A21FA02F0002126
:1002A000704721FA02F3D040C2F120029140084386
:1002B00019467047064C074D06E0E06840F0010320
:1002C00094E8070098471034AC42F6D3FFF760FF7C
:1002D0005018000870180008014800F067B90000C5
:1002E00018000020464910B54A6822F440324A609E
:1002F0004A6843681A434A6001684A6822F4807277
:100300004A6001684A68036942EA03224A60016858
:100310004A6822F040724A6001684A6883681A435A
:100320004A6001688A6822F400628A6001688A680B
:10033000C3681A438A60816A6FF07062D1420168B3
:100340008A6822F070628A6001688A680CD0836AC9
:100350001A438A6001688A6822F040528A60016804
:100360008A68C36A1A4301E022F040528A60016839
:100370008A6822F002028A6001688A68037E42EA83
:1003800043028A6090F82010002901684A680FD063
:1003900042F400624A6001684A6822F460424A609E
:1003A00001684A68174C436A04EB43331A4301E07F
:1003B00022F400624A600168CA6A22F47002CA62CA
:1003C0000168CA6A838B104C04EB03531A43CA6258
:1003D00001688A6822F400728A6001688A6890F86D
:1003E000303042EA43228A6001688A6822F48062DF
:1003F0008A6001688A68406942EA8020886010BD8E
:100400000023014000E0FFFF0000F0FFFEE770471F
:1004100072B6FEE77047000078B50024009490F8AB
:100420003C20012A19D0012280F83C200A680723C9
:100430000568092A13D9EE680A3A02EB4202934092
:100440009E43EE600B788A680A3B03EB43039A40B5
:100450000368DD682A43DA6010E0022078BD2E6967
:1004600002EB420293409E432E610B788A6803EBB5
:1004700043039A4003681D692A431A614A681F238F
:10048000072A13D205686E6B521E02EB820293405C
:100490009E436E630B790A885B1E92B203EB830363
:1004A0009A4003685D6B2A435A6327E005680D2A6A
:1004B00012D22E6BD21F02EB820293409E432E6318
:1004C0000B790A88DB1F92B203EB83039A4003681F
:1004D0001D6B2A431A6311E0EE6A0D3A02EB8202A9
:1004E00093409E43EE620B790A880D3B92B203EB78
:1004F00083039A400368DD6A2A43DA62164B056873
:10050000144A9D4206D10D68122D03D1556845F459
:100510008005556005689D4218D10B68102B01D0ED
:10052000112B13D1536843F4000353600968102959
:100530000CD10A490A4A0968B1FBF2F101EB8101C9
:10054000490000E0491E00910029FBD180F83C40A1
:10055000002078BD00230140002001401000002051
:1005600040420F0010B50068074988420AD1074889
:1005700000F019F8064908600146BDE8104005A0E2
:1005800001F040B810BD000000200140180000201C
:10059000000000206164635F76616C7565203D201A
:1005A00025640A0070470068C06C704770B5044647
:1005B00000680668456816F0020F05F020012AD091
:1005C00049B3216CC90603D4216C41F40071216444
:1005D000816811F0405F17D1217EA9B9C16A11F479
:1005E000700F02D0816849050ED4416821F02001C6
:1005F0004160206C20F480702064206CC00403D41F
:10060000206C40F0010020642046FFF7ABFF21681A
:100610006FF01200086016F0040F05F0800132D070
:1006200089B3206CC00603D4206C40F400502064D1
:100630002068816811F4401F1ED1816B11F4401FA6
:1006400002D08168490517D44168490514D48168EE
:1006500011F0405F10D1217E71B9416821F0800115
:100660004160206C20F480502064206CC00503D4CD
:10067000206C40F0010020642046FFF7CBFE21688B
:100680006FF00C00086016F0010F05F040010FD06C
:1006900071B120680068C0070AD0206C40F4803037
:1006A0002064204600F043F821686FF001000860E4
:1006B00016F0200F05F080610ED000290CD0606C80
:1006C00040F00200606420686FF02005056020465D
:1006D000FFF768FF2068056070BD70B504004FF03B
:1006E000000503D0206C002610B107E0012070BD8A
:1006F000204600F01DF8666484F83C60206CC0065B
:1007000010D4206C20F4885040F002002064204671
:10071000FFF7E8FD6664206C20F0020040F0010065
:10072000206400E0012584F83C60284670BD7047D5
:1007300010B586B0044614216846FFF77BFD1549C5
:100740002068884224D114480021026842F4807253
:100750000260006800F4807005900F481438026849
:1007600042F004020260006800F0040005900820D6
:1007700000900320CDE901016946084800F0A8F87F
:1007800001221146122000F00BFA122000F0FAF9B3
:1007900006B010BD0020014044380240000802406D
:1007A00018B50021009190F83C20012A07D00122C1
:1007B00080F83C2002689368DB0702D011E0022039
:1007C00018BD936843F001039360314A314B1268BE
:1007D000B2FBF3F202EB420200E0521E0092002A4A
:1007E000FBD102689368DB0747D0036C40F20164D9
:1007F000A34343F48073036453685B0505D5036C1E
:1008000023F4005343F480530364036CDB0404D5E6
:10081000436C23F00603436400E0416480F83C101D
:100820001D4B6FF02201116001684A681B4C224386
:100830004A6059680068CA06194906D0884224D11E
:10084000816811F0405F13D01FE08842F8D0154A4C
:10085000904203D1D1F80423D206F1D0124A90423B
:1008600013D1D1F8041301F01F011029E8D30CE0D3
:10087000816841F08041816007E0016C41F0100126
:100880000164416C41F001014164002018BD000089
:100890001000002040420F0000230140200000040F
:1008A00000200140002101400022014070B50446B3
:1008B00000F006F90546601C02D0044800780444A4
:1008C00000F0FEF8401BA042FAD370BD04000020E7
:1008D0002DE9F84FDFF8BCA10022012503264FF0D7
:1008E0000F090AF1040BAAF1040E00BF0B6805FA08
:1008F00002F42340A34270D10F7907F00307012FC0
:1009000001D0022F16D187684FEA420806FA08FC88
:1009100027EA0C07D1F80CC00CFA08FC4CEA070CCB
:10092000C0F808C04768A7430C79C4F3001494408A
:100930003C4344600C79E443A4070AD0C4684FEAFE
:10094000420C06FA0CF7BC438F6807FA0CF72743F2
:10095000C7600C7904F00304022C12D1D40800EB18
:10096000840CDCF820405707FF0E09FA07F824EA48
:100970000804D1F8108008FA07F848EA0408CCF80F
:10098000208004684FEA420C06FA0CF7BC430F794A
:1009900007F0030707FA0CF7274307604C6814F4C5
:1009A000403F70D03C4C276847F48047276024685C
:1009B00022F0030704F480440094384C07EB040C45
:1009C000DCF8084897074FEA177809FA08F7BC439C
:1009D000334FB84202D1002724E054E0314FB842EF
:1009E00001D101271EE0304FB84201D1022719E0A2
:1009F0002E4FB84201D1032714E02D4FB84201D148
:100A000004270FE02B4FB84201D105270AE02A4FF7
:100A1000B84201D1062705E0284FB84201D1072787
:100A200000E0082707FA08F72743CCF80878DAF837
:100A300000405746D1F804C09C435FEACC2C00D557
:100A40001C433C60DBF800405F46D1F804C09C4387
:100A50005FEA8C2C00D51C433C60DEF800407746F2
:100A6000D1F804C09C435FEA8C3C00D51C433C6039
:100A7000084F083F3C68D1F804C09C435FEACC3C77
:100A800000D51C433C60521C102AFFF42FAFBDE878
:100A9000F88F0000083C014044380240003001401B
:100AA000000002400004024000080240000C024026
:100AB000001002400014024000180240001C0240D6
:100AC00001488068704700000400002002488168E7
:100AD0000278114481607047040000200B4810B573
:100AE000016841F400710160016841F480610160B6
:100AF000016841F480710160032000F071F800206A
:100B000000F006F800F024F8002010BD003C024080
:100B100070B50D4D04464FF47A712878B1FBF0F0B2
:100B20000A490968B1FBF0F000F00CFB48B9102C41
:100B300007D200222146501E00F032F800206C60DF
:100B400070BD012070BD00000400002010000020D6
:100B50000B4882B0016841F480410160006800F4F4
:100B6000804000900648001F016841F080510160FC
:100B7000006800F080500090052002B000F030B80E
:100B800044380240002809DB00F01F020121914097
:100B90004009800000F1E020C0F80011704700001B
:100BA000F0B40E4B1B680C46C3F30223C3F10705D8
:100BB000042D00D90425191D072901D2002300E0C6
:100BC000DB1E012606FA05F1491E214099409E4090
:100BD000761E16403143F0BC00F024BD0CED00E061
:100BE000064900F0070208684FF6FF03184040EA84
:100BF0000220034A10430860704700000CED00E03B
:100C00000000FA052DE9F0470E46050065D0DFF833
:100C10001481D8F80000F7B200F00700B04207D204
:100C200088F80070D8F8000000F00700B04254D1F6
:100C300028683D4C810712D5400703D5206840F451
:100C4000E05020602878000703D5206840F4604019
:100C500020602068A96820F0F00008432060287810
:100C6000C0072DD0304968680839012812D0022801
:100C700013D0032811D00968890700292DDA2168CB
:100C800021F0030101432160FFF71AFF814641F281
:100C9000883A0EE009688903EFE709688901ECE703
:100CA000FFF70EFFA0EB0901514502D90320BDE873
:100CB000F0872068696800F00C00B0EB810FEFD17D
:100CC000D8F80010404601F00701B14207D907707B
:100CD000006800F00700B04201D00120E7E7287863
:100CE000400705D52068E96820F4E05008432060FB
:100CF0002878000706D52068296920F4604040EA7A
:100D0000C100206000F038F82168084AC1F30311DF
:100D1000515CC8400649086006480068FFF7F8FEC5
:100D20000020C4E7003C02400838024038180008A0
:100D300010000020080000200448054900680968E8
:100D4000044AC1F38221515CC84070471000002062
:100D50000838024048180008044805490068096836
:100D6000044AC1F34231515CC84070471000002072
:100D70000838024048180008154810B5006810F0FF
:100D80000C02144813D04110042A0FD0082A0ED1A7
:100D90000F4C241F2268236802F03F025B0207D534
:100DA0002068C0F38810A0FB010106E0084610BDD2
:100DB0002168C1F38811A1FB00010023FFF702FAAB
:100DC0002168C1F30141491C4900B0FBF1F010BD9D
:100DD000083802400024F4002DE9F84F04006ED0DA
:100DE0002078DFF84C93C007A9F104054AD009F137
:100DF00004000168C1F38101012908D00068C0F333
:100E0000810002280AD1D9F80000400206D52868DE
:100E1000800337D560680028E1D033E06068B0F522
:100E2000803F10D0B0F5A02F286810D020F480307B
:100E30002860286820F4802028606068A8B1FFF747
:100E40003FFE06460DE0286840F48030F4E740F4A9
:100E500080202860F7E700BFFFF732FE801B642880
:100E600073D828688003F7D50CE0FFF729FE064603
:100E700005E000BFFFF724FE801B6428F0D8286837
:100E80008003F7D42078DFF8AC8280074FF0000AA7
:100E90003ED5A748001D016811F00C0F08D000686E
:100EA000C0F3810002280BD1D9F80000400207D41A
:100EB0002868800716D5E068012800D112E033E1E8
:100EC000E068B8B10120C8F80000FFF7F9FD064658
:100ED00005E000BFFFF7F4FD801B0228C0D828689A
:100EE0008007F7D52868216920F0F80040EAC100A2
:100EF00028600DE0C8F800A0FFF7E2FD064604E018
:100F0000FFF7DEFD801B02281FD828688007F7D472
:100F10002078000722D5864F87486169703771B104
:100F200001210160FFF7CCFD064604E0FFF7C8FD94
:100F3000801B022809D838688007F7D50EE0C0F872
:100F400000A0FFF7BDFD064605E082E0FFF7B8FD13
:100F5000801B02287DD838688007F7D420784007A6
:100F600068D5DFF8CCB100270BF13C0BDBF80000B3
:100F7000C0000BD4DBF8001041F08051CBF800101A
:100F8000DBF80000012700F0805000906B4E3068C5
:100F9000C00510D4306840F480703060FFF790FDD9
:100FA000009005E0FFF78CFD0099401A022850D808
:100FB0003068C005F6D55E4EA0686C3601280FD0AB
:100FC0000528306810D020F001003060306820F033
:100FD00004003060A068B8B1FFF772FD00900FE028
:100FE000306840F00100F4E740F004003060F7E7BB
:100FF000FFF766FD0099411A41F28830814266D8B8
:1010000030688007F4D50EE0FFF75AFD009007E046
:10101000FFF756FD0099411A41F28830814256D8B7
:1010200030688007F4D42FB1DBF8001021F0805134
:10103000CBF80010A069C8B33D49091D0968C1F388
:10104000810102294AD00228504607D0C8F8600022
:1010500000E03CE0FFF734FD04463BE04746C8F8BB
:101060006000FFF72DFD064605E000BFFFF728FDF5
:10107000801B02282BD828688001F7D4D4E9070107
:101080000843A16A2E4A490802EB0141626A41EA1B
:101090008211084394F82C1040EA0161C9F800104D
:1010A00001203866FFF70CFD044606E03EE000BF75
:1010B000FFF706FD001B022809D828688001F7D534
:1010C00034E000BFFFF7FCFC001B022802D903201C
:1010D000BDE8F88F28688001F4D427E00128F7D014
:1010E000D9F80000E26900F4800191421CD1226A23
:1010F00000F03F01914217D147F6C071626A01408A
:10110000B1EB821F10D1A26A4FF0FF3300F44031DF
:1011100003EB5202B1EB024F06D194F82C1000F011
:101120007060B0EB016F01D00120D1E70020CFE764
:101130000438024000004742800E474200700040E1
:101140000000FFFF10B5401EB0F1807F01D30120E9
:1011500010BD4FF0E02460610F21601700F062FACB
:101160000020A06107202061002010BD70B50400A0
:1011700004D094F83D00002510B106E0012070BDB8
:1011800084F83C50204600F023F8242084F83D00E9
:101190002068C16821F40051C160204600F06EF95A
:1011A0002068016921F4904101612068416921F0C2
:1011B0002A0141612068C16841F40051C160256481
:1011C000202084F83D0084F83E00002070BD00001F
:1011D00010B586B0044614216846FFF72BF8144971
:1011E0002068884221D113480021026842F0100291
:1011F0000260006800F0100005900E481438026884
:1012000042F001020260006800F0010005904FF416
:10121000C06000900220CDE9010103200390072067
:10122000049069460448FFF753FB06B010BD000068
:101230000010014044380240000002402DE9F8430C
:10124000044690F83D001F4616460D4620284CD116
:10125000C5B1BEB194F83C00012846D0012084F805
:101260003C004FF00008C4F84080212084F83D0085
:10127000FFF726FCA6848146E684A068B0F5805F6F
:1012800003D004E00120BDE8F883206928B12E4690
:101290005FF0000584F83C800EE00026FAE780212C
:1012A000204600F071F9A0B9AEB116F8010B216823
:1012B0004860E08C401EE084E08C4B464FF000021A
:1012C00000970028EBD14FF04001204600F05CF978
:1012D00030B10320D7E735F8020BC0F30800E6E78A
:1012E000202084F83D000020CDE70220CBE7FEE778
:1012F0001FB500211548009101910291124A0391F6
:1013000002604FF48032C0E901210161017680F86A
:1013100020100F4AC0E90A210124C461C16080F88D
:1013200030104461FFF7D9F908B1FFF771F80D20CB
:10133000CDE90004694605480294FFF76DF80028DE
:1013400001D0FFF765F81FBD002001401800002004
:101350000100000F0D4808B5016841F080010160EF
:10136000016801F080010091016841F00401016011
:10137000016801F004010091016841F00101016080
:10138000006800F00100009008BD00003038024005
:101390000C4810B50A4901604FF4E1314160002169
:1013A00081600C22C160C0E904128161C161FFF754
:1013B000DDFE002803D0BDE81040FFF729B810BDBE
:1013C0000010014060000020FEE7FEE77047704714
:1013D000FFF77CBB30B593B030216846FEF72AFF9B
:1013E00014210CA8FEF726FF1E480025016841F0D5
:1013F00080510160006800F0805011901A48016827
:1014000041F4804101600068022400F480401190A2
:1014100001200090000401908001CDE906400820E1
:1014200008904FF4A870CDE9090404200B90684699
:10143000FFF7D2FC08B172B6FEE70CA90F2081E8D5
:1014400031004FF4A0500F904FF4805010900521C0
:101450000CA8FFF7D7FB002801D072B6FEE713B047
:1014600030BD000040380240007000400248016872
:1014700041F470010160704788ED00E070B50446EA
:1014800000680169E26821F440511143016121695A
:10149000A068E26908436169114308432168CA688A
:1014A00049F20C639A430243CA6020684169A26909
:1014B00021F440711143416131492068884202D0D2
:1014C0003049884202D1FFF747FC01E0FFF734FCC6
:1014D000E2690023192164253226B2F5004F6268C3
:1014E00028D0A0FB0101930F9200FEF76BFE01468E
:1014F000B0FBF5F06FF01802504301EB800006EBF3
:101500000010B0FBF5F000F0F002B1FBF5F002EBDB
:101510000012B1FBF5F06FF01803584301EB8000A7
:1015200006EB0010B0FBF5F000F00F00216810444E
:10153000886070BDA0FB010192185B41FEF742FE7E
:101540000146B0FBF5F00201B1FBF5F06FF01803B6
:10155000584301EB800006EBC000B0FBF5F000F053
:10156000F80002EB4002B1FBF5F0584301EB8000BC
:1015700006EBC000B0FBF5F000F00700D6E7000076
:1015800000100140001401402DE9F0419846174633
:101590000E460446069D27E0681C25D02DB1FFF7B6
:1015A0008FFAA0EB0800A8421ED920680C3050E842
:1015B000001F21F4D07140E80012002AF5D1206804
:1015C000143050E8001F21F0010140E80012002A09
:1015D000F5D1202084F83D0084F83E00002084F8F6
:1015E0003C000320BDE8F0812068006836EA000076
:1015F00004D00020B842CFD00020F3E70120F9E763
:10160000FEE700000FB4054B10B503A9044A029889
:1016100000F028F810BC5DF814FB0000B9170008B2
:10162000140000200907090E002804DB00F1E02067
:1016300080F80014704700F00F0000F1E02080F8FF
:10164000141D704702E008C8121F08C1002AFAD111
:1016500070477047002001E001C1121F002AFBD132
:10166000704700002DE9FF4F89B09B4604460025D6
:1016700006E025280BD05A460B999047641C6D1C38
:1016800020780028F5D10DB02846BDE8F08F00275E
:10169000B8460122474900E0074314F8013F203BC8
:1016A00002FA03F00842F7D120782E2819D114F855
:1016B000010F47F004072A280ED06FF02F02207880
:1016C000A0F1300109290CD808EB880102EB410197
:1016D00000EB0108641CF2E70A98641C50F8048BC4
:1016E0000A9020780028CED0642808D0692806D037
:1016F00075281ED05A460B9990476D1C58E00A99E0
:101700004FF00A0901C90A91002802DA40422D214E
:1017100002E0390504D52B218DF82010012103E0CA
:10172000F90704D02021F7E78A4608AE0DE0002132
:10173000FAE70A994FF00A0901C90A91F7E7494601
:10174000FEF783FD303106F8011D0028F7D1ADEB1F
:10175000060000F12009780701D44FF00108C845C0
:1017600002DDA8EB090000E000208046002706E02B
:1017700008A85A46C05D0B9990476D1C7F1C5745C1
:10178000F6DB04E030205A460B9990476D1CB8F107
:101790000001A8F10108F5DC05E016F8010B5A4636
:1017A0000B9990476D1CB9F10001A9F10109F4DC16
:1017B000641C65E70928010002490A685206FCD545
:1017C0004860704700100140FFF788F9FFF702FEFC
:1017D000FFF7C0FDFFF78CFDFFF7DAFD642305225C
:1017E0000AA10C48FFF72AFD0BA0FFF70BFF6423AB
:1017F00005220EA10748FFF721FD4FF47A740D482A
:10180000FEF7CEFF2046FFF751F8F8E774657374D2
:101810003100000060000020746869732069732043
:101820006164633120746573740A000074657374B5
:10183000320000001800002000000000000000003E
:101840000102030406070809000000000102030466
:10185000701800080000002018000000441600085E
:101860008818000818000020900400005416000892
:101870000000000001000000100000000000000057
:081880000024F4000000000048
:040000050800018965
:00000001FF
