:020000040800F2
:1000000068060020A101000833130008CD0F000886
:100010003113000827030008E11600080000000063
:100020000000000000000000000000002B15000888
:100030002903000800000000291500082D150008FC
:10004000BB010008BB010008BB010008BB010008A0
:10005000BB010008BB010008BB010008BB01000890
:10006000BB010008BB010008BB010008BB01000880
:10007000BB010008BB010008BB010008BB01000870
:10008000BB010008BB010008BB010008BB01000860
:10009000BB010008BB010008BB010008BB01000850
:1000A000BB010008BB010008BB010008BB01000840
:1000B000BB010008BB010008BB010008BB01000830
:1000C000BB010008BB010008BB010008BB01000820
:1000D000BB010008BB010008BB010008BB01000810
:1000E000BB010008BB010008BB010008BB01000800
:1000F000BB010008BB010008BB010008BB010008F0
:10010000BB010008BB010008BB010008BB010008DF
:10011000BB010008BB010008BB010008BB010008CF
:10012000BB010008BB010008BB010008BB010008BF
:10013000BB010008BB010008BB010008BB010008AF
:10014000BB010008BB010008BB010008BB0100089F
:10015000BB010008BB010008BB010008BB0100088F
:10016000BB010008BB010008BB010008BB0100087F
:10017000BB010008BB010008BB0100080000000033
:10018000BB010008BB010008DFF810D000F08EF8BA
:100190000048004721170008AFF3008068060020E0
:1001A0000648804706480047FEE7FEE7FEE7FEE711
:1001B000FEE7FEE7FEE7FEE7FEE7FEE7C5150008FF
:1001C000890100082DE9F05F0546002092469B4614
:1001D00088460646814640241BE02846414647465D
:1001E000224600F053F853465A46C01A914110D3A4
:1001F00011461846224600F03AF82D1A67EB01081E
:100200004F4622460120002100F031F817EB00098B
:100210004E41201EA4F10104DFDC484631462A4647
:100220004346BDE8F09F40EA01039B0703D009E085
:1002300008C9121F08C0042AFAD203E011F8013BD2
:1002400000F8013B521EF9D27047D2B201E000F82B
:10025000012B491EFBD270470022F6E710B513466A
:100260000A4604461946FFF7F0FF204610BD202A33
:1002700004DB203A00FA02F1002070479140C2F1FD
:10028000200320FA03F3194390407047202A04DB2F
:10029000203A21FA02F00021704721FA02F3D040FF
:1002A000C2F120029140084319467047064C074DA1
:1002B00006E0E06840F0010394E807009847103436
:1002C000AC42F6D3FFF764FFA8170008C817000870
:1002D00070B58C1810F8015B15F0070301D110F808
:1002E000013B2A1106D110F8012B03E010F8016B35
:1002F00001F8016B5B1EF9D12B0705D40023521EB8
:100300000DD401F8013BFAE710F8013BCB1A921C1F
:1003100003E013F8015B01F8015B521EF9D5A1421D
:10032000D8D3002070BDFEE7704772B6FEE700002C
:1003300070B5044600F00CF90546601C02D0044874
:100340000078044400F004F9401BA042FAD370BDC9
:10035000000000202DE9F84FDFF8BCA100220125A4
:1003600003264FF00F090AF1040BAAF1040E00BF97
:100370000B6805FA02F42340A34270D10F7907F00D
:100380000307012F01D0022F16D187684FEA4208D8
:1003900006FA08FC27EA0C07D1F80CC00CFA08FC96
:1003A0004CEA070CC0F808C04768A7430C79C4F3AF
:1003B000001494403C4344600C79E443A4070AD001
:1003C000C4684FEA420C06FA0CF7BC438F6807FA80
:1003D0000CF72743C7600C7904F00304022C12D1F8
:1003E000D40800EB840CDCF820405707FF0E09FA14
:1003F00007F824EA0804D1F8108008FA07F848EA58
:100400000408CCF8208004684FEA420C06FA0CF786
:10041000BC430F7907F0030707FA0CF7274307607F
:100420004C6814F4403F70D03C4C276847F4804738
:100430002760246822F0030704F480440094384CB9
:1004400007EB040CDCF8084897074FEA177809FA1D
:1004500008F7BC43334FB84202D1002724E054E0F0
:10046000314FB84201D101271EE0304FB84201D1CF
:10047000022719E02E4FB84201D1032714E02D4F77
:10048000B84201D104270FE02B4FB84201D1052714
:100490000AE02A4FB84201D1062705E0284FB842AA
:1004A00001D1072700E0082707FA08F72743CCF80F
:1004B0000878DAF800405746D1F804C09C435FEA58
:1004C000CC2C00D51C433C60DBF800405F46D1F8E3
:1004D00004C09C435FEA8C2C00D51C433C60DEF8D2
:1004E00000407746D1F804C09C435FEA8C3C00D5BD
:1004F0001C433C60084F083F3C68D1F804C09C4353
:100500005FEACC3C00D51C433C60521C102AFFF42F
:100510002FAFBDE8F88F0000083C0140443802408E
:100520000030014000000240000402400008024088
:10053000000C02400010024000140240001802406B
:10054000001C02400AB1816170470904FBE700000A
:1005500001488068704700000000002070B504006A
:1005600025D094F83D00002520B984F83C50204661
:1005700000F050F9242084F83D002068016821F043
:10058000010101602068016841F4004101602068B8
:10059000016821F40041016000F096FA4D4A61685B
:1005A000914201D84C4900E04C49884201D20120D7
:1005B00070BD4B492368B0FBF1F15E6826F03F0641
:1005C0000E435E606368934206D94FF496735943B5
:1005D0004FF47A73B1FBF3F12368491C1E6A26F0CD
:1005E0003F06314319626168914210D84900401EAC
:1005F000B0FBF1F2521CC2F30B02042A01D2042018
:1006000022E0B0FBF1F0401CC0F30B001CE0A2683C
:10061000F2B301EBC10303EB0116431EB3FBF6F388
:100620005B1C43F480431B0549D092B301EBC1022C
:1006300002EB0111401EB0FBF1F0401CC0F30B00B7
:1006400040F4804040F400402168CA694CF6FF73D2
:100650009A431043C861D4E9071001432068026837
:1006600022F0C00211430160D4E903010143206874
:10067000826848F2FF339A4311438160D4E905014F
:1006800008432168CA6822F0FF021043C86001E0F5
:100690000EE016E02068016841F001010160256468
:1006A000202084F83D00256384F83E50002070BD72
:1006B00001EB4106431EB3FBF6F35B1CB3E70120DD
:1006C000C2E701EB4101401EB0FBF1F0401CC0F35A
:1006D0000B00B7E7A086010080841E0000093D00E2
:1006E00040420F002DE9FF4F83B09A46DDE9119794
:1006F00093460446DDF84080FFF72AFF054694F84C
:100700003D0020287FD11923012240492046009531
:1007100000F0EEFC002876D194F83C00012872D05D
:10072000012084F83C0020680168C90703D10168F2
:1007300041F0010101602068016821F4006101605D
:10074000212084F83D00402084F83E0000262664E5
:10075000C4F82480A4F82A90608D20852C48E0629B
:10076000CDE9007553465A462046049900F046FCF0
:1007700070B930E02A463946204600F038FD58B1BD
:10078000206C042804D12068016841F400710160E4
:10079000012007B0BDE8F08F606A21680078086129
:1007A000606A401C6062218D491E89B22185628D7C
:1007B000521E628522685369DB435B070BD469B123
:1007C00000781061606A401C6062208D401E2085A8
:1007D000608D401E6085208D0028CBD12A46394689
:1007E000204600F05FFC0028CAD154F83D0B016898
:1007F00041F400710160202004F81E09E677667755
:100800000020C6E7FFE70220C3E700000200100057
:100810000000FFFF10B586B0044614216846FFF7BC
:100820001BFD13492068884220D11248002102682C
:1008300042F002020260006800F002000590C02051
:1008400000901220CDE901010320039004200490C0
:1008500069460948FFF77EFD06481030016841F4FB
:1008600000110160006800F40010059006B010BD92
:1008700000540040303802400004024002488168C1
:100880000278114481607047000000200B4810B5C9
:10089000016841F400710160016841F48061016008
:1008A000016841F480710160032000F061F80F20BD
:1008B00000F006F800F024F8002010BD003C0240D3
:1008C00070B50D4D04464FF47A712878B1FBF0F005
:1008D0000A490968B1FBF0F000F0FCFA48B9102CA5
:1008E00007D200222146501E00F022F800206C6042
:1008F00070BD012070BD0000000000200C00002031
:100900000A4808B5016841F480410160006800F4BC
:10091000804000900548001F016841F0805101604F
:10092000006800F08050009008BD0000443802408C
:10093000F0B40E4B1B680C46C3F30223C3F107054A
:10094000042D00D90425191D072901D2002300E038
:10095000DB1E012606FA05F1491E214099409E4002
:10096000761E16403143F0BC00F0BBBE0CED00E03B
:10097000064900F0070208684FF6FF03184040EAF6
:100980000220034A10430860704700000CED00E0AD
:100990000000FA052DE9F0470E46050065D0DFF8A6
:1009A0001481D8F80000F7B200F00700B04207D277
:1009B00088F80070D8F8000000F00700B04254D169
:1009C00028683D4C810712D5400703D5206840F4C4
:1009D000E05020602878000703D5206840F460408C
:1009E00020602068A96820F0F00008432060287883
:1009F000C0072DD0304968680839012812D0022874
:100A000013D0032811D00968890700292DDA21683D
:100A100021F0030101432160FFF79AFD814641F275
:100A2000883A0EE009688903EFE709688901ECE775
:100A3000FFF78EFDA0EB0901514502D90320BDE867
:100A4000F0872068696800F00C00B0EB810FEFD1EF
:100A5000D8F80010404601F00701B14207D90770ED
:100A6000006800F00700B04201D00120E7E72878D5
:100A7000400705D52068E96820F4E050084320606D
:100A80002878000706D52068296920F4604040EAEC
:100A9000C100206000F038F82168084AC1F3031152
:100AA000515CC8400649086006480068FFF708FF27
:100AB0000020C4E7003C02400838024090170008BC
:100AC0000C00002004000020044805490068096863
:100AD000044AC1F38221515CC84070470C000020D9
:100AE00008380240A0170008044805490068096852
:100AF000044AC1F34231515CC84070470C000020E9
:100B000008380240A0170008154810B5006810F01A
:100B10000C02144813D04110042A0FD0082A0ED119
:100B20000F4C241F2268236802F03F025B0207D5A6
:100B30002068C0F38810A0FB010106E0084610BD44
:100B40002168C1F38811A1FB00010023FFF73AFBE4
:100B50002168C1F30141491C4900B0FBF1F010BD0F
:100B6000083802400024F4002DE9F84F04006ED04C
:100B70002078DFF84C93C007A9F104054AD009F1A9
:100B800004000168C1F38101012908D00068C0F3A5
:100B9000810002280AD1D9F80000400206D5286851
:100BA000800337D560680028E1D033E06068B0F595
:100BB000803F10D0B0F5A02F286810D020F48030EE
:100BC0002860286820F4802028606068A8B1FFF7BA
:100BD000BFFC06460DE0286840F48030F4E740F49E
:100BE00080202860F7E700BFFFF7B2FC801B642875
:100BF00073D828688003F7D50CE0FFF7A9FC0646F8
:100C000005E000BFFFF7A4FC801B6428F0D828682B
:100C10008003F7D42078DFF8AC8280074FF0000A19
:100C20003ED5A748001D016811F00C0F08D00068E0
:100C3000C0F3810002280BD1D9F80000400207D48C
:100C40002868800716D5E068012800D112E033E15A
:100C5000E068B8B10120C8F80000FFF779FC06464B
:100C600005E000BFFFF774FC801B0228C0D828688D
:100C70008007F7D52868216920F0F80040EAC10014
:100C800028600DE0C8F800A0FFF762FC064604E00B
:100C9000FFF75EFC801B02281FD828688007F7D466
:100CA0002078000722D5864F87486169703771B177
:100CB00001210160FFF74CFC064604E0FFF748FC09
:100CC000801B022809D838688007F7D50EE0C0F8E5
:100CD00000A0FFF73DFC064605E082E0FFF738FC88
:100CE000801B02287DD838688007F7D42078400719
:100CF00068D5DFF8CCB100270BF13C0BDBF8000026
:100D0000C0000BD4DBF8001041F08051CBF800108C
:100D1000DBF80000012700F0805000906B4E306837
:100D2000C00510D4306840F480703060FFF710FCCC
:100D3000009005E0FFF70CFC0099401A022850D8FB
:100D40003068C005F6D55E4EA0686C3601280FD01D
:100D50000528306810D020F001003060306820F0A5
:100D600004003060A068B8B1FFF7F2FB00900FE01C
:100D7000306840F00100F4E740F004003060F7E72D
:100D8000FFF7E6FB0099411A41F28830814266D8AC
:100D900030688007F4D50EE0FFF7DAFB009007E03B
:100DA000FFF7D6FB0099411A41F28830814256D8AC
:100DB00030688007F4D42FB1DBF8001021F08051A7
:100DC000CBF80010A069C8B33D49091D0968C1F3FB
:100DD000810102294AD00228504607D0C8F8600095
:100DE00000E03CE0FFF7B4FB04463BE04746C8F8B0
:100DF0006000FFF7ADFB064605E000BFFFF7A8FB6C
:100E0000801B02282BD828688001F7D4D4E9070179
:100E10000843A16A2E4A490802EB0141626A41EA8D
:100E20008211084394F82C1040EA0161C9F80010BF
:100E300001203866FFF78CFB044606E03EE000BF69
:100E4000FFF786FB001B022809D828688001F7D528
:100E500034E000BFFFF77CFB001B022802D903200F
:100E6000BDE8F88F28688001F4D427E00128F7D086
:100E7000D9F80000E26900F4800191421CD1226A95
:100E800000F03F01914217D147F6C071626A0140FC
:100E9000B1EB821F10D1A26A4FF0FF3300F4403152
:100EA00003EB5202B1EB024F06D194F82C1000F084
:100EB0007060B0EB016F01D00120D1E70020CFE7D7
:100EC0000438024000004742800E47420070004054
:100ED0000000FFFF10B5401EB0F1807F01D301205C
:100EE00010BD4FF0E02460610F21601700F0F9FBA6
:100EF0000020A06107202061002010BD70B5040013
:100F000004D094F83D00002510B106E0012070BD2A
:100F100084F83C50204600F023F8242084F83D005B
:100F20002068C16821F40051C160204600F052FBE6
:100F30002068016921F4904101612068416921F034
:100F40002A0141612068C16841F40051C1602564F3
:100F5000202084F83D0084F83E00002070BD000091
:100F600010B586B0044614216846FFF775F9144998
:100F70002068884221D113480021026842F0100203
:100F80000260006800F0100005900E4814380268F6
:100F900042F001020260006800F0010005904FF489
:100FA000C06000900220CDE90101032003900720DA
:100FB000049069460448FFF7CDF906B010BD000063
:100FC000001001404438024000000240FEE7016882
:100FD0004A69D24352050FD46FF480624A610021FE
:100FE00040F8301F202242738173026942F00402EC
:100FF0000261017301207047002070472DE9F8431A
:10100000044600680D46DDE90897016898461646D3
:1010100041F4807101604B4600224FF001112046DF
:10102000009700F065F848B120680068C00502D557
:101030004FF4007020640320BDE8F883216805F0B8
:10104000FE0008613B464A461549204600F084F8F8
:1010500088B920684169806900903A46494620462F
:1010600000F0C5F848B1206C042804D1206801685C
:1010700041F4007101600120DEE7F5B2B8F1010F23
:1010800009D02168300A08613A464946204600F0F6
:10109000AEF80028E7D1206805610020CCE7000009
:1010A0000200010070B516460D4604460DE02046CC
:1010B000FFF78DFF08B1012070BD681C05D0FFF758
:1010C00047FA801BA84207D835B120684069C04361
:1010D0004007ECD4002070BD002044F8300F2021E0
:1010E0006173A073216941F0200121612073E2E75F
:1010F0002DE9F0471E4690460D460446C1F30747CA
:10110000DDF8209008E0701C06D0FFF721FAA0EB74
:101110000900B0420FD876B12068012F18D080693D
:1011200025EA00000004000C14D000214145EAD05B
:101130000020BDE8F087002044F8300F20216173C3
:10114000A073216941F02001216120730120F0E7A3
:101150004069E5E70121E9E72DE9F0479A46914624
:101160000E46044600254FF02008C1F3074725E04E
:1011700020684069C043400514D42068016841F4E8
:101180000071016021686FF480604861256384F814
:101190003D8084F83E50206C40F00400206484F8C8
:1011A0003C501FE0B9F1FF3F08D0FFF7D1F9A0EBA9
:1011B0000A0149450CD8B9F1000F09D02068012F68
:1011C00013D0806926EA00000004000C0BD0CFE7A2
:1011D00044F8305F84F80D80A573206940F020004A
:1011E000206125730120BDE8F0874069EAE770B50A
:1011F00016460D4604460DE02046FFF7E8FE08B10E
:10120000012070BD681C05D0FFF7A2F9801BA84221
:1012100007D835B120684069C0430006ECD40020EF
:1012200070BD002044F8300F20216173A073216944
:1012300041F0200121612073E2E7000030B587B062
:1012400014216846FFF708F819480024016841F0A6
:1012500080010160016801F080010591016841F0A1
:1012600001010160016801F001010591016841F08F
:1012700008010160016801F008010591016841F071
:101280000201016000680B4D00F002000590002291
:10129000C0212846FFF756F9C02000900120CDE973
:1012A0000104694628460394FFF754F807B030BD9F
:1012B00030380240000C02400D4810B50B49016067
:1012C0000C49416000214FF480428160C0E9031263
:1012D00041618161C1610162FFF740F9002803D0DB
:1012E000BDE81040FFF721B810BD000000540040D9
:1012F000D0010020A08601000C4810B50A49016009
:101300004FF4E1314160002181600C22C160C0E9ED
:1013100004128161C161FFF7F1FD002803D0BDE82F
:101320001040FFF702B810BD001001402402002059
:10133000FEE7FEE770B5002404F1B000C0B200F093
:10134000B1F8022000F0AEF8102000F0ABF8002554
:10135000002000F0B9F86D1CEDB2802DF8D3641CAC
:10136000E4B2082CE8D370BD10B58D2000F09AF8D7
:10137000142000F097F8BDE81040AF2000F092B8BC
:1013800010B5AE2000F08EF8002000F08BF8102091
:1013900000F088F8402000F085F8812000F082F805
:1013A000CF2000F07FF8A12000F07CF8C82000F0EA
:1013B00079F8A62000F076F8A82000F073F83F2016
:1013C00000F070F8D32000F06DF8002000F06AF80B
:1013D000D52000F067F8802000F064F8D92000F0F4
:1013E00061F8F12000F05EF8DA2000F05BF81220DE
:1013F00000F058F8DB2000F055F8402000F052F8DB
:10140000202000F04FF8022000F04CF88D2000F072
:1014100049F8142000F046F8A42000F043F8A62074
:1014200000F040F8FFF786FFBDE81040AF2000F065
:1014300039B810B50446B031C8B200F033F8102006
:1014400040EA141000F02EF804F00F00BDE8104040
:1014500040F0010000F026B82DE9F04115460E4697
:101460000746FFF7E6FF0E48002400EB8515285DD0
:1014700000F02AF8641CE4B2102CF8D3761CF1B208
:101480003846FFF7D6FF0024281990F8200000F016
:101490001BF8641CE4B2102CF6D3BDE8F081000008
:1014A0001000002001B584B001214FF4807204A81F
:1014B0008DE807000B46002278210248FFF712F959
:1014C00005B000BDD001002001B584B001214FF46A
:1014D000807204A88DE807000B464022782102485C
:1014E000FFF700F905B000BDD001002010B52E2097
:1014F000FFF7D8FF2720FFF7D5FF0020FFF7D2FF27
:101500000220FFF7CFFF0720FFF7CCFF0320FFF7F4
:10151000C9FF0020FFF7C6FFFF20FFF7C3FFBDE8AC
:1015200010402F20FFF7BEBF70477047FFF7A6B9E6
:1015300030B593B030216846FEF78EFE14210CA81A
:10154000FEF78AFE1D480025016841F080510160C8
:10155000006800F0805011901948016841F4804102
:1015600001600068022400F4804011900120009086
:10157000000401908001CDE9064008200890C020B9
:10158000CDE9090404200B906846FFF7EDFA08B195
:1015900072B6FEE70CA90F2081E831004FF4A0508D
:1015A0000F904FF48050109003210CA8FFF7F2F930
:1015B000002801D072B6FEE713B030BD40380240BB
:1015C000007000400248016841F4700101607047FA
:1015D00088ED00E070B5044600680169E26821F416
:1015E0004051114301612169A068E26908436169C2
:1015F000114308432168CA6849F20C639A430243C5
:10160000CA6020684169A26921F4407111434161B7
:1016100031492068884202D03049884202D1FFF720
:1016200063FA01E0FFF750FAE2690023192164250B
:101630003226B2F5004F626828D0A0FB0101930F5B
:101640009200FEF7BFFD0146B0FBF5F06FF0180207
:10165000504301EB800006EB0010B0FBF5F000F00A
:10166000F002B1FBF5F002EB0012B1FBF5F06FF008
:101670001803584301EB800006EB0010B0FBF5F0B7
:1016800000F00F0021681044886070BDA0FB0101CC
:1016900092185B41FEF796FD0146B0FBF5F00201A2
:1016A000B1FBF5F06FF01803584301EB800006EB37
:1016B000C000B0FBF5F000F0F80002EB4002B1FB17
:1016C000F5F0584301EB800006EBC000B0FBF5F0ED
:1016D00000F00700D6E700000010014000140140B0
:1016E000FEE70907090E002804DB00F1E02080F87E
:1016F0000014704700F00F0000F1E02080F8141D86
:10170000704702E008C8121F08C1002AFAD17047CA
:101710007047002001E001C1121F002AFBD1704771
:1017200086B0FFF7B3F8FFF703FFFFF787FDFFF77A
:10173000E3FDFFF7C1FD4FF4FA742046FEF7F8FD14
:10174000FFF712FE14220DA16846FEF76CFDFFF7AD
:1017500017FE2046FEF7ECFDFFF706FEFFF7EAFD59
:10176000002202211046FFF777FE012202211020FD
:10177000FFF772FEFFF7BAFEFEE7000068656C6CCB
:101780006F7720776F726C64202121212100000087
:101790000000000000000000010203040607080921
:1017A0000000000001020304C81700080000002028
:1017B000D0010000D002000888180008D0010020E5
:1017C0009804000012170008320182103324F41B21
:1017D000F010012AFF050215F01B0F04012AFF0576
:1017E00002130F18094040405F55555575041A5FA4
:1017F0000C091121080C11200F09498979090909DF
:101800000F201F112FFE02424ACA4A03041342024C
:10181000FE000E14FF40504C4340404F50505C407F
:10182000FF1BF888012AFF050215F81B1F08012A73
:101830007F200B109F80E23B808201000916E2A20C
:10184000928A86828080041840807F172424A4FE18
:10185000A3221B22CCAA011415080601FF2B0104A8
:10186000010511FF0202025808101010FF10900825
:10187000C3021108080F100444827F018080404396
:081880002C10284681A0000095
:040000050800018965
:00000001FF
