:020000040800F2
:1000000070040020A1010008D31100086911000844
:10001000D1110008AD02000885150008000000009D
:10002000000000000000000000000000D7110008E0
:10003000AF02000800000000D5110008D911000827
:10004000BB010008BB010008BB010008BB010008A0
:10005000BB010008BB010008BB010008BB01000890
:10006000BB010008BB010008BB010008BB01000880
:10007000BB010008BB010008BB010008BB01000870
:10008000BB010008BB010008BB010008BB01000860
:10009000BB010008BB010008BB010008BB01000850
:1000A000BB010008BB010008BB010008BB01000840
:1000B000BB010008BB010008BB010008BB01000830
:1000C000BB010008BB010008BB010008BB01000820
:1000D000BB01000865150008BB010008BB01000852
:1000E000BB010008BB010008BB010008BB01000800
:1000F000BB010008BB010008BB010008BB010008F0
:10010000BB010008BB010008BB010008BB010008DF
:10011000BB010008BB010008BB010008BB010008CF
:10012000BB010008BB010008BB010008BB010008BF
:10013000BB010008BB010008BB010008BB010008AF
:10014000BB010008BB010008BB010008BB0100089F
:10015000BB010008BB010008BB010008BB0100088F
:10016000BB010008BB010008BB010008BB0100087F
:10017000BB010008BB010008BB0100080000000033
:10018000BB010008BB010008DFF810D000F07CF8CC
:1001900000480047B9180008AFF300807004002041
:1001A0000648804706480047FEE7FEE7FEE7FEE711
:1001B000FEE7FEE7FEE7FEE7FEE7FEE77512000852
:1001C000890100082DE9F05F0546002092469B4614
:1001D00088460646814640241BE02846414647465D
:1001E000224600F041F853465A46C01A914110D3B6
:1001F00011461846224600F028F82D1A67EB010830
:100200004F4622460120002100F01FF817EB00099D
:100210004E41201EA4F10104DFDC484631462A4647
:100220004346BDE8F09FD2B201E000F8012B491E21
:10023000FBD270470022F6E710B513460A46044683
:100240001946FFF7F0FF204610BD202A04DB203AB4
:1002500000FA02F1002070479140C2F1200320FA19
:1002600003F3194390407047202A04DB203A21FA17
:1002700002F00021704721FA02F3D040C2F12002BF
:100280009140084319467047064C074D06E0E06868
:1002900040F0010394E8070098471034AC42F6D3CD
:1002A000FFF776FFF818000818190008FEE77047F6
:1002B00072B6FEE72DE9F0410446876D00F04EF975
:1002C000064694F835000025022806D08020606597
:1002D00084F834500120BDE8F0812068016821F0E5
:1002E000160101602068416921F080014161206CA4
:1002F00008B9A06C20B12068016821F008010160F4
:100300002068016821F0010101600CE000F026F98D
:10031000801B052807D920206065032084F835005C
:1003200084F83450D7E720680068C007EED194F80D
:100330005C103F208840B860012084F8350084F8C4
:1003400034500020C7E790F83510022903D08021EF
:10035000416501207047052180F83510006801686B
:1003600021F0010101600020704700002DE9F84FE5
:10037000DFF8BCA10022012503264FF00F090AF186
:10038000040BAAF1040E00BF0B6805FA02F4234027
:10039000A34270D10F7907F00307012F01D0022F7C
:1003A00016D187684FEA420806FA08FC27EA0C07CC
:1003B000D1F80CC00CFA08FC4CEA070CC0F808C0D5
:1003C0004768A7430C79C4F3001494403C4344604D
:1003D0000C79E443A4070AD0C4684FEA420C06FA39
:1003E0000CF7BC438F6807FA0CF72743C7600C79FA
:1003F00004F00304022C12D1D40800EB840CDCF8C6
:1004000020405707FF0E09FA07F824EA0804D1F83C
:10041000108008FA07F848EA0408CCF8208004683D
:100420004FEA420C06FA0CF7BC430F7907F00307BA
:1004300007FA0CF7274307604C6814F4403F70D06C
:100440003C4C276847F480472760246822F0030764
:1004500004F480440094384C07EB040CDCF80848A2
:1004600097074FEA177809FA08F7BC43334FB842A9
:1004700002D1002724E054E0314FB84201D10127D6
:100480001EE0304FB84201D1022719E02E4FB8428A
:1004900001D1032714E02D4FB84201D104270FE00A
:1004A0002B4FB84201D105270AE02A4FB84201D1AB
:1004B000062705E0284FB84201D1072700E00827AA
:1004C00007FA08F72743CCF80878DAF800405746CF
:1004D000D1F804C09C435FEACC2C00D51C433C609F
:1004E000DBF800405F46D1F804C09C435FEA8C2CE7
:1004F00000D51C433C60DEF800407746D1F804C0CC
:100500009C435FEA8C3C00D51C433C60084F083F8D
:100510003C68D1F804C09C435FEACC3C00D51C4346
:100520003C60521C102AFFF42FAFBDE8F88F00008A
:10053000083C0140443802400030014000000240C5
:100540000004024000080240000C0240001002407B
:100550000014024000180240001C0240014880685C
:1005600070470000040000200248816802781144AE
:1005700081607047040000200B4810B5016841F409
:1005800000710160016841F480610160016841F41B
:1005900080710160032000F071F8002000F006F87F
:1005A00000F024F8002010BD003C024070B50D4D55
:1005B00004464FF47A712878B1FBF0F00A490968D3
:1005C000B1FBF0F000F00CFB48B9102C07D2002270
:1005D0002146501E00F032F800206C6070BD0120F2
:1005E00070BD000004000020100000200B4882B005
:1005F000016841F480410160006800F4804000908F
:100600000648001F016841F080510160006800F059
:1006100080500090052002B000F030B8443802400D
:10062000002809DB00F01F020121914040098000F1
:1006300000F1E020C0F8001170470000F0B40E4B4C
:100640001B680C46C3F30223C3F10705042D00D930
:100650000425191D072901D2002300E0DB1E012615
:1006600006FA05F1491E214099409E40761E16402B
:100670003143F0BC00F098BF0CED00E0064900F0FB
:10068000070208684FF6FF03184040EA0220034AB9
:1006900010430860704700000CED00E00000FA0510
:1006A0002DE9F0470E46050065D0DFF81481D8F833
:1006B0000000F7B200F00700B04207D288F80070DF
:1006C000D8F8000000F00700B04254D128683D4C33
:1006D000810712D5400703D5206840F4E050206020
:1006E0002878000703D5206840F460402060206827
:1006F000A96820F0F000084320602878C0072DD0BA
:10070000304968680839012812D0022813D003281C
:1007100011D00968890700292DDA216821F0030129
:1007200001432160FFF71AFF814641F2883A0EE04B
:1007300009688903EFE709688901ECE7FFF70EFF15
:10074000A0EB0901514502D90320BDE8F0872068DC
:10075000696800F00C00B0EB810FEFD1D8F8001001
:10076000404601F00701B14207D90770006800F068
:100770000700B04201D00120E7E72878400705D5FF
:100780002068E96820F4E0500843206028780007DA
:1007900006D52068296920F4604040EAC100206045
:1007A00000F038F82168084AC1F30311515CC840D1
:1007B0000649086006480068FFF7F8FE0020C4E715
:1007C000003C024008380240E018000810000020F9
:1007D000080000200448054900680968044AC1F37C
:1007E0008221515CC8407047100000200838024048
:1007F000F01800080448054900680968044AC1F374
:100800004231515CC8407047100000200838024057
:10081000F0180008154810B5006810F00C021448D4
:1008200013D04110042A0FD0082A0ED10F4C241FD8
:100830002268236802F03F025B0207D52068C0F3FC
:100840008810A0FB010106E0084610BD2168C1F335
:100850008811A1FB00010023FFF7B4FC2168C1F35C
:100860000141491C4900B0FBF1F010BD08380240BD
:100870000024F4002DE9F84F04006ED02078DFF852
:100880004C93C007A9F104054AD009F1040001689E
:10089000C1F38101012908D00068C0F3810002285A
:1008A0000AD1D9F80000400206D52868800337D560
:1008B00060680028E1D033E06068B0F5803F10D078
:1008C000B0F5A02F286810D020F480302860286868
:1008D00020F4802028606068A8B1FFF73FFE06463C
:1008E0000DE0286840F48030F4E740F48020286070
:1008F000F7E700BFFFF732FE801B642873D8286833
:100900008003F7D50CE0FFF729FE064605E000BF9F
:10091000FFF724FE801B6428F0D828688003F7D4F2
:100920002078DFF8AC8280074FF0000A3ED5A74858
:10093000001D016811F00C0F08D00068C0F38100A1
:1009400002280BD1D9F80000400207D4286880079C
:1009500016D5E068012800D112E033E1E068B8B1B3
:100960000120C8F80000FFF7F9FD064605E000BFCA
:10097000FFF7F4FD801B0228C0D828688007F7D550
:100980002868216920F0F80040EAC10028600DE0E5
:10099000C8F800A0FFF7E2FD064604E0FFF7DEFD21
:1009A000801B02281FD828688007F7D4207800070A
:1009B00022D5864F87486169703771B10121016086
:1009C000FFF7CCFD064604E0FFF7C8FD801B0228B8
:1009D00009D838688007F7D50EE0C0F800A0FFF707
:1009E000BDFD064605E082E0FFF7B8FD801B02284A
:1009F0007DD838688007F7D42078400768D5DFF8BD
:100A0000CCB100270BF13C0BDBF80000C0000BD48D
:100A1000DBF8001041F08051CBF80010DBF800004B
:100A2000012700F0805000906B4E3068C00510D454
:100A3000306840F480703060FFF790FD009005E072
:100A4000FFF78CFD0099401A022850D83068C00585
:100A5000F6D55E4EA0686C3601280FD005283068A8
:100A600010D020F001003060306820F004003060C9
:100A7000A068B8B1FFF772FD00900FE0306840F059
:100A80000100F4E740F004003060F7E7FFF766FD8F
:100A90000099411A41F28830814266D83068800757
:100AA000F4D50EE0FFF75AFD009007E0FFF756FD82
:100AB0000099411A41F28830814256D83068800747
:100AC000F4D42FB1DBF8001021F08051CBF80010E6
:100AD000A069C8B33D49091D0968C1F38101022914
:100AE0004AD00228504607D0C8F8600000E03CE039
:100AF000FFF734FD04463BE04746C8F86000FFF7C7
:100B00002DFD064605E000BFFFF728FD801B0228EB
:100B10002BD828688001F7D4D4E907010843A16ADB
:100B20002E4A490802EB0141626A41EA82110843F8
:100B300094F82C1040EA0161C9F8001001203866D1
:100B4000FFF70CFD044606E03EE000BFFFF706FDA0
:100B5000001B022809D828688001F7D534E000BFBF
:100B6000FFF7FCFC001B022802D90320BDE8F88F28
:100B700028688001F4D427E00128F7D0D9F80000D4
:100B8000E26900F4800191421CD1226A00F03F0129
:100B9000914217D147F6C071626A0140B1EB821FE2
:100BA00010D1A26A4FF0FF3300F4403103EB520240
:100BB000B1EB024F06D194F82C1000F07060B0EB4E
:100BC000016F01D00120D1E70020CFE704380240B7
:100BD00000004742800E4742007000400000FFFFC7
:100BE00010B5401EB0F1807F01D3012010BD4FF041
:100BF000E02460610F21601700F0D6FC0020A061A6
:100C000007202061002010BD70477047F8B50168CB
:100C100004460868CA684B6910F00F0F4FF00005D2
:100C200059D003F0010602F49077374365D0C1072D
:100C300005D0D10503D5216C41F0010121644107A4
:100C400005D5D90703D0216C41F002012164810749
:100C500005D5D90703D0216C41F0040121640107B7
:100C600007D502F02001314303D0216C41F0080187
:100C70002164216C00293AD0800604D5900602D563
:100C8000204600F02EFB20684069216CC0F38010E4
:100C9000090700D460B3204600F0FCFA20684069E0
:100CA000400621D52068143050E8001F21F0400193
:100CB00040E80012002AF5D1A06BA8B16C4901658B
:100CC000A06BFFF740FB002811D0A06B016D01B0B5
:100CD000BDE8F040084783060FD593060DD52046A2
:100CE000BDE8F84000F0FDBA2046FFF78EFFF8BDE2
:100CF0002046FFF78AFF2564F8BD266B2023012ECE
:100D000079D1C60677D5D60675D5086848680090AB
:100D10004869400640D5A16B086840680004000C93
:100D2000EAD0A28D8242E7D9E085C869B0F5807F1C
:100D30002DD020680C3050E8001F21F4807140E86D
:100D40000012002AF5D12068143050E8001F21F06D
:100D5000010140E80012002AF5D12068143050E863
:100D6000001F21F0400140E80012002AF5D184F86C
:100D70003E30256320680C3050E8001F21F0100140
:100D800040E80012002AF5D1A06BFFF793FAA08D7E
:100D9000E18D401A81B229E0A08DE18D401A81B227
:100DA000E08D0028A8D00029A6D020680C3050E89B
:100DB000002F22F4907240E80026002EF5D1206822
:100DC000143050E8002F22F0010240E80026002EE7
:100DD000F5D184F83E30256320680C3050E8002FB0
:100DE00022F0100240E80023002BF5D12046FFF747
:100DF0000BFFF8BDFFE705062BD5150629D594F89E
:100E00003D002128F5D1A068B0F5805F01D12069AF
:100E1000B0B1206A411C2162216800784860E08CF2
:100E2000401E0004000CE084E3D12068C16821F07A
:100E30008001C1602068C16841F04001C160D8E70D
:100E4000206A0088C0F308004860206A801C206285
:100E5000E5E74006CDD55006CBD5CA68204622F03E
:100E60004002CA6084F83D3000F07DF9C1E700001F
:100E70008512000870B5040004D094F83D000025E8
:100E800010B106E0012070BD84F83C50204600F00F
:100E900023F8242084F83D002068C16821F4005123
:100EA000C160204600F07EFA2068016921F490417B
:100EB00001612068416921F02A0141612068C1680F
:100EC00041F40051C1602564202084F83D0084F87D
:100ED0003E00002070BD000010B586B0044614210D
:100EE0006846FFF7A7F91A49206888422ED11948A9
:100EF0000021026842F010020260006800F0100059
:100F0000059014481438026842F00102026000683B
:100F100000F0010005904FF4C06000900220CDE980
:100F20000101032003900720049069460A48FFF757
:100F30001DFA022211462520FFF780FB2520FFF72E
:100F40006FFB2068C16841F02001C16006B010BD90
:100F500000100140443802400000024090F83E304A
:100F6000202B0ED159B152B190F83C30012B08D052
:100F7000012380F83C300023036300F099BA01207C
:100F800070470220704700002DE9F04100682449B5
:100F9000884243D164230D222249234800F08AF875
:100FA000204C0026214D2078FE2815D02E700D22D1
:100FB00029781FA000F0E8FA4FF0FE373A4622A049
:100FC000216800F0E1FA217BEE2225A000F0DCFA96
:100FD00028780D2804D017E02878401C2870E6E710
:100FE0003A4625A0216800F0CFFA2068B8420AD11D
:100FF000217BEE2224A000F0C7FA207BEE2802D14C
:1010000027A000F0C1FA2E7027A000F0BDFABDE8BD
:10101000F0410D2203490448FFF7A0BFBDE8F0816D
:10102000001001405C00002018000020000000209B
:1010300052636F756E74202025642C74617267652D
:1010400074202025640A0000494E544552555054DE
:10105000204C4F4F4B2025782C2578200A0000008B
:10106000494E544552555054204C4F4F4B454E44D9
:101070002025782C25780A00494E54455255505465
:101080002025782C25780A00494E54455255505455
:10109000656E64656E642025782C25780A00000052
:1010A000B2D9D7F70A0000005245562044415441B6
:1010B0003A200A002DE9F843044690F83D001F4607
:1010C00016460D4620284CD1C5B1BEB194F83C005F
:1010D000012846D0012084F83C004FF00008C4F8F5
:1010E0004080212084F83D00FFF738FAA68481462D
:1010F000E684A068B0F5805F03D004E00120BDE87D
:10110000F883206928B12E465FF0000584F83C8002
:101110000EE00026FAE78021204600F0E6F9A0B9AB
:10112000AEB116F8010B21684860E08C401EE084E7
:10113000E08C4B464FF0000200970028EBD14FF0B7
:101140004001204600F0D1F930B10320D7E735F84F
:10115000020BC0F30800E6E7202084F83D000020E1
:10116000CDE70220CBE77047FEE70000094808B54D
:10117000016841F080010160016801F08001009187
:10118000016841F001010160006800F00100009079
:1011900008BD0000303802400C4810B50A49016013
:1011A0004FF4E1314160002181600C22C160C0E94F
:1011B00004128161C161FFF75DFE002803D0BDE824
:1011C0001040FFF775B810BD001001401800002056
:1011D000FEE7FEE770477047FFF7C6B930B593B03A
:1011E00030216846FFF726F814210CA8FFF722F8F3
:1011F0001E480025016841F080510160006800F040
:10120000805011901A48016841F4804101600068E3
:10121000022400F48040119001200090000401900D
:101220008001CDE90640082008904FF4A870CDE970
:10123000090404200B906846FFF71CFB08B172B646
:10124000FEE70CA90F2081E831004FF4A0500F9069
:101250004FF48050109005210CA8FFF721FA0028C8
:1012600001D072B6FEE713B030BD00004038024036
:10127000007000400248016841F47001016070474D
:1012800088ED00E010B5806B0021C185C184FFF7B7
:10129000BCFC10BD01680C3151E8002F22F49072A3
:1012A00041E80023002BF5D10168143151E8002FEB
:1012B00022F0010241E80023002BF5D1016B012946
:1012C00009D101680C3151E8002F22F0100241E8E9
:1012D0000023002BF5D1202180F83E10002101636E
:1012E000704708B590F83E10222901D0022008BDB1
:1012F00082684FF480539A4201D1016921B1816A19
:101300009A421BD04AB10AE00268816A5268C2F36D
:1013100008020A80816A891C08E0026972B10268C9
:10132000526802F07F020A70816A491C8162C18D95
:10133000491E0904090CC18503D019E002685268EE
:10134000F1E70168CA6822F02002CA600168CA6831
:1013500022F48072CA6001684A6922F001024A617F
:10136000202180F83E10016B012903D0FFF70CFE0D
:10137000002008BD0021016301680C3151E8002FF5
:1013800022F0100241E80023002BF5D101680A6821
:10139000D20602D50A6849680091818DFFF734FCB6
:1013A000E6E7000070B5044600680169E26821F4D0
:1013B0004051114301612169A068E26908436169F4
:1013C000114308432168CA6849F20C639A430243F7
:1013D000CA6020684169A26921F4407111434161EA
:1013E00031492068884202D03049884202D1FFF753
:1013F00001FA01E0FFF7EEF9E26900231921642503
:101400003226B2F5004F626828D0A0FB0101930F8D
:101410009200FEF7D7FE0146B0FBF5F06FF0180220
:10142000504301EB800006EB0010B0FBF5F000F03C
:10143000F002B1FBF5F002EB0012B1FBF5F06FF03A
:101440001803584301EB800006EB0010B0FBF5F0E9
:1014500000F00F0021681044886070BDA0FB0101FE
:1014600092185B41FEF7AEFE0146B0FBF5F00201BB
:10147000B1FBF5F06FF01803584301EB800006EB69
:10148000C000B0FBF5F000F0F80002EB4002B1FB49
:10149000F5F0584301EB800006EBC000B0FBF5F01F
:1014A00000F00700D6E700000010014000140140E2
:1014B00081628285C28500210164222280F83E205B
:1014C00080F83C10016921B10168CA6842F4807259
:1014D000CA6001684A6942F001024A610068C16855
:1014E00041F02001C160002070472DE9F04198468D
:1014F00017460E460446069D27E0681C25D02DB1F0
:10150000FFF72CF8A0EB0800A8421ED920680C3089
:1015100050E8001F21F4D07140E80012002AF5D1F4
:101520002068143050E8001F21F0010140E800124B
:10153000002AF5D1202084F83D0084F83E000020E8
:1015400084F83C000320BDE8F0812068006836EA9A
:10155000000004D00020B842CFD00020F3E70120E3
:10156000F9E7000010B50D2204490548FFF7F6FC25
:10157000BDE810400248FFF749BB00005C000020B6
:1015800018000020FEE700000FB4054B10B503A9BA
:10159000044A029800F028F810BC5DF814FB000023
:1015A000A9180008140000200907090E002804DB10
:1015B00000F1E02080F80014704700F00F0000F107
:1015C000E02080F8141D704702E008C8121F08C10F
:1015D000002AFAD170477047002001E001C1121FB4
:1015E000002AFBD1704700002DE9FF4F8DB09B46CC
:1015F0000F460446002606E025280BD05A460F99D0
:101600009047641C761C20780028F5D111B0304634
:10161000BDE8F08F0025A8460122984900E0054367
:1016200014F8013F203B02FA03F00842F7D120787A
:101630002E2817D114F8010F45F004052A280ED0E2
:101640006FF02F022078A0F1300109290AD808EBA9
:10165000880102EB410100EB0108641CF2E757F836
:10166000048B641C20786C280DD004DC4C2812D02C
:101670006A2811D104E074280DD07A280CD10AE030
:1016800045F4001507E0617845F48015814202D1E8
:10169000641C05F58015641C2078692844D008DC9A
:1016A0000028B3D0582867D063280FD0642808D109
:1016B0003AE0702865D0732812D075285AD078285F
:1016C0005AD05A460F999047761CD5E017F8040B6C
:1016D0008DF8000000208DF80100E946012003E0AC
:1016E00057F8049B4FF0FF3069074FF0000501D415
:1016F0000AE06D1C45450DDA8542FADB19F8051044
:101700000029F6D106E06D1C8542FCDB19F80510B6
:101710000029F8D12E4404E019F8010B5A460F991C
:1017200090476D1EF8D2A7E00A200021CDE90801FC
:10173000C5F3025002280CD001CFC117021E71F16F
:1017400000020CDA0023D0EB030063EB01012D2231
:1017500008E0FF1D27F00707F7E80201EEE72A057A
:1017600004D52B228DF8282001223CE0EA073AD04C
:101770002022F7E70A2000E010200021CDE908012F
:1017800007E01020002145F00405CDE908014FF0E5
:101790000808C5F30250022810D001CF00214FF0F5
:1017A000000A2A0720D52278702A0DD0DDE908C367
:1017B0008CF0100C5CEA030C0CD015E0FF1D27F038
:1017C0000707F7E80201EAE740228DF828204FF0EA
:1017D000010A0CE050EA010306D030238DF82830CE
:1017E0008DF82920022292462278582A04D024A279
:1017F0000DF120090B9209E026A2F9E7DDE90823A3
:10180000FEF7E0FC0B9B9B5C09F8013D50EA0102EE
:10181000F4D1ADEB090020300890680701D44FF0F7
:1018200001080899884503DD0898A8EB000000E04E
:1018300000208046002506E00AA85A46405D0F9920
:1018400090476D1C761C5545F6DB04E030205A4667
:101850000F999047761CB8F10001A8F10108F5DC5A
:1018600005E019F8010B5A460F999047761C089924
:10187000481E08900029F4DC641CC4E60928010015
:1018800030313233343536373839616263646566F6
:1018900000000000303132333435363738394142B8
:1018A000434445460000000002490A681206FCD580
:1018B0004860704700100140FEF75EFEFFF78EFCA7
:1018C000FFF754FCFFF768FC01A0FFF75DFEFEE7A1
:1018D000696E7465727570742073746172740A0035
:1018E00000000000000000000102030406070809D0
:1018F0000000000001020304181900080000002085
:1019000018000000C8150008301900081800002051
:1019100058040000D8150008000000000100000075
:1019200010000000000000000024F400000000008F
:040000050800018965
:00000001FF
