:020000040800F2
:10000000C806002029020008C31200081F0F0008BC
:10001000C11200081F040008E514000800000000D9
:10002000000000000000000000000000351400087F
:100030002104000800000000C51200083714000861
:10004000430200084302000843020008430200087C
:10005000430200084302000843020008430200086C
:10006000430200084302000843020008430200085C
:10007000430200084302000843020008430200084C
:10008000430200084302000843020008430200083C
:10009000430200084302000843020008430200082C
:1000A000430200084302000843020008430200081C
:1000B000430200084302000843020008430200080C
:1000C00043020008430200084302000843020008FC
:1000D00043020008430200084302000843020008EC
:1000E00043020008430200084302000843020008DC
:1000F00043020008430200084302000843020008CC
:1001000043020008430200084302000843020008BB
:1001100043020008430200084302000843020008AB
:10012000430200084302000843020008430200089B
:10013000430200084302000843020008430200088B
:10014000430200084302000843020008430200087B
:10015000430200084302000843020008430200086B
:10016000430200084302000843020008430200085B
:100170004302000843020008430200080000000098
:10018000430200084302000800F002F800F03CF8C7
:100190000AA090E8000C82448344AAF10107DA45E2
:1001A00001D100F031F8AFF2090EBAE80F0013F0F8
:1001B000010F18BFFB1A43F0010318477420000019
:1001C00094200000103A24BF78C878C1FAD85207AA
:1001D00024BF30C830C144BF04680C6070470000C1
:1001E0000023002400250026103A28BF78C1FBD840
:1001F000520728BF30C148BF0B6070471FB501F0E0
:10020000C9F91FBD10B510BD00F0CFF81146FFF7BA
:10021000F5FF01F078F900F0EDF803B4FFF7F2FF15
:1002200003BC00F0F5F80000094880470948004782
:10023000FEE7FEE7FEE7FEE7FEE7FEE7FEE7FEE796
:10024000FEE7FEE704480549054A064B70470000F3
:10025000D514000889010008C8000020C806002045
:10026000C8020020C802002053EA020C00F0698096
:100270002DE9F04B4FF00006002B1FBFB3FA83F5BA
:1002800003FA05F424FA05F65E4012BF1643B2FAEB
:1002900082F502FA05F4C5F120051EBF22FA05FC1D
:1002A00044EA0C04203556EA044C4FEA144418BFC3
:1002B000641C4FF000084FF00009904271EB030CF2
:1002C00039D3002919BFB1FA81F701FA07F6B0FA5C
:1002D00080F700FA07F6C7F120071EBF20FA07FCD7
:1002E00046EA0C062037B6FBF4FCA7EB0507103FE7
:1002F00007F01F0BCBF120060CFA0BFB2CFA06F6CD
:1003000044BFB3460026202FA4BF5E464FF0000B2B
:100310005BEA060C08BF4FF0010B19EB0B09ABFBB6
:10032000027C48EB0608C01B06FB02CC0BFB03CC8F
:1003300071EB0C01C1E70B46024641464846BDE859
:10034000F08B13B54FF000004FF00001AFF30080C9
:10035000BDE81C4070474FF0000200B513469446BC
:100360009646203922BFA0E80C50A0E80C50B1F10D
:100370002001BFF4F7AF090728BFA0E80C5048BF21
:100380000CC05DF804EB890028BF40F8042B08BFBF
:10039000704748BF20F8022B11F0804F18BF00F8BB
:1003A000012B7047704770477047754600F02CF876
:1003B000AE4605006946534620F00700854618B052
:1003C00020B5FFF73FFFBDE820404FF000064FF09B
:1003D00000074FF000084FF0000B21F00701AC467A
:1003E000ACE8C009ACE8C009ACE8C009ACE8C00999
:1003F0008D46704710B50446AFF300802046BDE837
:100400001040FFF70ABF0000004870476800002056
:1004100001491820ABBEFEE7260002007047FEE748
:10042000704772B6FEE7000070B5044600F00CF9A4
:100430000546601C02D004480078044400F004F92A
:10044000401BA042FAD370BD000000202DE9F84FF8
:10045000DFF8BCA10022012503264FF00F090AF1A5
:10046000040BAAF1040E00BF0B6805FA02F4234046
:10047000A34270D10F7907F00307012F01D0022F9B
:1004800016D187684FEA420806FA08FC27EA0C07EB
:10049000D1F80CC00CFA08FC4CEA070CC0F808C0F4
:1004A0004768A7430C79C4F3001494403C4344606C
:1004B0000C79E443A4070AD0C4684FEA420C06FA58
:1004C0000CF7BC438F6807FA0CF72743C7600C7919
:1004D00004F00304022C12D1D40800EB840CDCF8E5
:1004E00020405707FF0E09FA07F824EA0804D1F85C
:1004F000108008FA07F848EA0408CCF8208004685D
:100500004FEA420C06FA0CF7BC430F7907F00307D9
:1005100007FA0CF7274307604C6814F4403F70D08B
:100520003C4C276847F480472760246822F0030783
:1005300004F480440094384C07EB040CDCF80848C1
:1005400097074FEA177809FA08F7BC43334FB842C8
:1005500002D1002724E054E0314FB84201D10127F5
:100560001EE0304FB84201D1022719E02E4FB842A9
:1005700001D1032714E02D4FB84201D104270FE029
:100580002B4FB84201D105270AE02A4FB84201D1CA
:10059000062705E0284FB84201D1072700E00827C9
:1005A00007FA08F72743CCF80878DAF800405746EE
:1005B000D1F804C09C435FEACC2C00D51C433C60BE
:1005C000DBF800405F46D1F804C09C435FEA8C2C06
:1005D00000D51C433C60DEF800407746D1F804C0EB
:1005E0009C435FEA8C3C00D51C433C60084F083FAD
:1005F0003C68D1F804C09C435FEACC3C00D51C4366
:100600003C60521C102AFFF42FAFBDE8F88F0000A9
:10061000083C0140443802400030014000000240E4
:100620000004024000080240000C0240001002409A
:100630000014024000180240001C02400AB181610F
:1006400070470904FBE7000001488068704700001C
:1006500000000020024881680278114481607047E0
:10066000000000200B4810B5016841F400710160E2
:10067000016841F480610160016841F480710160AA
:10068000032000F061F80F2000F006F800F024F8D5
:10069000002010BD003C024070B50D4D04464FF4E3
:1006A0007A712878B1FBF0F00A490968B1FBF0F0E3
:1006B00000F021FC48B9102C07D200222146501E20
:1006C00000F022F800206C6070BD012070BD0000B9
:1006D000000000200C0000200A4808B5016841F421
:1006E00080410160006800F4804000900548001FD0
:1006F000016841F080510160006800F08050009076
:1007000008BD000044380240F0B40E4B1B680C4694
:10071000C3F30223C3F10705042D00D90425191DD5
:10072000072901D2002300E0DB1E012606FA05F1AD
:10073000491E214099409E40761E16403143F0BC30
:1007400000F0D1BE0CED00E0064900F00702086899
:100750004FF6FF03184040EA0220034A10430860A6
:10076000704700000CED00E00000FA052DE9F047AD
:100770000E46050065D0DFF81481D8F80000F7B206
:1007800000F00700B04207D288F80070D8F80000E7
:1007900000F00700B04254D128683D4C810712D5C3
:1007A000400703D5206840F4E05020602878000717
:1007B00003D5206840F4604020602068A96820F0DC
:1007C000F000084320602878C0072DD030496868C1
:1007D0000839012812D0022813D0032811D0096843
:1007E000890700292DDA216821F0030101432160E6
:1007F000FFF72AFF814641F2883A0EE00968890333
:10080000EFE709688901ECE7FFF71EFFA0EB09019C
:10081000514502D90320BDE8F0872068696800F0DF
:100820000C00B0EB810FEFD1D8F80010404601F07A
:100830000701B14207D90770006800F00700B04215
:1008400001D00120E7E72878400705D52068E9684E
:1008500020F4E050084320602878000706D520687F
:10086000296920F4604040EAC100206000F018F8D7
:100870002168084AC1F30311515CC8400649086069
:1008800006480068FFF708FF0020C4E7003C02406C
:10089000083802401E2200080C000020040000203E
:1008A000154810B5006810F00C02144813D0411020
:1008B000042A0FD0082A0ED10F4C241F2268236867
:1008C00002F03F025B0207D52068C0F38810A0FB4E
:1008D000010106E0084610BD2168C1F38811A1FBA3
:1008E00000010023FFF7C0FC2168C1F30141491C4E
:1008F0004900B0FBF1F010BD083802400024F400BC
:100900002DE9F84F04006ED02078DFF84C93C00733
:10091000A9F104054AD009F104000168C1F381017D
:10092000012908D00068C0F3810002280AD1D9F853
:100930000000400206D52868800337D5606800288B
:10094000E1D033E06068B0F5803F10D0B0F5A02F63
:10095000286810D020F480302860286820F4802097
:1009600028606068A8B1FFF76FFE06460DE02868B2
:1009700040F48030F4E740F480202860F7E700BFBF
:10098000FFF762FE801B642873D828688003F7D5C0
:100990000CE0FFF759FE064605E000BFFFF754FEE6
:1009A000801B6428F0D828688003F7D42078DFF80B
:1009B000AC8280074FF0000A3ED5A748001D0168B1
:1009C00011F00C0F08D00068C0F3810002280BD191
:1009D000D9F80000400207D42868800716D5E068DF
:1009E000012800D112E033E1E068B8B10120C8F875
:1009F0000000FFF729FE064605E000BFFFF724FED2
:100A0000801B0228C0D828688007F7D5286821698C
:100A100020F0F80040EAC10028600DE0C8F800A00E
:100A2000FFF712FE064604E0FFF70EFE801B0228C9
:100A30001FD828688007F7D42078000722D5864F72
:100A400087486169703771B101210160FFF7FCFDD2
:100A5000064604E0FFF7F8FD801B022809D8386835
:100A60008007F7D50EE0C0F800A0FFF7EDFD0646C1
:100A700005E082E0FFF7E8FD801B02287DD838689A
:100A80008007F7D42078400768D5DFF8CCB100277D
:100A90000BF13C0BDBF80000C0000BD4DBF80010BE
:100AA00041F08051CBF80010DBF80000012700F086
:100AB000805000906B4E3068C00510D4306840F410
:100AC00080703060FFF7C0FD009005E0FFF7BCFDCF
:100AD0000099401A022850D83068C005F6D55E4EFD
:100AE000A0686C3601280FD00528306810D020F09F
:100AF00001003060306820F004003060A068B8B1B8
:100B0000FFF7A2FD00900FE0306840F00100F4E72D
:100B100040F004003060F7E7FFF796FD0099411AB6
:100B200041F28830814266D830688007F4D50EE003
:100B3000FFF78AFD009007E0FFF786FD0099411A54
:100B400041F28830814256D830688007F4D42FB102
:100B5000DBF8001021F08051CBF80010A069C8B379
:100B60003D49091D0968C1F3810102294AD00228C3
:100B7000504607D0C8F8600000E03CE0FFF764FD95
:100B800004463BE04746C8F86000FFF75DFD0646B7
:100B900005E000BFFFF758FD801B02282BD828680E
:100BA0008001F7D4D4E907010843A16A2E4A490815
:100BB00002EB0141626A41EA8211084394F82C1069
:100BC00040EA0161C9F8001001203866FFF73CFDDA
:100BD000044606E03EE000BFFFF736FD001B02289A
:100BE00009D828688001F7D534E000BFFFF72CFD55
:100BF000001B022802D90320BDE8F88F2868800175
:100C0000F4D427E00128F7D0D9F80000E26900F415
:100C1000800191421CD1226A00F03F01914217D11C
:100C200047F6C071626A0140B1EB821F10D1A26A1F
:100C30004FF0FF3300F4403103EB5202B1EB024FAF
:100C400006D194F82C1000F07060B0EB016F01D069
:100C50000120D1E70020CFE70438024000004742DE
:100C6000800E4742007000400000FFFF70B5040096
:100C700009D0606A002540B125616561A56294F8DC
:100C8000510040B10CE0012070BD6068B0F5827F7A
:100C9000F4D0E561F2E784F85050204600F044F8C3
:100CA000022084F851002068016821F040010160B1
:100CB000A088218900F4827001F404410843A189CD
:100CC00001F400610843217C01F002010843217D09
:100CD00001F001010843218B01F400710843217FD9
:100CE00001F03801084394F8201001F08001084316
:100CF000218D01F40051084321680860A069042196
:100D000001EA104094F8241001F010010843216812
:100D100048602068C16921F40061C16165650120F6
:100D200084F85100002070BD10B586B0044614212F
:100D30006846FFF710FB13492068884220D112480B
:100D40000021026842F480520260006800F4805082
:100D500005900D481438026842F0010202600068F4
:100D600000F001000590E02000900220CDE9010193
:100D7000032003900520049069460448FFF766FBB2
:100D800006B010BD0030014044380240000002406F
:100D90002DE9F84F044690F8500000271D461646EE
:100DA000894601280DD04FF0010B84F850B0FFF7B1
:100DB0004BFC804694F85100BA46012804D0022723
:100DC00093E00220BDE8F88FB9F1000F73D0002E38
:100DD00071D0032084F85100C4F854A0C4F83090B6
:100DE000A686E686C4F838A0A4F83CA0A4F83EA0E5
:100DF000C4F844A0C4F840A0A068B0F5004F09D1E1
:100E00002068016821F0400101602068016841F418
:100E10008041016020680168490603D4016841F0FF
:100E200040010160E068B0F5006F606803D030B346
:100E3000012E24D041E008B1012E1CD1206B216885
:100E40000088C86006E020688168890709D5216BA1
:100E50000988C160206B801C2063E08E401EE08604
:100E600009E0FFF7F1FBA0EB0800A84202D3681CE1
:100E700001D031E07DB3E08E0028E4D120E0206B8A
:100E800021680078087306E020688168890709D521
:100E9000216B09780173206B401C2063E08E401E9B
:100EA000E0860AE0FFF7D0FBA0EB0800A84203D3DE
:100EB000681C02D010E017E06DB1E08E0028E3D18D
:100EC00042462946204600F021FA08B120206065FC
:100ED000A06818B106E0FFE7032706E02068C168B4
:100EE00080680090606D00B1012784F851B084F8EB
:100EF00050A0384666E710B5401EB0F1807F01D3A0
:100F0000012010BD4FF0E02460610F21601700F058
:100F1000EAFA0020A06107202061002010BDFEE752
:100F200010B504460122D1020548FFF787FB200ACD
:100F300000F074FAE0B2BDE8104000F06FBA0000B3
:100F40000008024070B5064600214F239F22084644
:100F500000F00EF92C2000F047F90024002530465F
:100F6000FFF7DEFF6D1C502DF9D3641CA02CF5D3C8
:100F700070BD10B500F0E4F8112000F035F97820CC
:100F8000FFF752FAB12000F02FF9052000F01EF90A
:100F90003A2000F01BF93A2000F018F9B22000F0D6
:100FA00023F9052000F012F93A2000F00FF93A2059
:100FB00000F00CF9B32000F017F9052000F006F955
:100FC0003A2000F003F93A2000F000F9052000F083
:100FD000FDF83A2000F0FAF83A2000F0F7F8B420D3
:100FE00000F002F9032000F0F1F8C02000F0FCF856
:100FF000622000F0EBF8022000F0E8F8042000F096
:10100000E5F8C12000F0F0F8C02000F0DFF8C220C1
:1010100000F0EAF80D2000F0D9F8002000F0D6F832
:10102000C32000F0E1F88D2000F0D0F86A2000F035
:10103000CDF8C42000F0D8F88D2000F0C7F8EE20DD
:1010400000F0C4F8C52000F0CFF80E2000F0BEF884
:10105000E02000F0C9F8102000F0B8F80E2000F0F1
:10106000B5F8022000F0B2F8032000F0AFF80E202F
:1010700000F0ACF8072000F0A9F8022000F0A6F874
:10108000072000F0A3F80A2000F0A0F8122000F0DA
:101090009DF8272000F09AF8372000F097F80020FC
:1010A00000F094F80D2000F091F80E2000F08EF87A
:1010B000102000F08BF8E12000F096F8102000F0EE
:1010C00085F80E2000F082F8032000F07FF803205E
:1010D00000F07CF80F2000F079F8062000F076F898
:1010E000022000F073F8082000F070F80A2000F0E9
:1010F0006DF8132000F06AF8262000F067F836201B
:1011000000F064F8002000F061F80D2000F05EF8B7
:101110000E2000F05BF8102000F058F83A2000F0A4
:1011200063F8052000F052F8362000F05DF8A820A2
:1011300000F04CF8BDE81040292000F055B8000040
:1011400070B50A4D4FF48054002221462846FFF71F
:1011500075FA6420FFF768F9012221462846FFF757
:101160006DFABDE870403220FFF75EB9000802401A
:101170002DE9F04107461C4615460E462A2000F090
:1011800033F8002000F022F87F1CF8B200F01EF8BF
:10119000002000F01BF86D1CE8B200F017F82B20BF
:1011A00000F022F8002000F011F81A36F0B200F03A
:1011B0000DF8002000F00AF81A34E0B200F006F84A
:1011C000BDE8F0412C2000F00FB8000010B5044637
:1011D0000122D1020348FFF731FA2046BDE8104052
:1011E00000F01CB90008024010B5044600224FF47C
:1011F00000610448FFF722FA2046BDE8104000F0E5
:101200000DB900000008024070B586B01421684690
:10121000FFF7A1F816480024016841F08001016041
:10122000016801F080010591016841F00101016050
:10123000016801F001010591016841F004010160BC
:1012400000680C4E00F004004FF4E05505900022B9
:1012500029463046FFF7F2F901200095CDE9010457
:10126000694630460394FFF7F1F806B070BD000000
:101270003038024000080240104810B50E490160A5
:101280004FF48271416000218160C1604FF40072AF
:101290000161C0E905120822C0E9072141628162AB
:1012A0000A21C162FFF7E2FC002803D0BDE810402C
:1012B000FFF7B7B810BD000000300140100000205B
:1012C000FEE7FEE77047000070B5FFF752FE0D4CD9
:1012D000012211032046FFF7B1F925150022294606
:1012E0002046FFF7ABF9012229462046FFF7A6F971
:1012F000054800F019F9BDE870404FF49660FFF71B
:1013000093B80000000802409E15000838B5044656
:101310001248134B0068B0FBF3F04FF47A73584354
:1013200000906068B0F5827F0DD10B4600920022DC
:101330008021204600F016F870B1606D40F020006A
:101340006065032038BD009830B1401E00902068D1
:101350008068C0430006F6D5002038BD0C00002090
:1013600000366E012DE9F8431E4691468846044634
:10137000089DFFF769F9401B351AFFF765F9074625
:1013800025480068C0F3CB30684338E0701C37D084
:10139000FFF75AF9C01BA84203D215B1009860B3F9
:1013A0002CE02068416821F0E00141606068B0F500
:1013B000827F0BD1A068B0F5004F02D0B0F5806FEE
:1013C00004D12068016821F040010160A06AB0F5F5
:1013D000005F09D12068016821F400510160206894
:1013E000016841F400510160012084F8510000209F
:1013F00084F850000320BDE8F8830025401E0090CB
:101400002068816838EA010004D000214945BDD137
:101410000020F0E70121F9E70C00002001B54FF6AC
:10142000FF73012269460248FFF7B2FC08BD0000C5
:10143000100000207047FFF70DB9000030B593B0E1
:1014400030216846FEF787FF14210CA8FEF783FFC2
:101450001E480025016841F080510160006800F0DD
:10146000805011901A48016841F480410160006881
:10147000022400F4804011900120009000040190AB
:101480008001CDE90640082008904FF4A870CDE90E
:10149000090404200B906846FFF732FA08B172B6CF
:1014A000FEE70CA90F2081E831004FF4A0500F9007
:1014B0004FF48050109005210CA8FFF757F9002831
:1014C00001D072B6FEE713B030BD000040380240D4
:1014D000007000400248016841F4700101607047EB
:1014E00088ED00E0FEE70907090E002804DB00F1A3
:1014F000E02080F80014704700F00F0000F1E020B9
:1015000080F8141D7047FFF7ADF8FFF797FFFFF75E
:101510007BFEFFF7B1FEFFF72CFD4FF6E070FFF703
:1015200011FDFFF7D1FEFCE72DE9F05F07464FF60E
:10153000FF742046FFF706FD0026A3464FF4C86A55
:10154000002506EB8600272101EBC0090BEAC00845
:10155000272105EB850001EBC0018AB21FFA89F350
:1015600041460BEAC000FFF703FE002407EB4400EE
:1015700017F81410407841EA0020FFF7D1FC641CF2
:101580005445F3DB6D1C042DE2DB761C022ED7DB09
:10159000BDE8F09F4FF04070E1EE100A7047DBDECF
:1015A0005DEF5DEF7DEF5DEF5DEF5DEF5DEF5DEFBB
:1015B0005DEF5DEF5DEF5DEF5DEF5DEFBEF7FFFFB0
:1015C000DEFF38C6928C8E6B6E6B107C96AD3CE75E
:1015D000FFFFFFFF7DEF5DEF5DEF5DEF5DEF5DEF27
:1015E0005DEF5DEF5DEF5DEF5DEF5DEF5DEF5DEF9B
:1015F000FFFFFFFFFFFFFFFFFFFFFFFFFFFFFFFFFB
:10160000FFFFFFFFFFFFFFFFFFFFFFFF5DEF159DE8
:101610004F636C420A328829461925194521E83161
:101620008E6B18BEFFFFFFFFFFFFFFFFFFFFFFFFF7
:10163000FFFFFFFFFFFFFFFFFFFFFFFFFFFF5DEF6C
:10164000FFFFFFFFFFFFFFFFFFFFFFFFFFFFFFFFAA
:10165000FFFFFFFFFFFFFFFFDFFFF59C0F53104B66
:1016600051530F4B6C3AE93167212519E410A30857
:10167000620083088A4A59C6FFFFFFFFFFFFFFFF92
:10168000FFFFFFFFFFFFFFFFFFFFFFFFFFFF5DEF1C
:10169000FFFFFFFFFFFFFFFFFFFFFFFFFFFFFFFF5A
:1016A000FFFFFFFFFFFF1CE74F5BB363B87CF563F1
:1016B00011434D32EA29882126190519051904110B
:1016C0000411E4108300A308728CFFFFFFFFFFFFEB
:1016D000FFFFFFFFFFFFFFFFFFFFFFFFFFFF5DEFCC
:1016E000FFFFFFFFFFFFFFFFFFFFFFFFFFFFFFFF0A
:1016F000FFFFFFFFDBDE4B3AF042356C544BB1325B
:101700002E2AEB21A92167190519041104110411CE
:10171000041104110519E4104200AF73FFFFFFFF2D
:10172000FFFFFFFFFFFFFFFFFFFFFFFFFFFF5DEF7B
:10173000FFFFFFFFFFFFFFFFFFFFFFFFFFFFFFFFB9
:10174000FFFF5DEF09324C32104B8F324F2A2E2AA9
:10175000CC19891989214719051904110411C410DC
:10176000C410041104110411E41042003184FFFF7D
:10177000FFFFFFFFFFFFFFFFFFFFFFFFFFFF5DEF2B
:10178000FFFFFFFFFFFFFFFFFFFFFFFFFFFFFFFF69
:10179000FFFFEC5247194C320B2AEC21EC210C22B2
:1017A000915BEE4A061126190419E410E410A729EA
:1017B0006621A308051904110411E4108200F7BD85
:1017C000FFFFFFFFFFFFFFFFFFFFFFFFFFFF5DEFDB
:1017D000FFFFFFFFFFFFFFFFFFFFFFFFFFFFFFFF19
:1017E00035A58308882188218921AA218A216B4275
:1017F000718CFFFF728C83080411C4082942FBDE40
:101800005DEFEC5A83080411041104118308E831D8
:10181000DFFFFFFFFFFFFFFFFFFFFFFFFFFF5DEFAA
:10182000FFFFFFFFFFFFFFFFFFFFFFFFFFFFBEF711
:10183000C731C4102519261947194719A8298A52F2
:10184000284A55ADFFFFE831A30805194D6B4D6BD4
:10185000FFFF7DEF4521C410041104110411620043
:1018600076ADFFFFFFFFFFFFFFFFFFFFFFFF5DEF15
:10187000FFFFFFFFFFFFFFFFFFFFFFFFFFFF96B52B
:1018800062000411041905110519C4088B4AB6B584
:101890005DEFF7BDFFFF8E6B62002942AA5A084236
:1018A000FFFFFFFFCC528308041104110411A308A9
:1018B000AD52FFFFFFFFFFFFFFFFFFFFFFFFBEF780
:1018C000FFFFDFFFDBDEFFFFFFFFFFFFFFFF4E63DA
:1018D0006200041104110411E41062008E63FFFF22
:1018E000FFFFFFFFFFFFCF730100F39C2C6396B552
:1018F000FFFFFFFF2D5B8300041104110411E410AE
:1019000067213DEFFFFFFFFFFFFFFFFFFFFFB7B5C1
:1019100076AD7DEFCB52B394FFFFFFFFDFFFE831E1
:10192000A3080411041104110411A3084942FFF78C
:10193000FFF7FFFFFFFF6A4A01007284FFFFFFFF0E
:10194000FFF7DFEF093AA308041104110411041191
:10195000051118BEFFFFFFFFFFFFFFFFFFFFF07B3A
:101960006200E831C731410035A5FFFF5DEF462138
:10197000C4100411041104110411E410A308769D8D
:10198000FFF7FFFFB7ADA308A308C7319EE7FFF736
:10199000FFF776A5A308E410041104110411051142
:1019A000051135A5FFFFFFFFFFFFFFFFFFFFDBDE98
:1019B000A7298300C410C410C4101CE79EEF0511B2
:1019C000E41004110411041104110419C408E510F1
:1019D000D16BD16BC5086400A50843002B32779DFD
:1019E000B3842519C410041104110411041125191C
:1019F0002609359DFFFFFFFFFFFFFFFFFFFFFFFFF2
:101A0000AF7362000419051982000D5B8E9B621092
:101A10000511041104110419E41085000511C439DD
:101A2000815A407B229C43AC03A4839B82728249EF
:101A3000C218A400C500E4100419041105194719BF
:101A40006711EC5ABEFFFFFFFFFFFFFFFFFFDFFF45
:101A5000DBD6C410E41004110511A41801C083885A
:101A6000E40005190419C5084421438323D542FE27
:101A7000E4FE27FF07FFA4FE64FE03FEA3FDE2FCD5
:101A800042EC83B32462E510C40804192619A8198E
:101A900087210090D3BCFFFFFFFFFFFFFFFF5DEF3B
:101AA000FFFFF07B420005190511832801D044F89F
:101AB000A348E400C508445A02EDE2FD02FE66FEBA
:101AC00074FFB8FF73FFE7F6A6F645F6A4F5C3FC6E
:101AD00062FCC2FCC2FCE3CBC44906118819870131
:101AE000A49001F8EC9AFFFFFFFFFFFFFFFF5DEFFF
:101AF000FFFF9EF7E83183000509824001C023F80B
:101B000085F0A348A400445A02FD23CCC2DC04FEA5
:101B100028FE48F646F624F6E4F564FDE3FC62FC94
:101B2000C2FC02E402DCE2FCA47A48016701C4784A
:101B300024F802F884B07DE7FFFFFFFFFFFF5DEFB1
:101B4000FFFFFFFFDBDE2519A300C43802E022D827
:101B500044F8A6F8A4786300432183728339829BFA
:101B600021F561FD22FDE2FCA2FC42FC42FC42FCAC
:101B700022AB8341C392045226012519A49844F84C
:101B800023F802F8A4D09EEFFFFFFFFFFFFF5DEFF9
:101B9000FFFFFFFFFFFF9AD68729A50043B822F871
:101BA00023E065F8E8F807C983484200A3008400F1
:101BB0006329A27A62B3A2CB62D302BB828A833941
:101BC000A400E500E500E508C46064D844F824F802
:101BD00023F802F88388DBC6FFFFFFFFFFFF5DEFFE
:101BE000FFFFFFFFFFFFFFFF3DE7505B083123E8EA
:101BF00043F844F065F809F9ABF989D10689A3489F
:101C0000421802004200610082006200620083000C
:101C1000A320C450A58885D865F844F844F823F873
:101C200023F803D08210C7295DEFFFFFFFFF5DEFB0
:101C3000FFFFFFFFFFFFFFFFFFFFFFFF6C32A53835
:101C400002D823F865F866F8A7F84AF90CFA4DFAB5
:101C50004CEA0BD2A9B968B147A927B107B907D196
:101C6000E7E8C7F8A7F865F865F844F823F803F83B
:101C700002D0A3280509C408EC5AFFFFFFFF5DEF5F
:101C8000FFFFFFFFFFFFFFFFFFFFFBDE0519C400A3
:101C9000A741E6C003F886F8A7F887F886F8C7F8E2
:101CA00029F98AF9ABF9ABF98BF96AF929F908F93D
:101CB000C7F8A6F886F865F864F823F802F006B1CC
:101CC0002529E400E41025192519149DFFFF5DEF77
:101CD000FFFFFFFFFFFFFFFFFFFF96AD62008208DF
:101CE0003595BACE8BA244D025F887F8A7F8C7F867
:101CF000A7F887F886F886F886F887F8A7F8A7F88F
:101D0000A6F885F865F864F824F064B80D93BBB6BE
:101D1000CF6383080411E4106621493A5DEF5DEF5B
:101D2000FFFFFFFFFFFFFFFFFFFFD3944200E41020
:101D3000BBCEFFFFBEE776B5CCAA07C145E045F8AC
:101D400046F866F886F886F886F886F865F845F865
:101D500065F865E844D043A8018882903CD7FFEF3E
:101D6000559583080411041105194619B3945DEFC4
:101D7000FFFFFFFFFFFFFFFFFFFFB394410086213E
:101D80005DDFFFFFFFFFFFFFDFE77AC6D3B44EB38F
:101D90002AC268D1E6E0A6E8A5E8A5E8E6D888C9A1
:101DA00006A922A802A800A000C800D8F7E5FFE70E
:101DB000F8ADC410E4100411E41005118B4A5DEF76
:101DC000FFFFFFFFFFFFFFFFFFFF55A54100A72912
:101DD0005DDFFFF7FFFFFFFFFFFFFFFFFFFFFFEFED
:101DE0007DDFDBCE59CEF8CDD7CDF7C579CEFBBEA2
:101DF000ABA203F045F842D043E800F072D4FFDF15
:101E000039AEE410E4100411E410051187295DEFE8
:101E1000FFFFFFFFFFFFFFFFFFFF59CE83084621B3
:101E20001CD7FFF7FFFFFFFFFFFFFFFFFFFFFFFFD5
:101E3000FFFFFFFFFFFFFFFFFFFFFFFFFFFFFFEFC2
:101E40008BBA04F845F862E044F000F88EDBFFDF5F
:101E5000F8A5C410E410E4100411E41025195DEF96
:101E6000FFFFFFFFFFFFFFFFFFFFBEF7872983088C
:101E700039B6FFF7DFF7FFFFFFFFFFFFFFFFFFFFB1
:101E8000FFFFFFFFFFFFFFFFFFFFFFFFFFFFBEE7BB
:101E90004ABA03F845F864F844F800F86EE3FFD74F
:101EA000F48C83080411E410E410E41005195DEFCC
:101EB000FFFFFFFFFFFFFFFFFFFFFFFFEF730000CC
:101EC0007284FFEFBEEFDFFFFFFFFFFFFFFFFFFFAB
:101ED000FFFFFFFFFFFFFFFFFFFFFFFFFFFFDFE74A
:101EE0008BBA03F845F845F823F800F8D3D4FFD7A8
:101EF0004E5B2100293A55A58308C41025195DEFD2
:101F0000FFFFFFFFFFFFFFFFFFFFFFFFFBDEA30859
:101F1000E8319EDF9EE7BFEFFFFFFFFFFFFFFFFF00
:101F2000FFFFFFFFFFFFFFFFFFFFFFFFFFFFFFF7C9
:101F300051BC02E003F803F043E0ECC27ECFFCBEEC
:101F400046212100D394FFFF5184000087295DEFD3
:101F5000FFFFFFFFFFFFFFFFFFFFFFFFFFFF5184BA
:101F60000000F48CFFEF9EE7BFEFDFFFFFFFFFFFF6
:101F7000FFFFFFFFFFFFFFFFFFFFFFFFFFFFFFFF71
:101F80003DDF55BD52BC72BCB7B55DC7FFDFF06B1E
:101F90000000093ABFF7FFFFFFFF149D55A55DEF55
:101FA000FFFFFFFFFFFFFFFFFFFFFFFFFFFFFFFF41
:101FB000AC4AA408BBBEDFE77EE7BEEFDFF7DFFF7A
:101FC000FFFFFFFFFFFFFFFFFFFFFFFFFFFFDFFF41
:101FD000DFF7FFEFDFDFBFD79ED7DFDFD8A58308AE
:101FE0002611DBD6FFFFFFFFFFFFFFFFFFFF5DEFC7
:101FF000FFFFFFFFFFFFFFFFFFFFFFFFFFFF79EE88
:102000008BDC2131A9213DCFBFDF7EDF9EE7BEEF14
:10201000BFEFDFF7DFF7DFF7DFF7DFF7BFEFBEEF89
:102020009EE77EDF5ED75ED7DFDF9AB626194208CD
:10203000EDA3BFFFFFFFFFFFFFFFFFFFFFFF5DEF10
:10204000FFFFFFFFFFFFFFFFFFFFFFFF74DDC0DBB0
:1020500000FE42EE024289217BB6DFDF7ED77EDFC3
:102060007EDF9EE79EE79EE79EE79EE77EDF7EDFC0
:102070005DD75DD79EDFFFE7F8A50711E31802C51E
:1020800060FDE6D3DBEEFFFFFFFFFFFFFFFF5DEF2D
:10209000FFFFFFFFFFFFFFFFFFFF9EF784BAC1FCBA
:1020A00042FE82FEA2FE8183452174745EC7DFDF9B
:1020B0007ED75ED75DD75ED75ED75DD75DD75ED75B
:1020C0009EDFFFE73DC7F1638408425226E629FF01
:1020D00086FEE0F36AC3FFFFFFFFFFFFFFFF5DEF38
:1020E000FFFFFFFFFFFFFFFFFFFF18DEC1D2A2FDD2
:1020F00022FE42FE42FE62FEE2D4416A494253742D
:102100003BA63EC7BFD7BFD7BFD7BFDFBFD73EC7EE
:102110001AA6F263A729824122B462FE83FEAAFEB8
:102120000FFF67FD63BA3CEFFFFFFFFFFFFF5DEFAF
:10213000FFFFFFFFFFFFFFFFFFFF9AE680D221FDB9
:10214000C2FDE2F5C2F582F582FD62FD61DC219BF4
:10215000846AE96A2C63AF6311746E632C63895AD5
:102160000452817AC2CBE2FC62FD82FDC2FDC2FD57
:10217000E4FD24FD62CA1CE7FFFFFFFFFFFF5DEFE8
:10218000FFFFFFFFFFFFFFFFFFFFFFFFB1CC81D28B
:10219000C0F3C1FC02FD02FDE2FCC2FCC2FC81FCFA
:1021A00080FBC0C9A48135AD59CE719C218100DA74
:1021B000A1FB82FCA2FC82FCA2FC02FD22FDE2FC4F
:1021C00000FC60DA90CCFFFFFFFFFFFFFFFF5DEF39
:1021D000FFFFFFFFFFFFFFFFFFFFFFFFFFFF59DED6
:1021E0000DC406CBE4D203DB03DBE3DAC3D2A4C223
:1021F00009B3D2BC9EF7FFFFFFFFFFFFFBE60EB463
:10220000A6BA83D2E3E202EB22EB22E303DBE4D2C1
:102210006AC3B6D5FFFFFFFFFFFFFFFFFFFF000010
:102220000000000000000102030406070809000086
:10223000502200080000002010000000C401000827
:102240006022000810000020B8060000E00100082D
:102250000100000010000000000000000024F40055
:040000050800018965
:00000001FF
