:020000040800F2
:10000000B80600202902000859130008F112000860
:1000100055130008210400086114000800000000C6
:100020000000000000000000000000006113000854
:1000300025040008000000005D1300086513000897
:10004000430200084302000843020008430200087C
:10005000430200084302000843020008430200086C
:10006000430200084302000843020008430200085C
:10007000430200084302000843020008430200084C
:10008000430200084302000843020008430200083C
:10009000430200084302000843020008430200082C
:1000A000430200084302000843020008430200081C
:1000B000430200084302000843020008430200080C
:1000C00043020008430200084302000843020008FC
:1000D00043020008430200084302000843020008EC
:1000E00043020008430200084302000843020008DC
:1000F00043020008430200084302000843020008CC
:1001000043020008430200084302000843020008BB
:1001100043020008430200084302000843020008AB
:10012000430200084302000843020008430200089B
:10013000430200084302000843020008430200088B
:10014000430200084302000843020008430200087B
:10015000430200084302000843020008430200086B
:10016000430200084302000843020008430200085B
:100170004302000843020008430200080000000098
:10018000430200084302000800F002F800F03CF8C7
:100190000AA090E8000C82448344AAF10107DA45E2
:1001A00001D100F031F8AFF2090EBAE80F0013F0F8
:1001B000010F18BFFB1A43F001031847B0130000EA
:1001C000D0130000103A24BF78C878C1FAD852077B
:1001D00024BF30C830C144BF04680C6070470000C1
:1001E0000023002400250026103A28BF78C1FBD840
:1001F000520728BF30C148BF0B6070471FB501F0E0
:100200009CF91FBD10B510BD00F0D0F81146FFF7E6
:10021000F5FF01F027F900F0EEF803B4FFF7F2FF65
:1002200003BC00F0F5F80000094880470948004782
:10023000FEE7FEE7FEE7FEE7FEE7FEE7FEE7FEE796
:10024000FEE7FEE704480549054A064B70470000F3
:100250006913000889010008B8000020B8060020D2
:10026000B8020020B802002053EA020C00F06980B6
:100270002DE9F04B4FF00006002B1FBFB3FA83F5BA
:1002800003FA05F424FA05F65E4012BF1643B2FAEB
:1002900082F502FA05F4C5F120051EBF22FA05FC1D
:1002A00044EA0C04203556EA044C4FEA144418BFC3
:1002B000641C4FF000084FF00009904271EB030CF2
:1002C00039D3002919BFB1FA81F701FA07F6B0FA5C
:1002D00080F700FA07F6C7F120071EBF20FA07FCD7
:1002E00046EA0C062037B6FBF4FCA7EB0507103FE7
:1002F00007F01F0BCBF120062CFA06F60CFA0BFBCD
:1003000044BFB3460026202FA4BF5E464FF0000B2B
:100310005BEA060C08BF4FF0010B19EB0B0948EB29
:100320000608ABFB027C06FB02CC0BFB03CCC01B1C
:1003300071EB0C01C1E70B46024641464846BDE859
:10034000F08B13B5084318BF4FF0FF300146AFF3F1
:100350000080BDE81C4070474FF0000200B5134616
:1003600094469646203922BFA0E80C50A0E80C50D5
:10037000B1F12001BFF4F7AF090728BFA0E80C5086
:1003800048BF0CC05DF804EB890028BF40F8042B7F
:1003900008BF704748BF20F8022B11F0804F18BFEC
:1003A00000F8012B7047704770477047754600F0A2
:1003B0002BF8AE4605006946534620F007008546F7
:1003C00018B020B5FFF73EFFBDE820404FF0000613
:1003D0004FF000074FF000084FF0000BAC46ACE8C0
:1003E000C009ACE8C009ACE8C009ACE8C00921F01C
:1003F00007018D46704710B50446AFF300802046D4
:10040000BDE81040FFF709BF00487047100000200A
:1004100001491820ABBEFEE726000200704700002D
:10042000FEE7000070470000EFF3108072B600BFD7
:10043000FEE700002DE9F04F82B000F13E4241F6A8
:10044000004502F1FF77C4F2020508224FEAB72601
:10045000A84208BF0722072E38BF4FEAB7224FF045
:10046000010A002400274FF00008009208E000BFB6
:10047000023708F10108202F04F1040400F0B480D1
:100480000E680AFA08F916EA090FF1D0D1F804A0AB
:100490000AF0030BABF10106012E17D80322866880
:1004A00002FA07FECA6826EA0E06BA4032438260A4
:1004B0004268CAF3001522EA090205FA08F54FEA74
:1004C000480C6FEA0E062A4342600BE00322BA4052
:1004D000D643BBF1030FBC4604D1BC464FF0030B1F
:1004E00022E000BFC2688D68324005FA0CF52A434D
:1004F000BBF1020FC26017D16FF0030202EA58028B
:10050000024404F01C030F25D2F820E005FA03FA98
:100510000D692EEA0A0E05FA03F343EA0E0313628D
:10052000D1F804A00AF0030B02680BFA0CF3324076
:100530001A431AF4403F4FF0010A026098D000229B
:1005400043F644030192C4F202031A6843F6004ED4
:1005500042F480421A601A68C4F2010E02F480422A
:100560000192019A28F003024FF6084C7244CFF62C
:10057000FF7C52F80C3004F00C060F25B540AB435D
:10058000009D05FA06F6334342F80C30DEF80820E9
:100590004B6842EA090643F60C4CDD0258BF22EADA
:1005A0000906CEF80860C4F2010CDCF800209D02B8
:1005B00042EA090658BF22EA0906CCF80060DEF8D4
:1005C00004209D0342EA090658BF22EA0906CEF834
:1005D0000460DEF80020DB0342EA090658BF22EA85
:1005E0000906CEF8006043E702B0BDE8F08F0000D6
:1005F00040F2B400C2F200000068704740F2000010
:1006000040F2B401C2F20000C2F2000100780A68B0
:10061000104408607047000080B543F60040C4F203
:100620000200016841F400710160016841F48061D9
:100630000160016841F480710160032000F074F8EA
:100640000F2000F005F800F027F8002080BD000022
:1006500070B540F20006C2F2000640F2080132789E
:10066000C2F200014FF47A730968B3FBF2F2044658
:10067000B1FBF2F1084600F031FB0F2C4FF0010501
:1006800008D838B94FF0FF3021460022002500F08D
:100690001FF87460284670BD82B0002043F6400108
:1006A0000190C4F202014A6842F480424A604A68FA
:1006B00002F480420192019A0090086840F0805054
:1006C0000860086800F080500090009802B0704701
:1006D00010B54EF60C5CCEF2000CDCF80030C3F323
:1006E000022E8EF00704042C28BF0424BEF103035D
:1006F0004FF0FF3E0EFA04F438BF0023A1439940A7
:100700000EFA03F39A4300F00F03043B11436344D2
:1007100009010C3300F16042B0F1FF3FC8BF02F5A0
:100720006443197010BD00004EF60C51CEF200016A
:100730000A684FF6FF031A4060F30A2242F0806015
:1007400040F0FD70086070472DE9F041002800F08E
:100750008B8043F60808C4F202080446D8F8F80370
:100760000D4600F00700884207D288F8F853D8F801
:10077000F80300F00700A84276D12068810717D55A
:10078000410705D5D8F8001041F4E051C8F8001031
:10079000010705D5D8F8001041F46041C8F80010F1
:1007A000D8F80010A26821F0F0011143C8F8001039
:1007B000C0073FD1D8F8F80300F00700A84207D9D6
:1007C00088F8F853D8F8F80300F00700A8424BD196
:1007D0002068410707D5D8F80010E26821F4E051FD
:1007E0001143C8F80010000708D5D8F800002169A7
:1007F00020F4604040EAC100C8F8000000F07CF836
:10080000D8F8001041F25452C1F30311C0F60002AF
:10081000515C40F2080220FA01F140F20400C2F2F9
:1008200000000068C2F200021160FFF711FF002013
:10083000BDE8F0816068811E022907D258F8081CC3
:1008400089015CBF0120BDE8F08111E0012807D1DA
:1008500058F8081C89035CBF0120BDE8F08107E05F
:1008600058F8081C890703D40120BDE8F08100BFB7
:10087000D8F8001021F003010843C8F80000FFF782
:10088000B7FE064641F28837D8F80000616800F0EC
:100890000C00B0EB810F8DD0FFF7AAFE801BB84291
:1008A000F2D90320BDE8F08140F2080043F60801C8
:1008B000C2F20000C4F202010068096841F2645209
:1008C000C1F38221C0F60002515CC84070470000AD
:1008D00040F2080043F60801C2F20000C4F202012F
:1008E0000068096841F26452C1F34231C0F6000267
:1008F000515CC8407047000010B543F60404C4F2D0
:100900000204606800F00C0008280BD0042819BF0E
:1009100042F20040C0F2F40047F64000C0F27D1001
:1009200010BD00BF206821682368490247F64001D6
:10093000C0F27D1100F03F02C3F388105CBF42F2A9
:100940000041C0F2F401A1FB00010023FFF78CFC81
:1009500021680222C1F3014102EB4101B0FBF1F039
:1009600010BD00002DE9F04182B000286AD0044695
:10097000007843F60006C007C4F202060BD0B06848
:1009800000F00C00042840F0A1803068800302D5FC
:100990006068002856D0207880071AD5B06810F01B
:1009A0000C0F09D0B06800F00C00082840F0A880B7
:1009B0007068400200F1A4803068800702D5E068CA
:1009C00001283FD13068216920F0F80040EAC100D9
:1009D00030602078000739D4207840074ED4A569CC
:1009E0005DB3B06800F00C00082840F0BD80012D18
:1009F00028D07068E16900F480028A4222D1216A1D
:100A000000F03F028A421DD147F6C071626A014080
:100A1000B1EB821F16D1A26A0023CFF6FF7303EB5E
:100A2000C23200F440316FF30F0291420AD1E16A01
:100A300000F07060B0EB016F04D1002002B0BDE89F
:100A4000F08100BF012002B0BDE8F081606900289C
:100A500040F20000C4F2472076D00121C0F8801E89
:100A6000FFF7C6FD054600BF706F8007B4D4FFF7DF
:100A7000BFFD401B0228F7D9DDE000BF306C10F04D
:100A800080580AD100200190306C40F080503064D2
:100A9000306C00F080500190019847F20007C4F2DA
:100AA00000073868C00541D4386840F48070386069
:100AB000FFF79EFD054600BF3868C00536D4FFF736
:100AC00097FD401B0228F7D9B5E000BFB06800F0E1
:100AD0000C00082803D1706840023FF556AF6068EB
:100AE000B0F5803F07D0B0F5A02F40F08D80306882
:100AF00040F480203060306840F4803030608DE019
:100B0000E068002852D00020C4F247200121016093
:100B1000FFF76EFD054600BF306880073FF552AF16
:100B2000FFF766FD401B0228F6D984E0A068012883
:100B300005D005284ED1306F40F004003067306F8B
:100B400040F0010030674FE00021C0F8801EFFF741
:100B50004FFD0546706F80077FF53EAFFFF748FDFC
:100B6000401B0228F6D966E00027C4F24727002080
:100B70003866FFF73DFD022D05460BD13068800138
:100B80005ED5FFF735FD401B02284FF00300F5D975
:100B900054E700BF306880017FF54FAFFFF728FDB5
:100BA000401B02284FF00300F4D947E70020C4F2AD
:100BB000472000210160FFF71BFD054630688007D4
:100BC0007FF507AFFFF714FD401B02284FF003002D
:100BD000F4D933E7316F002821F001013167316F1B
:100BE00021F0040131674DD0FFF702FD054641F2C7
:100BF000883700BF306F800756D4FFF7F9FC401BE1
:100C0000B842F7D917E000BF3168002821F48031DD
:100C10003160316821F4802131604FD0FFF7E8FC6A
:100C2000054600BF306880033FF5B5AEFFF7E0FC36
:100C3000401B6428F6D9032002B0BDE8F08100BF54
:100C400004F11C052FCD08430021CFF6FF7140EAC7
:100C5000821001EBC3316FF30F0140EA05600843D6
:100C6000706001203866FFF7C3FC044630688001DD
:100C70003FF5E3AEFFF7BCFC001B02284FF003007A
:100C8000F4D9DBE6FFF7B4FC054641F2883700BF34
:100C9000306F800708D5FFF7ABFC401BB8424FF020
:100CA0000300F5D9CAE600BFB8F1000F7FF497AE94
:100CB000306C20F08050306491E600BFFFF798FC64
:100CC000054600BF306880037FF565AEFFF790FCF6
:100CD000401B64284FF00300F4D9AFE6411E00200A
:100CE000B0EB116F1CBF012070474EF21002CEF224
:100CF000000251604EF62351CEF20001F0230B703A
:100D00000721906011607047002804BF01207047E0
:100D100010B5044690F83D0028B9002084F83C0046
:100D2000204600F021F8242084F83D002068C168A6
:100D300021F40051C160204600F020FB20680169C9
:100D400021F490410161416921F02A014161C168AA
:100D500041F40051C16000202021206484F83D103E
:100D600084F83E1010BD000080B586B0016841F2E5
:100D70000000C4F20100814202D006B080BD00BF75
:100D8000002143F630020191C4F20202536900F5DA
:100D9000704043F010035361536903F01003019353
:100DA000019B0191136843F001031360126802F084
:100DB00001020192019A4FF4C06201920222CDE930
:100DC0000221032104910721059101A9FFF732FBBC
:100DD00006B080BD2DE9F04381B0044690F83E0096
:100DE00020280BD10D4600294FF0010061D0174695
:100DF000002A5ED094F83C00012803D1022001B003
:100E0000BDE8F083012084F83C004FF00009222067
:100E10001E46C4F8409084F83E00C4F83090FFF7B6
:100E2000E7FBA785E785A1680746B1F5805F0BD191
:100E3000206900281CBF28464D46A846054684F870
:100E40003C90E08D30B930E04FF0000884F83C90E1
:100E5000E08D50B3701C3BD0002E67D02068016835
:100E6000890605D4FFF7C4FBC01BB042F6D975E074
:100E700055B1A168B1F5805F0ED009B9216959B1AA
:100E8000406800F07F0008E0406800256FF35F20B5
:100E900028F8020B03E000BF406805F8010BE08D65
:100EA0000138E085E08D0028D8D1202084F83E006C
:100EB000002001B0BDE8F083406800256FF35F209B
:100EC00028F8020BE08D0138E085E08D0028ECD099
:100ED0002068016889065FBF01685FEA8161016877
:100EE0005FEA816102D401688906F2D5002DE3D062
:100EF000A168B1F5805F09D009B9216931B14068B5
:100F000000F07F0005F8010BDCE700BF406805F842
:100F1000010BD7E7406800256FF35F2028F8020B2C
:100F2000E08D0138E085E08D0028BED020680168A2
:100F3000890613D5002DEDD0A168B1F5805F09D0E9
:100F400009B9216931B1406800F07F0005F8010B53
:100F5000E6E700BF406805F8010BE1E7206850E8CC
:100F6000030F216820F4D07041E80302BAB320686F
:100F700050E8030F216820F4D07041E8030272B3F7
:100F8000206850E8030F216820F4D07041E8030284
:100F90002AB3206850E8030F216820F4D07041E89C
:100FA0000302002ADAD11AE0206850E8050F216810
:100FB00020F0010041E80502DAB1206850E8050F91
:100FC000216820F0010041E8050292B1206850E854
:100FD000050F216820F0010041E805024AB12068B0
:100FE00050E8050F216820F0010041E80502002AC1
:100FF000DAD1202084F83D0084F83E00002084F8F7
:101000003C00032001B0BDE8F08300002DE9F0436F
:1010100081B0044690F83D0020280DD10F460029EC
:101020004FF0010000F060811646002A00F05C815C
:1010300094F83C00012803D1022001B0BDE8F08300
:10104000012084F83C004FF0000921201D46C4F81F
:10105000409084F83D00FFF7CBFAA684E684A168AF
:101060008046B1F5805F40F09D80206900281CBF5C
:1010700038464F463E46074684F83C90E08C0028B0
:1010800000F09780681C00F097803DB9206828E048
:10109000FFF7AEFAA0EB0800A8422BD82068016841
:1010A0000906F5D517B117F8011B04E036F8021B45
:1010B00000276FF35F214160E18C0139E184E18C0D
:1010C0000029ECD198E000BF36F8021B00276FF32F
:1010D0005F214160E18C0139E184E18C002900F05D
:1010E0008B800168090605D5002FEDD017F8011B8C
:1010F000EFE700BF206850E8030F216820F4D070AC
:1011000041E80302BAB3206850E8030F216820F4D5
:10111000D07041E8030272B3206850E8030F2168E1
:1011200020F4D07041E803022AB3206850E8030F8E
:10113000216820F4D07041E80302002ADAD11AE0D5
:10114000206850E8050F216820F0010041E8050201
:10115000DAB1206850E8050F216820F0010041E86D
:10116000050292B1206850E8050F216820F00100C7
:1011700041E805024AB1206850E8050F216820F0D7
:10118000010041E80502002ADAD1202084F83D0060
:1011900084F83E00002084F83C00032001B0BDE844
:1011A000F08300BF002684F83C90E08C00287FF498
:1011B00069AF206820E000BF206802E001680906EE
:1011C00009D4016809065FBF01685FEA016101682F
:1011D0005FEA0161F2D51FB117F8011B05E000BFFE
:1011E00036F8021B00276FF35F214160E18C013963
:1011F000E184E18C0029E4D1016849060FD4FDB1F6
:10120000691C17D1016849065FBF01685FEA416147
:1012100001685FEA416102D401684906F2D52020E5
:1012200084F83D00002001B0BDE8F083206800682C
:101230004006F4D4FFF7DCF9A0EB0800A842F5D98A
:10124000206850E8030F216820F4D07041E80302C1
:10125000BAB3206850E8030F216820F4D07041E849
:10126000030272B3206850E8030F216820F4D070A5
:1012700041E803022AB3206850E8030F216820F4F4
:10128000D07041E80302002ADAD11AE0206850E861
:10129000050F216820F0010041E80502DAB120685D
:1012A00050E8050F216820F0010041E8050292B1E5
:1012B000206850E8050F216820F0010041E8050290
:1012C0004AB1206850E8050F216820F0010041E88C
:1012D0000502002ADAD1202084F83D0084F83E007F
:1012E000002084F83C00032001B0BDE8F08300003A
:1012F000FEE7000081B00020009043F63000C4F209
:101300000200016841F001010160006800F0010085
:101310000090009801B0704780B540F2700041F233
:101320000001C2F20000C4F2010100234FF00C0CD6
:101330004FF4E13280E80E00C0E90333C0E905C391
:10134000C361FFF7E1FC002808BF80BDBDE8804015
:10135000FFF76AB8FEE70000FEE7000070470000F4
:1013600070470000FFF74AB94EF68850CEF20000F1
:10137000016841F4700101607047000010B5044637
:101380000068D4E902C22369016921F44051114384
:101390000161626943EA0C01E3691143C2681943C0
:1013A00049F20C639A431143C1604169A26921F477
:1013B000407141F20043114340F48062C4F20103E2
:1013C0009A42416102D1FFF783FA01E0FFF76CFA1C
:1013D000E16963681922B1F5004FA0FB02011FD13A
:1013E0005A00DB0FFEF740FF48F21F51C5F2EB1128
:1013F000A0FB01235A096FF0630302FB03003223B1
:1014000003EBC000A0FB01014FF4F87000EA1110DB
:1014100000EB0210C1F3421122680843906010BD36
:101420009A009B0FFEF720FF48F21F51C5F2EB1107
:10143000A0FB01235A096FF0630302FB0300322370
:1014400003EB0010A0FB0101F02000EA511000EBBB
:101450000210C1F3431122680843906010BD0000E0
:10146000FEE7000092B0FFF7D7F806AC201D2C2154
:10147000FEF772FF002543F640000595CDE90355C0
:10148000CDE901550095C4F20200016841F0805198
:101490000160006800F080500090009847F2000062
:1014A0000095C4F20000016841F4804101600068C9
:1014B00000F48040009000980220069001200990DE
:1014C00010200A9020460C95FFF74CFA20B1EFF35C
:1014D000108072B6FEE700BF0F20CDE9010501A81C
:1014E0000021CDE903550595FFF72EF920B1EFF363
:1014F000108072B6FEE700BFFFF7FCFEFFF70CFF9F
:1015000040F270040026C2F2000406AD20462946CF
:1015100005224FF47A73ADF82060CDE90666FFF737
:1015200059FC9DF818000028F0D0204629460522D5
:101530004FF47A73FFF76AFDE8E7F1EE100A4FF611
:10154000FF71C0F2C03120EA010040F04070E1EECE
:10155000100A7047000000000000000001020304B0
:1015600006070809000000000102030490150008A6
:101570000000002010000000C4010008A0150008B1
:1015800010000020A8060000E00100080000000094
:1015900001000000100000000024F4000000000022
:040000050800018965
:00000001FF
